{
  "abi": [
    {
      "inputs": [
        {
          "internalType": "address",
          "name": "_lostAddress",
          "type": "address"
        },
        {
          "internalType": "address",
          "name": "_poolAddress",
          "type": "address"
        }
      ],
      "stateMutability": "nonpayable",
      "type": "constructor"
    },
    {
      "anonymous": false,
      "inputs": [],
      "name": "CodeEntered",
      "type": "event"
    },
    {
      "anonymous": false,
      "inputs": [
        {
          "indexed": false,
          "internalType": "uint256",
          "name": "amountToSend",
          "type": "uint256"
        }
      ],
      "name": "SystemFailure",
      "type": "event"
    },
    {
      "inputs": [],
      "name": "countdown",
      "outputs": [
        {
          "internalType": "uint256",
          "name": "",
          "type": "uint256"
        }
      ],
      "stateMutability": "view",
      "type": "function"
    },
    {
      "inputs": [],
      "name": "enterTheCode",
      "outputs": [],
      "stateMutability": "nonpayable",
      "type": "function"
    },
    {
      "inputs": [],
      "name": "lostAddress",
      "outputs": [
        {
          "internalType": "address",
          "name": "",
          "type": "address"
        }
      ],
      "stateMutability": "view",
      "type": "function"
    },
    {
      "inputs": [],
      "name": "poolAddress",
      "outputs": [
        {
          "internalType": "address",
          "name": "",
          "type": "address"
        }
      ],
      "stateMutability": "view",
      "type": "function"
    },
    {
      "inputs": [],
      "name": "systemFailure",
      "outputs": [],
      "stateMutability": "nonpayable",
      "type": "function"
    }
  ],
  "bytecode": "608060405234801561001057600080fd5b5060405161041838038061041883398101604081905261002f91610080565b600180546001600160a01b039384166001600160a01b03199182161790915560028054929093169116179055426000556100b3565b80516001600160a01b038116811461007b57600080fd5b919050565b6000806040838503121561009357600080fd5b61009c83610064565b91506100aa60208401610064565b90509250929050565b610356806100c26000396000f3fe608060405234801561001057600080fd5b50600436106100575760003560e01c80631755ff211461005c57806354c0a3611461008c578063c06810701461009f578063cba88872146100a9578063e7141a7c146100c0575b600080fd5b60025461006f906001600160a01b031681565b6040516001600160a01b0390911681526020015b60405180910390f35b60015461006f906001600160a01b031681565b6100a76100c8565b005b6100b260005481565b604051908152602001610083565b6100a7610102565b6100d44261fd2061028c565b60009081556040517f759084964c2a478c4e74f349f18a2a9d1dc07997e470712fd7a38ee0f4a282559190a1565b60005442116101315760405162461bcd60e51b8152602060048201526000602482015260440160405180910390fd5b61013d4261fd2061028c565b60009081556001546040516370a0823160e01b81523060048201526064916001600160a01b0316906370a0823190602401602060405180830381865afa15801561018b573d6000803e3d6000fd5b505050506040513d601f19601f820116820180604052508101906101af91906102a5565b6101ba90600a6102be565b6101c491906102d5565b60015460025460405163a9059cbb60e01b81526001600160a01b03918216600482015260248101849052929350169063a9059cbb906044016020604051808303816000875af115801561021b573d6000803e3d6000fd5b505050506040513d601f19601f8201168201806040525081019061023f91906102f7565b506040518181527f14bf3842551eaea98908ab1838cb6bb6a155156de3b03b4715964da357c4a9f49060200160405180910390a150565b634e487b7160e01b600052601160045260246000fd5b8082018082111561029f5761029f610276565b92915050565b6000602082840312156102b757600080fd5b5051919050565b808202811582820484141761029f5761029f610276565b6000826102f257634e487b7160e01b600052601260045260246000fd5b500490565b60006020828403121561030957600080fd5b8151801515811461031957600080fd5b939250505056fea2646970667358221220ecdc2b6ffd9fca65b69c7e38f9d68e4777fdf4c146fe98f6c25c8097853724a064736f6c63430008140033",
  "bytecodeSha1": "98c8e7d882fc1fafd80fb9aa7dd9c37ddaea174b",
  "compiler": {
    "evm_version": "istanbul",
    "optimizer": {
      "enabled": true,
      "runs": 200
    },
    "version": "0.8.20+commit.a1b79de6"
  },
  "contractName": "Island",
  "language": "Solidity",
  "natspec": {
    "kind": "dev",
    "methods": {},
    "version": 1
  },
  "opcodes": "PUSH1 0x80 PUSH1 0x40 MSTORE CALLVALUE DUP1 ISZERO PUSH2 0x10 JUMPI PUSH1 0x0 DUP1 REVERT JUMPDEST POP PUSH1 0x4 CALLDATASIZE LT PUSH2 0x57 JUMPI PUSH1 0x0 CALLDATALOAD PUSH1 0xE0 SHR DUP1 PUSH4 0x1755FF21 EQ PUSH2 0x5C JUMPI DUP1 PUSH4 0x54C0A361 EQ PUSH2 0x8C JUMPI DUP1 PUSH4 0xC0681070 EQ PUSH2 0x9F JUMPI DUP1 PUSH4 0xCBA88872 EQ PUSH2 0xA9 JUMPI DUP1 PUSH4 0xE7141A7C EQ PUSH2 0xC0 JUMPI JUMPDEST PUSH1 0x0 DUP1 REVERT JUMPDEST PUSH1 0x2 SLOAD PUSH2 0x6F SWAP1 PUSH1 0x1 PUSH1 0x1 PUSH1 0xA0 SHL SUB AND DUP2 JUMP JUMPDEST PUSH1 0x40 MLOAD PUSH1 0x1 PUSH1 0x1 PUSH1 0xA0 SHL SUB SWAP1 SWAP2 AND DUP2 MSTORE PUSH1 0x20 ADD JUMPDEST PUSH1 0x40 MLOAD DUP1 SWAP2 SUB SWAP1 RETURN JUMPDEST PUSH1 0x1 SLOAD PUSH2 0x6F SWAP1 PUSH1 0x1 PUSH1 0x1 PUSH1 0xA0 SHL SUB AND DUP2 JUMP JUMPDEST PUSH2 0xA7 PUSH2 0xC8 JUMP JUMPDEST STOP JUMPDEST PUSH2 0xB2 PUSH1 0x0 SLOAD DUP2 JUMP JUMPDEST PUSH1 0x40 MLOAD SWAP1 DUP2 MSTORE PUSH1 0x20 ADD PUSH2 0x83 JUMP JUMPDEST PUSH2 0xA7 PUSH2 0x102 JUMP JUMPDEST PUSH2 0xD4 TIMESTAMP PUSH2 0xFD20 PUSH2 0x28C JUMP JUMPDEST PUSH1 0x0 SWAP1 DUP2 SSTORE PUSH1 0x40 MLOAD PUSH32 0x759084964C2A478C4E74F349F18A2A9D1DC07997E470712FD7A38EE0F4A28255 SWAP2 SWAP1 LOG1 JUMP JUMPDEST PUSH1 0x0 SLOAD TIMESTAMP GT PUSH2 0x131 JUMPI PUSH1 0x40 MLOAD PUSH3 0x461BCD PUSH1 0xE5 SHL DUP2 MSTORE PUSH1 0x20 PUSH1 0x4 DUP3 ADD MSTORE PUSH1 0x0 PUSH1 0x24 DUP3 ADD MSTORE PUSH1 0x44 ADD PUSH1 0x40 MLOAD DUP1 SWAP2 SUB SWAP1 REVERT JUMPDEST PUSH2 0x13D TIMESTAMP PUSH2 0xFD20 PUSH2 0x28C JUMP JUMPDEST PUSH1 0x0 SWAP1 DUP2 SSTORE PUSH1 0x1 SLOAD PUSH1 0x40 MLOAD PUSH4 0x70A08231 PUSH1 0xE0 SHL DUP2 MSTORE ADDRESS PUSH1 0x4 DUP3 ADD MSTORE PUSH1 0x64 SWAP2 PUSH1 0x1 PUSH1 0x1 PUSH1 0xA0 SHL SUB AND SWAP1 PUSH4 0x70A08231 SWAP1 PUSH1 0x24 ADD PUSH1 0x20 PUSH1 0x40 MLOAD DUP1 DUP4 SUB DUP2 DUP7 GAS STATICCALL ISZERO DUP1 ISZERO PUSH2 0x18B JUMPI RETURNDATASIZE PUSH1 0x0 DUP1 RETURNDATACOPY RETURNDATASIZE PUSH1 0x0 REVERT JUMPDEST POP POP POP POP PUSH1 0x40 MLOAD RETURNDATASIZE PUSH1 0x1F NOT PUSH1 0x1F DUP3 ADD AND DUP3 ADD DUP1 PUSH1 0x40 MSTORE POP DUP2 ADD SWAP1 PUSH2 0x1AF SWAP2 SWAP1 PUSH2 0x2A5 JUMP JUMPDEST PUSH2 0x1BA SWAP1 PUSH1 0xA PUSH2 0x2BE JUMP JUMPDEST PUSH2 0x1C4 SWAP2 SWAP1 PUSH2 0x2D5 JUMP JUMPDEST PUSH1 0x1 SLOAD PUSH1 0x2 SLOAD PUSH1 0x40 MLOAD PUSH4 0xA9059CBB PUSH1 0xE0 SHL DUP2 MSTORE PUSH1 0x1 PUSH1 0x1 PUSH1 0xA0 SHL SUB SWAP2 DUP3 AND PUSH1 0x4 DUP3 ADD MSTORE PUSH1 0x24 DUP2 ADD DUP5 SWAP1 MSTORE SWAP3 SWAP4 POP AND SWAP1 PUSH4 0xA9059CBB SWAP1 PUSH1 0x44 ADD PUSH1 0x20 PUSH1 0x40 MLOAD DUP1 DUP4 SUB DUP2 PUSH1 0x0 DUP8 GAS CALL ISZERO DUP1 ISZERO PUSH2 0x21B JUMPI RETURNDATASIZE PUSH1 0x0 DUP1 RETURNDATACOPY RETURNDATASIZE PUSH1 0x0 REVERT JUMPDEST POP POP POP POP PUSH1 0x40 MLOAD RETURNDATASIZE PUSH1 0x1F NOT PUSH1 0x1F DUP3 ADD AND DUP3 ADD DUP1 PUSH1 0x40 MSTORE POP DUP2 ADD SWAP1 PUSH2 0x23F SWAP2 SWAP1 PUSH2 0x2F7 JUMP JUMPDEST POP PUSH1 0x40 MLOAD DUP2 DUP2 MSTORE PUSH32 0x14BF3842551EAEA98908AB1838CB6BB6A155156DE3B03B4715964DA357C4A9F4 SWAP1 PUSH1 0x20 ADD PUSH1 0x40 MLOAD DUP1 SWAP2 SUB SWAP1 LOG1 POP JUMP JUMPDEST PUSH4 0x4E487B71 PUSH1 0xE0 SHL PUSH1 0x0 MSTORE PUSH1 0x11 PUSH1 0x4 MSTORE PUSH1 0x24 PUSH1 0x0 REVERT JUMPDEST DUP1 DUP3 ADD DUP1 DUP3 GT ISZERO PUSH2 0x29F JUMPI PUSH2 0x29F PUSH2 0x276 JUMP JUMPDEST SWAP3 SWAP2 POP POP JUMP JUMPDEST PUSH1 0x0 PUSH1 0x20 DUP3 DUP5 SUB SLT ISZERO PUSH2 0x2B7 JUMPI PUSH1 0x0 DUP1 REVERT JUMPDEST POP MLOAD SWAP2 SWAP1 POP JUMP JUMPDEST DUP1 DUP3 MUL DUP2 ISZERO DUP3 DUP3 DIV DUP5 EQ OR PUSH2 0x29F JUMPI PUSH2 0x29F PUSH2 0x276 JUMP JUMPDEST PUSH1 0x0 DUP3 PUSH2 0x2F2 JUMPI PUSH4 0x4E487B71 PUSH1 0xE0 SHL PUSH1 0x0 MSTORE PUSH1 0x12 PUSH1 0x4 MSTORE PUSH1 0x24 PUSH1 0x0 REVERT JUMPDEST POP DIV SWAP1 JUMP JUMPDEST PUSH1 0x0 PUSH1 0x20 DUP3 DUP5 SUB SLT ISZERO PUSH2 0x309 JUMPI PUSH1 0x0 DUP1 REVERT JUMPDEST DUP2 MLOAD DUP1 ISZERO ISZERO DUP2 EQ PUSH2 0x319 JUMPI PUSH1 0x0 DUP1 REVERT JUMPDEST SWAP4 SWAP3 POP POP POP JUMP INVALID LOG2 PUSH5 0x6970667358 0x22 SLT KECCAK256 0xEC 0xDC 0x2B PUSH16 0xFD9FCA65B69C7E38F9D68E4777FDF4C1 CHAINID INVALID SWAP9 0xF6 0xC2 0x5C DUP1 SWAP8 DUP6 CALLDATACOPY 0x24 LOG0 PUSH5 0x736F6C6343 STOP ADDMOD EQ STOP CALLER ",
  "sha1": "65459ca92b59796cce25df70bc3afb614a1ac817",
  "source": "// SPDX-License-Identifier: None\npragma solidity 0.8.20;\nimport \"../interfaces/IERC20.sol\";\n\ncontract Island {\n    uint256 public countdown;\n    address public lostAddress;\n    address public poolAddress;\n\n    event SystemFailure(uint256 amountToSend);\n    event CodeEntered();\n\n    constructor(address _lostAddress, address _poolAddress) {\n        lostAddress = _lostAddress;\n        poolAddress = _poolAddress;\n        countdown = block.timestamp;\n    }\n\n    function systemFailure() external {\n        require(block.timestamp > countdown, \"\");\n\n        countdown = block.timestamp + 18 hours;\n        uint256 amountToSend = (IERC20(lostAddress).balanceOf(address(this)) * 10) / 100;\n        IERC20(lostAddress).transfer(poolAddress, amountToSend);\n        emit SystemFailure(amountToSend);\n    }\n\n    function enterTheCode() external {\n        countdown = block.timestamp + 18 hours;\n        emit CodeEntered();\n    }\n}\n",
  "sourcePath": "contracts/Island.sol",
  "type": "contract"
}