{
  "abi": [
    {
      "inputs": [],
      "stateMutability": "nonpayable",
      "type": "constructor"
    },
    {
      "anonymous": false,
      "inputs": [
        {
          "indexed": false,
          "internalType": "address",
          "name": "user",
          "type": "address"
        },
        {
          "indexed": false,
          "internalType": "string",
          "name": "teamName",
          "type": "string"
        }
      ],
      "name": "AttackUpgraded",
      "type": "event"
    },
    {
      "anonymous": false,
      "inputs": [
        {
          "indexed": false,
          "internalType": "address",
          "name": "user",
          "type": "address"
        },
        {
          "indexed": false,
          "internalType": "string",
          "name": "shooter",
          "type": "string"
        },
        {
          "indexed": false,
          "internalType": "string",
          "name": "target",
          "type": "string"
        },
        {
          "indexed": false,
          "internalType": "bool",
          "name": "hit",
          "type": "bool"
        }
      ],
      "name": "CannonFired",
      "type": "event"
    },
    {
      "anonymous": false,
      "inputs": [
        {
          "indexed": false,
          "internalType": "address",
          "name": "user",
          "type": "address"
        },
        {
          "indexed": false,
          "internalType": "string",
          "name": "teamName",
          "type": "string"
        }
      ],
      "name": "DefenseUpgraded",
      "type": "event"
    },
    {
      "anonymous": false,
      "inputs": [
        {
          "indexed": false,
          "internalType": "uint256",
          "name": "team0",
          "type": "uint256"
        },
        {
          "indexed": false,
          "internalType": "uint256",
          "name": "team1",
          "type": "uint256"
        },
        {
          "indexed": false,
          "internalType": "uint256",
          "name": "team2",
          "type": "uint256"
        },
        {
          "indexed": false,
          "internalType": "uint256",
          "name": "team3",
          "type": "uint256"
        }
      ],
      "name": "DistanceUpdated",
      "type": "event"
    },
    {
      "anonymous": false,
      "inputs": [
        {
          "indexed": false,
          "internalType": "address",
          "name": "user",
          "type": "address"
        },
        {
          "indexed": false,
          "internalType": "string",
          "name": "teamName",
          "type": "string"
        }
      ],
      "name": "EngineUpgraded",
      "type": "event"
    },
    {
      "anonymous": false,
      "inputs": [
        {
          "indexed": false,
          "internalType": "string",
          "name": "teamName",
          "type": "string"
        },
        {
          "indexed": false,
          "internalType": "address",
          "name": "user",
          "type": "address"
        }
      ],
      "name": "FirstMate",
      "type": "event"
    },
    {
      "anonymous": false,
      "inputs": [
        {
          "indexed": false,
          "internalType": "address",
          "name": "user",
          "type": "address"
        },
        {
          "indexed": false,
          "internalType": "string",
          "name": "teamName",
          "type": "string"
        }
      ],
      "name": "InJail",
      "type": "event"
    },
    {
      "anonymous": false,
      "inputs": [
        {
          "indexed": false,
          "internalType": "address",
          "name": "user",
          "type": "address"
        },
        {
          "indexed": false,
          "internalType": "string",
          "name": "teamName",
          "type": "string"
        },
        {
          "indexed": false,
          "internalType": "uint256",
          "name": "result",
          "type": "uint256"
        }
      ],
      "name": "MysteryBox",
      "type": "event"
    },
    {
      "anonymous": false,
      "inputs": [
        {
          "indexed": false,
          "internalType": "address",
          "name": "user",
          "type": "address"
        },
        {
          "indexed": false,
          "internalType": "string",
          "name": "teamName",
          "type": "string"
        }
      ],
      "name": "OutofJail",
      "type": "event"
    },
    {
      "anonymous": false,
      "inputs": [
        {
          "indexed": false,
          "internalType": "address",
          "name": "user",
          "type": "address"
        },
        {
          "indexed": false,
          "internalType": "string",
          "name": "teamName",
          "type": "string"
        },
        {
          "indexed": false,
          "internalType": "uint256",
          "name": "money",
          "type": "uint256"
        }
      ],
      "name": "TeamJoin",
      "type": "event"
    },
    {
      "inputs": [],
      "name": "Qi",
      "outputs": [
        {
          "internalType": "contract IERC20",
          "name": "",
          "type": "address"
        }
      ],
      "stateMutability": "view",
      "type": "function"
    },
    {
      "inputs": [],
      "name": "a",
      "outputs": [
        {
          "internalType": "uint256",
          "name": "",
          "type": "uint256"
        }
      ],
      "stateMutability": "view",
      "type": "function"
    },
    {
      "inputs": [],
      "name": "b",
      "outputs": [
        {
          "internalType": "uint256",
          "name": "",
          "type": "uint256"
        }
      ],
      "stateMutability": "view",
      "type": "function"
    },
    {
      "inputs": [],
      "name": "buyMysteryBox",
      "outputs": [],
      "stateMutability": "nonpayable",
      "type": "function"
    },
    {
      "inputs": [],
      "name": "c",
      "outputs": [
        {
          "internalType": "uint256",
          "name": "",
          "type": "uint256"
        }
      ],
      "stateMutability": "view",
      "type": "function"
    },
    {
      "inputs": [
        {
          "internalType": "uint256",
          "name": "",
          "type": "uint256"
        }
      ],
      "name": "captain",
      "outputs": [
        {
          "internalType": "address",
          "name": "",
          "type": "address"
        }
      ],
      "stateMutability": "view",
      "type": "function"
    },
    {
      "inputs": [
        {
          "internalType": "uint256",
          "name": "_teamId",
          "type": "uint256"
        },
        {
          "internalType": "uint256",
          "name": "_money",
          "type": "uint256"
        },
        {
          "internalType": "uint256",
          "name": "_speed",
          "type": "uint256"
        },
        {
          "internalType": "uint256",
          "name": "_distance",
          "type": "uint256"
        },
        {
          "internalType": "uint256",
          "name": "_defense",
          "type": "uint256"
        },
        {
          "internalType": "uint256",
          "name": "_attack",
          "type": "uint256"
        }
      ],
      "name": "changeSettings",
      "outputs": [],
      "stateMutability": "nonpayable",
      "type": "function"
    },
    {
      "inputs": [],
      "name": "eQi",
      "outputs": [
        {
          "internalType": "contract IERC20",
          "name": "",
          "type": "address"
        }
      ],
      "stateMutability": "view",
      "type": "function"
    },
    {
      "inputs": [],
      "name": "finishLine",
      "outputs": [
        {
          "internalType": "uint256",
          "name": "",
          "type": "uint256"
        }
      ],
      "stateMutability": "view",
      "type": "function"
    },
    {
      "inputs": [
        {
          "internalType": "uint256",
          "name": "targetTeam",
          "type": "uint256"
        }
      ],
      "name": "fireCannon",
      "outputs": [],
      "stateMutability": "nonpayable",
      "type": "function"
    },
    {
      "inputs": [
        {
          "internalType": "uint256",
          "name": "",
          "type": "uint256"
        }
      ],
      "name": "firstMate",
      "outputs": [
        {
          "internalType": "address",
          "name": "",
          "type": "address"
        }
      ],
      "stateMutability": "view",
      "type": "function"
    },
    {
      "inputs": [
        {
          "internalType": "address",
          "name": "",
          "type": "address"
        }
      ],
      "name": "jail",
      "outputs": [
        {
          "internalType": "bool",
          "name": "",
          "type": "bool"
        }
      ],
      "stateMutability": "view",
      "type": "function"
    },
    {
      "inputs": [
        {
          "internalType": "uint256",
          "name": "teamId",
          "type": "uint256"
        }
      ],
      "name": "join",
      "outputs": [],
      "stateMutability": "nonpayable",
      "type": "function"
    },
    {
      "inputs": [
        {
          "internalType": "uint256",
          "name": "teamId",
          "type": "uint256"
        },
        {
          "internalType": "string",
          "name": "teamName",
          "type": "string"
        }
      ],
      "name": "nameTeam",
      "outputs": [],
      "stateMutability": "nonpayable",
      "type": "function"
    },
    {
      "inputs": [],
      "name": "owner",
      "outputs": [
        {
          "internalType": "address",
          "name": "",
          "type": "address"
        }
      ],
      "stateMutability": "view",
      "type": "function"
    },
    {
      "inputs": [
        {
          "internalType": "uint256",
          "name": "teamId",
          "type": "uint256"
        },
        {
          "internalType": "address",
          "name": "user",
          "type": "address"
        }
      ],
      "name": "pickCaptain",
      "outputs": [],
      "stateMutability": "nonpayable",
      "type": "function"
    },
    {
      "inputs": [
        {
          "internalType": "address",
          "name": "user",
          "type": "address"
        }
      ],
      "name": "pickFirstMate",
      "outputs": [],
      "stateMutability": "nonpayable",
      "type": "function"
    },
    {
      "inputs": [
        {
          "internalType": "address",
          "name": "user",
          "type": "address"
        }
      ],
      "name": "putInJail",
      "outputs": [],
      "stateMutability": "nonpayable",
      "type": "function"
    },
    {
      "inputs": [],
      "name": "startRace",
      "outputs": [],
      "stateMutability": "nonpayable",
      "type": "function"
    },
    {
      "inputs": [
        {
          "internalType": "address",
          "name": "user",
          "type": "address"
        }
      ],
      "name": "takeOutOfJail",
      "outputs": [],
      "stateMutability": "nonpayable",
      "type": "function"
    },
    {
      "inputs": [
        {
          "internalType": "uint256",
          "name": "",
          "type": "uint256"
        }
      ],
      "name": "teams",
      "outputs": [
        {
          "internalType": "uint256",
          "name": "totalMoney",
          "type": "uint256"
        },
        {
          "internalType": "string",
          "name": "teamName",
          "type": "string"
        },
        {
          "internalType": "uint256",
          "name": "speed",
          "type": "uint256"
        },
        {
          "internalType": "uint256",
          "name": "distance",
          "type": "uint256"
        },
        {
          "internalType": "uint256",
          "name": "defense",
          "type": "uint256"
        },
        {
          "internalType": "uint256",
          "name": "attack",
          "type": "uint256"
        }
      ],
      "stateMutability": "view",
      "type": "function"
    },
    {
      "inputs": [],
      "name": "updateDistance",
      "outputs": [],
      "stateMutability": "nonpayable",
      "type": "function"
    },
    {
      "inputs": [],
      "name": "upgradeAttack",
      "outputs": [],
      "stateMutability": "nonpayable",
      "type": "function"
    },
    {
      "inputs": [],
      "name": "upgradeDefense",
      "outputs": [],
      "stateMutability": "nonpayable",
      "type": "function"
    },
    {
      "inputs": [],
      "name": "upgradeEngine",
      "outputs": [],
      "stateMutability": "nonpayable",
      "type": "function"
    },
    {
      "inputs": [
        {
          "internalType": "address",
          "name": "",
          "type": "address"
        }
      ],
      "name": "userScore",
      "outputs": [
        {
          "internalType": "uint256",
          "name": "money",
          "type": "uint256"
        },
        {
          "internalType": "uint256",
          "name": "actions",
          "type": "uint256"
        }
      ],
      "stateMutability": "view",
      "type": "function"
    },
    {
      "inputs": [
        {
          "internalType": "address",
          "name": "",
          "type": "address"
        }
      ],
      "name": "userToTeam",
      "outputs": [
        {
          "internalType": "uint256",
          "name": "",
          "type": "uint256"
        }
      ],
      "stateMutability": "view",
      "type": "function"
    },
    {
      "inputs": [],
      "name": "winner",
      "outputs": [
        {
          "internalType": "string",
          "name": "",
          "type": "string"
        }
      ],
      "stateMutability": "view",
      "type": "function"
    }
  ],
  "bytecode": "60a0604052600060809081526001906200001a908262000437565b50620f42406002556003805474580a84c73811e1839f75d86d75d88cca0c241ff4006001600160a81b0319909116179055600480546001600160a01b03191673880decade22ad9c58a8a4202ef143c4f305100b31790553480156200007e57600080fd5b50600080546001600160a01b031916331781556040805160c08101825282815281518083018352600581526407465616d360dc1b6020828101919091528201908152918101839052606081018390526080810183905260a081018390526009805460018101825593528051600690930260008051602062002c7c8339815191528101938455915190929160008051602062002c5c833981519152019062000126908262000437565b5060408281015160028301556060808401516003840155608080850151600485015560a094850151600594850155825160c081018452600080825284518086018652958652647465616d3160d81b602087810191909152820195865293810184905291820183905281018290529283018190526009805460018101825591528251600690910260008051602062002c7c83398151915281019182559151909160008051602062002c5c8339815191520190620001e3908262000437565b5060408281015160028301556060808401516003840155608080850151600485015560a094850151600594850155825160c081018452600080825284518086018652958652643a32b0b69960d91b602087810191909152820195865293810184905291820183905281018290529283018190526009805460018101825591528251600690910260008051602062002c7c83398151915281019182559151909160008051602062002c5c8339815191520190620002a0908262000437565b5060408281015160028301556060808401516003840155608080850151600485015560a094850151600594850155825160c081018452600080825284518086018652958652647465616d3360d81b602087810191909152820195865293810184905291820183905281018290529283018190526009805460018101825591528251600690910260008051602062002c7c83398151915281019182559151909160008051602062002c5c83398151915201906200035d908262000437565b5060408201516002820155606082015160038201556080820151600482015560a0909101516005909101554260085562000503565b634e487b7160e01b600052604160045260246000fd5b600181811c90821680620003bd57607f821691505b602082108103620003de57634e487b7160e01b600052602260045260246000fd5b50919050565b601f8211156200043257600081815260208120601f850160051c810160208610156200040d5750805b601f850160051c820191505b818110156200042e5782815560010162000419565b5050505b505050565b81516001600160401b0381111562000453576200045362000392565b6200046b81620004648454620003a8565b84620003e4565b602080601f831160018114620004a357600084156200048a5750858301515b600019600386901b1c1916600185901b1785556200042e565b600085815260208120601f198616915b82811015620004d457888601518255948401946001909101908401620004b3565b5085821015620004f35787850151600019600388901b60f8161c191681555b5050505050600190811b01905550565b61274980620005136000396000f3fe608060405234801561001057600080fd5b50600436106101c45760003560e01c80638362cecf116100f9578063c3da42b811610097578063ddbceda711610071578063ddbceda7146103ed578063dfbf53ae14610400578063e075be2114610415578063f82008661461042857600080fd5b8063c3da42b8146103c8578063cc3590bb146103d1578063d60e831c146103da57600080fd5b80639bcbea52116100d35780639bcbea5214610367578063a99bc0821461039a578063adf7d47a146103a2578063c01d373f146103b557600080fd5b80638362cecf1461033457806384d0643e1461033c5780638da5cb5b1461035457600080fd5b806348e11e2d1161016657806358c5a1e41161014057806358c5a1e4146102f15780636ad7ed47146103115780636b3ee32a1461031957806381ec0f0f1461032157600080fd5b806348e11e2d146102b75780634df7e3d0146102e057806357fffd4a146102e957600080fd5b80631c7e9ed0116101a25780631c7e9ed01461023b57806338ee821b146102435780633ed2b77a1461027f5780634079761e146102a457600080fd5b8063049878f3146101c95780630dbe671f146101de5780631b586a3b146101fa575b600080fd5b6101dc6101d7366004611ff6565b61043b565b005b6101e760055481565b6040519081526020015b60405180910390f35b610223610208366004611ff6565b600d602052600090815260409020546001600160a01b031681565b6040516001600160a01b0390911681526020016101f1565b6101dc6106b5565b61026a61025136600461202b565b600c602052600090815260409020805460019091015482565b604080519283526020830191909152016101f1565b61029261028d366004611ff6565b610a46565b6040516101f19695949392919061208c565b6101dc6102b236600461202b565b610b16565b6102236102c5366004611ff6565b600e602052600090815260409020546001600160a01b031681565b6101e760065481565b6101dc610c99565b6101e76102ff36600461202b565b600a6020526000908152604090205481565b6101dc610ebb565b6101dc610fc7565b6101dc61032f3660046120ca565b6111e6565b6101dc611282565b6003546102239061010090046001600160a01b031681565b600054610223906001600160a01b031681565b61038a61037536600461202b565b600b6020526000908152604090205460ff1681565b60405190151581526020016101f1565b6101dc61148d565b6101dc6103b0366004611ff6565b611698565b6101dc6103c336600461202b565b611a8f565b6101e760075481565b6101e760025481565b6101dc6103e836600461210c565b611be6565b6101dc6103fb36600461202b565b611c81565b610408611df3565b6040516101f191906121c7565b6101dc6104233660046121da565b611e81565b600454610223906001600160a01b031681565b60095481106104845760405162461bcd60e51b815260206004820152601060248201526f24b73b30b634b2103a32b0b69024a21760811b60448201526064015b60405180910390fd5b600480546040516370a0823160e01b81523392810192909252600091670de0b6b3a7640000916001600160a01b0316906370a0823190602401602060405180830381865afa1580156104da573d6000803e3d6000fd5b505050506040513d601f19601f820116820180604052508101906104fe919061221d565b6105089190612262565b6003546040516370a0823160e01b8152336004820152670de0b6b3a76400009161010090046001600160a01b0316906370a0823190602401602060405180830381865afa15801561055d573d6000803e3d6000fd5b505050506040513d601f19601f82011682018060405250810190610581919061221d565b61058b9190612262565b6105959190612276565b905060648110156105f85760405162461bcd60e51b815260206004820152602760248201527f5265717569726573206174206c6561737420313030205169202b2065516920746044820152663790383630bc9760c91b606482015260840161047b565b806009838154811061060c5761060c612289565b9060005260206000209060060201600001600082825461062c9190612276565b9091555050336000818152600a60209081526040808320869055600c9091529020829055600980547f421f2322493a06d9f34e676ffa1c281ffb19c3e128ae5f8eee60ea3c83cdd8f69291908590811061068857610688612289565b9060005260206000209060060201600101836040516106a993929190612356565b60405180910390a15050565b60035460ff166106d75760405162461bcd60e51b815260040161047b9061238a565b336000908152600b602052604090205460ff16156107075760405162461bcd60e51b815260040161047b906123c1565b336000908152600a602052604090205460098054600591908390811061072f5761072f612289565b906000526020600020906006020160000154101561079e5760405162461bcd60e51b815260206004820152602660248201527f4e6f7420656e6f756768206d6f6e657920746f206275792061206d79737465726044820152653c903137bc1760d11b606482015260840161047b565b6005600982815481106107b3576107b3612289565b906000526020600020906006020160000160008282546107d391906123f0565b925050819055506000806064423360405160200161080d92919091825260601b6bffffffffffffffffffffffff1916602082015260340190565b6040516020818303038152906040528051906020012060001c6108309190612403565b9050600581106109db5760068110156108875760c86009848154811061085857610858612289565b906000526020600020906006020160000160008282546108789190612276565b90915550600192506109db9050565b600881101561094c576002600984815481106108a5576108a5612289565b906000526020600020906006020160020160008282546108c59190612276565b925050819055506002600984815481106108e1576108e1612289565b906000526020600020906006020160040160008282546109019190612276565b9250508190555060026009848154811061091d5761091d612289565b9060005260206000209060060201600501600082825461093d9190612276565b90915550600292506109db9050565b60005b6009548110156109d55761099c6064610996605a6009858154811061097657610976612289565b906000526020600020906006020160030154611fbd90919063ffffffff16565b90611fd2565b600982815481106109af576109af612289565b6000918252602090912060036006909202010155806109cd81612417565b91505061094f565b50600391505b6109e3610fc7565b7f963f55b912749794fc60e09989f975d99e32135ebdc74c70ce5ca23c86828a773360098581548110610a1857610a18612289565b906000526020600020906006020160010184604051610a3993929190612356565b60405180910390a1505050565b60098181548110610a5657600080fd5b60009182526020909120600690910201805460018201805491935090610a7b9061229f565b80601f0160208091040260200160405190810160405280929190818152602001828054610aa79061229f565b8015610af45780601f10610ac957610100808354040283529160200191610af4565b820191906000526020600020905b815481529060010190602001808311610ad757829003601f168201915b5050505050908060020154908060030154908060040154908060050154905086565b336000818152600a60209081526040808320548352600d9091529020546001600160a01b03161480610b6b5750336000818152600a60209081526040808320548352600e9091529020546001600160a01b0316145b610b875760405162461bcd60e51b815260040161047b90612430565b6001600160a01b0381166000908152600a60205260408082205433835291205414610c0d5760405162461bcd60e51b815260206004820152603060248201527f43616e6e6f742074616b6520736f6d656f6e65206f6e20616e6f74686572207460448201526f32b0b69037baba1037b3103530b4b61760811b606482015260840161047b565b6001600160a01b0381166000908152600b60209081526040808320805460ff19169055600a909152902054600980547f7c892458d566e30087de155713d0b373ee96b70e37b90d1f057abab145b40666928492918110610c6f57610c6f612289565b9060005260206000209060060201600101604051610c8e92919061247b565b60405180910390a150565b60035460ff16610cbb5760405162461bcd60e51b815260040161047b9061238a565b336000908152600b602052604090205460ff1615610ceb5760405162461bcd60e51b815260040161047b906123c1565b336000908152600a6020526040902054600980546001919083908110610d1357610d13612289565b9060005260206000209060060201600001541015610d7f5760405162461bcd60e51b815260206004820152602360248201527f4e6f7420656e6f756768206d6f6e657920746f207570677261646520656e676960448201526237329760e91b606482015260840161047b565b610dae600160098381548110610d9757610d97612289565b600091825260209091206006909102015490611fde565b60098281548110610dc157610dc1612289565b906000526020600020906006020160000181905550610e0e600160098381548110610dee57610dee612289565b906000526020600020906006020160020154611fea90919063ffffffff16565b60098281548110610e2157610e21612289565b6000918252602080832060026006909302019190910192909255338152600c90915260409020600190810154610e5691611fea565b336000908152600c602052604081206001018054909190610e78908490612276565b90915550610e869050610fc7565b7ffdbb5b39cf560cd0a57d2342b964c7d29f734f63b301d6389a860883fccdf6973360098381548110610c6f57610c6f612289565b6000546001600160a01b03163314610f205760405162461bcd60e51b815260206004820152602260248201527f4f6e6c7920746865206f776e65722063616e2073746172742074686520726163604482015261329760f11b606482015260840161047b565b60035460ff1615610f6b5760405162461bcd60e51b815260206004820152601560248201527423b0b6b29030b63932b0b23c9039ba30b93a32b21760591b604482015260640161047b565b6003805460ff1916600117905560005b600954811015610fc057600160098281548110610f9a57610f9a612289565b600091825260209091206002600690920201015580610fb881612417565b915050610f7b565b5042600855565b60035460ff16610fe95760405162461bcd60e51b815260040161047b9061238a565b60005b6009548110156110ff5760006008544261100691906123f0565b9050806009838154811061101c5761101c612289565b90600052602060002090600602016002015461103891906124a7565b6009838154811061104b5761104b612289565b9060005260206000209060060201600301600082825461106b9190612276565b9091555050600254600980548490811061108757611087612289565b906000526020600020906006020160030154101580156110b35750600180546110af9061229f565b1590505b156110ec57600982815481106110cb576110cb612289565b9060005260206000209060060201600101600190816110ea9190612504565b505b50806110f781612417565b915050610fec565b50426008819055507f24ede07b86b6e8aeea97ce363c9b62c5a79ed1b54e95d3b017d17f66c75bc1a3600960008154811061113c5761113c612289565b906000526020600020906006020160030154600960018154811061116257611162612289565b906000526020600020906006020160030154600960028154811061118857611188612289565b90600052602060002090600602016003015460096003815481106111ae576111ae612289565b6000918252602091829020600360069092020101546040805195865291850193909352830152606082015260800160405180910390a1565b6000546001600160a01b0316331461124a5760405162461bcd60e51b815260206004820152602160248201527f4f6e6c7920746865206f776e65722063616e207069636b206361707461696e736044820152601760f91b606482015260840161047b565b6001600160a01b03166000818152600a60209081526040808320548352600d909152902080546001600160a01b031916909117905550565b60035460ff166112a45760405162461bcd60e51b815260040161047b9061238a565b336000908152600b602052604090205460ff16156112d45760405162461bcd60e51b815260040161047b906123c1565b336000908152600a60205260409020546009805460019190839081106112fc576112fc612289565b90600052602060002090600602016000015410156113685760405162461bcd60e51b815260206004820152602360248201527f4e6f7420656e6f756768206d6f6e657920746f2075706772616465206174746160448201526231b59760e91b606482015260840161047b565b611380600160098381548110610d9757610d97612289565b6009828154811061139357611393612289565b9060005260206000209060060201600001819055506113e06001600983815481106113c0576113c0612289565b906000526020600020906006020160050154611fea90919063ffffffff16565b600982815481106113f3576113f3612289565b6000918252602080832060056006909302019190910192909255338152600c9091526040902060019081015461142891611fea565b336000908152600c60205260408120600101805490919061144a908490612276565b909155506114589050610fc7565b7f7c0725a32355c8362aaa495b37bdb3b9cfcc9fc46dbf2b0c85e7ccce4669e6b83360098381548110610c6f57610c6f612289565b60035460ff166114af5760405162461bcd60e51b815260040161047b9061238a565b336000908152600b602052604090205460ff16156114df5760405162461bcd60e51b815260040161047b906123c1565b336000908152600a602052604090205460098054600191908390811061150757611507612289565b90600052602060002090600602016000015410156115735760405162461bcd60e51b8152602060048201526024808201527f4e6f7420656e6f756768206d6f6e657920746f207570677261646520646566656044820152633739b29760e11b606482015260840161047b565b61158b600160098381548110610d9757610d97612289565b6009828154811061159e5761159e612289565b9060005260206000209060060201600001819055506115eb6001600983815481106115cb576115cb612289565b906000526020600020906006020160040154611fea90919063ffffffff16565b600982815481106115fe576115fe612289565b6000918252602080832060046006909302019190910192909255338152600c9091526040902060019081015461163391611fea565b336000908152600c602052604081206001018054909190611655908490612276565b909155506116639050610fc7565b7f7ccb3dd8c961e6d97590c65c2cfb6296766d9b731ff7b6f73e59b0beb50ee2d43360098381548110610c6f57610c6f612289565b60035460ff166116ba5760405162461bcd60e51b815260040161047b9061238a565b336000908152600b602052604090205460ff16156116ea5760405162461bcd60e51b815260040161047b906123c1565b60095481106117325760405162461bcd60e51b815260206004820152601460248201527324b73b30b634b2103a30b933b2ba103a32b0b69760611b604482015260640161047b565b336000908152600a602052604090205481036117905760405162461bcd60e51b815260206004820152601860248201527f43616e6e6f742066697265206174206f776e207465616d2e0000000000000000604482015260640161047b565b336000908152600a60205260408120546009805491929160219190859081106117bb576117bb612289565b906000526020600020906006020160040154600984815481106117e0576117e0612289565b906000526020600020906006020160050154826117fd9190612276565b101561180b5750600161186e565b6009848154811061181e5761181e612289565b9060005260206000209060060201600401546009848154811061184357611843612289565b90600052602060002090600602016005015460216118619190612276565b61186b91906123f0565b90505b606381111561187b575060635b6000606442336040516020016118ad92919091825260601b6bffffffffffffffffffffffff1916602082015260340190565b6040516020818303038152906040528051906020012060001c6118d09190612403565b60058190559050818110156119b7576118fc606461099660626009898154811061097657610976612289565b6009868154811061190f5761190f612289565b90600052602060002090600602016003018190555060036009868154811061193957611939612289565b90600052602060002090600602016002015411156119b25761198960026009878154811061196957611969612289565b906000526020600020906006020160020154611fde90919063ffffffff16565b6009868154811061199c5761199c612289565b9060005260206000209060060201600201819055505b600192505b336000908152600c602052604090206001908101546119d591611fea565b336000908152600c6020526040812060010180549091906119f7908490612276565b90915550611a059050610fc7565b7f1070e59b5639f0799bd97e9aa418e32193db53c11a30e2badab45d1ac1f1e4e43360098681548110611a3a57611a3a612289565b906000526020600020906006020160010160098881548110611a5e57611a5e612289565b906000526020600020906006020160010186604051611a8094939291906125e5565b60405180910390a15050505050565b336000818152600a60209081526040808320548352600d9091529020546001600160a01b03161480611ae45750336000818152600a60209081526040808320548352600e9091529020546001600160a01b0316145b611b005760405162461bcd60e51b815260040161047b90612430565b6001600160a01b0381166000908152600a60205260408082205433835291205414611b815760405162461bcd60e51b815260206004820152602b60248201527f43616e6e6f742070757420736f6d656f6e65206f6e20616e6f7468657220746560448201526a30b69034b7103530b4b61760a91b606482015260840161047b565b6001600160a01b0381166000908152600b60209081526040808320805460ff19166001179055600a909152902054600980547f3a20c27241f03f182fdea2523631cb8dbe89e8c84a05cdb19f6f804d58f8f3c7928492918110610c6f57610c6f612289565b6000546001600160a01b03163314611c4b5760405162461bcd60e51b815260206004820152602260248201527f4f6e6c7920746865206f776e65722063616e206e616d6520746865207465616d604482015261399760f11b606482015260840161047b565b8060098381548110611c5f57611c5f612289565b90600052602060002090600602016001019081611c7c919061262f565b505050565b336000818152600a60209081526040808320548352600d9091529020546001600160a01b031614611cf45760405162461bcd60e51b815260206004820152601d60248201527f4f6e6c7920746865206361707461696e2063616e20646f20746869732e000000604482015260640161047b565b6001600160a01b0381166000908152600a60205260408082205433835291205414611d615760405162461bcd60e51b815260206004820181905260248201527f4669727374206d617465206d757374206265206f6e20796f7572207465616d2e604482015260640161047b565b6001600160a01b0381166000818152600a60208181526040808420548452600e825280842080546001600160a01b031916909517909455338352522054600980547f793ce8f0c70b280a4c9c6008694f48260a4aa13d0a724bab8f18a592edfe509392908110611dd357611dd3612289565b906000526020600020906006020160010182604051610c8e9291906126e9565b60018054611e009061229f565b80601f0160208091040260200160405190810160405280929190818152602001828054611e2c9061229f565b8015611e795780601f10611e4e57610100808354040283529160200191611e79565b820191906000526020600020905b815481529060010190602001808311611e5c57829003601f168201915b505050505081565b6000546001600160a01b03163314611ec95760405162461bcd60e51b815260206004820152600b60248201526a27b7363c9037bbb732b91760a91b604482015260640161047b565b8415611ef5578460098781548110611ee357611ee3612289565b60009182526020909120600690910201555b8315611f25578360098781548110611f0f57611f0f612289565b9060005260206000209060060201600201819055505b8215611f55578260098781548110611f3f57611f3f612289565b9060005260206000209060060201600301819055505b8115611f85578160098781548110611f6f57611f6f612289565b9060005260206000209060060201600401819055505b8015611fb5578060098781548110611f9f57611f9f612289565b9060005260206000209060060201600501819055505b505050505050565b6000611fc982846124a7565b90505b92915050565b6000611fc98284612262565b6000611fc982846123f0565b6000611fc98284612276565b60006020828403121561200857600080fd5b5035919050565b80356001600160a01b038116811461202657600080fd5b919050565b60006020828403121561203d57600080fd5b611fc98261200f565b6000815180845260005b8181101561206c57602081850181015186830182015201612050565b506000602082860101526020601f19601f83011685010191505092915050565b86815260c0602082015260006120a560c0830188612046565b90508560408301528460608301528360808301528260a0830152979650505050505050565b600080604083850312156120dd57600080fd5b823591506120ed6020840161200f565b90509250929050565b634e487b7160e01b600052604160045260246000fd5b6000806040838503121561211f57600080fd5b82359150602083013567ffffffffffffffff8082111561213e57600080fd5b818501915085601f83011261215257600080fd5b813581811115612164576121646120f6565b604051601f8201601f19908116603f0116810190838211818310171561218c5761218c6120f6565b816040528281528860208487010111156121a557600080fd5b8260208601602083013760006020848301015280955050505050509250929050565b602081526000611fc96020830184612046565b60008060008060008060c087890312156121f357600080fd5b505084359660208601359650604086013595606081013595506080810135945060a0013592509050565b60006020828403121561222f57600080fd5b5051919050565b634e487b7160e01b600052601260045260246000fd5b634e487b7160e01b600052601160045260246000fd5b60008261227157612271612236565b500490565b80820180821115611fcc57611fcc61224c565b634e487b7160e01b600052603260045260246000fd5b600181811c908216806122b357607f821691505b6020821081036122d357634e487b7160e01b600052602260045260246000fd5b50919050565b600081546122e68161229f565b808552602060018381168015612303576001811461231d5761234b565b60ff1985168884015283151560051b88018301955061234b565b866000528260002060005b858110156123435781548a8201860152908301908401612328565b890184019650505b505050505092915050565b6001600160a01b038416815260606020820181905260009061237a908301856122d9565b9050826040830152949350505050565b6020808252601d908201527f5468652067616d6520686173206e6f742073746172746564207965742e000000604082015260600190565b6020808252601590820152742a3434b9903ab9b2b91034b99034b7103530b4b61760591b604082015260600190565b81810381811115611fcc57611fcc61224c565b60008261241257612412612236565b500690565b6000600182016124295761242961224c565b5060010190565b6020808252602b908201527f4f6e6c7920746865206361707461696e206f72206669727374206d617465206360408201526a30b7103237903a3434b99760a91b606082015260800190565b6001600160a01b038316815260406020820181905260009061249f908301846122d9565b949350505050565b8082028115828204841417611fcc57611fcc61224c565b601f821115611c7c57600081815260208120601f850160051c810160208610156124e55750805b601f850160051c820191505b81811015611fb5578281556001016124f1565b81810361250f575050565b612519825461229f565b67ffffffffffffffff811115612531576125316120f6565b6125458161253f845461229f565b846124be565b6000601f82116001811461257957600083156125615750848201545b600019600385901b1c1916600184901b1784556125de565b600085815260209020601f19841690600086815260209020845b838110156125b35782860154825560019586019590910190602001612593565b50858310156125d15781850154600019600388901b60f8161c191681555b50505060018360011b0184555b5050505050565b6001600160a01b0385168152608060208201819052600090612609908301866122d9565b828103604084015261261b81866122d9565b915050821515606083015295945050505050565b815167ffffffffffffffff811115612649576126496120f6565b6126578161253f845461229f565b602080601f83116001811461268c57600084156126745750858301515b600019600386901b1c1916600185901b178555611fb5565b600085815260208120601f198616915b828110156126bb5788860151825594840194600190910190840161269c565b50858210156126d95787850151600019600388901b60f8161c191681555b5050505050600190811b01905550565b6040815260006126fc60408301856122d9565b905060018060a01b0383166020830152939250505056fea2646970667358221220ef023d98058cf009a6606a50dc390f8050c7f7ead7c07f5f08d29506fd8c344364736f6c634300081100336e1540171b6c0c960b71a7020d9f60077f6af931a8bbf590da0223dacf75c7b06e1540171b6c0c960b71a7020d9f60077f6af931a8bbf590da0223dacf75c7af",
  "bytecodeSha1": "da39a3ee5e6b4b0d3255bfef95601890afd80709",
  "compiler": {
    "evm_version": "istanbul",
    "optimizer": {
      "enabled": true,
      "runs": 200
    },
    "version": "0.8.17+commit.8df45f5f"
  },
  "contractName": "PirateRace",
  "language": "Solidity",
  "natspec": {
    "kind": "dev",
    "methods": {},
    "version": 1
  },
  "opcodes": "PUSH1 0x80 PUSH1 0x40 MSTORE CALLVALUE DUP1 ISZERO PUSH2 0x10 JUMPI PUSH1 0x0 DUP1 REVERT JUMPDEST POP PUSH1 0x4 CALLDATASIZE LT PUSH2 0x1C4 JUMPI PUSH1 0x0 CALLDATALOAD PUSH1 0xE0 SHR DUP1 PUSH4 0x8362CECF GT PUSH2 0xF9 JUMPI DUP1 PUSH4 0xC3DA42B8 GT PUSH2 0x97 JUMPI DUP1 PUSH4 0xDDBCEDA7 GT PUSH2 0x71 JUMPI DUP1 PUSH4 0xDDBCEDA7 EQ PUSH2 0x3ED JUMPI DUP1 PUSH4 0xDFBF53AE EQ PUSH2 0x400 JUMPI DUP1 PUSH4 0xE075BE21 EQ PUSH2 0x415 JUMPI DUP1 PUSH4 0xF8200866 EQ PUSH2 0x428 JUMPI PUSH1 0x0 DUP1 REVERT JUMPDEST DUP1 PUSH4 0xC3DA42B8 EQ PUSH2 0x3C8 JUMPI DUP1 PUSH4 0xCC3590BB EQ PUSH2 0x3D1 JUMPI DUP1 PUSH4 0xD60E831C EQ PUSH2 0x3DA JUMPI PUSH1 0x0 DUP1 REVERT JUMPDEST DUP1 PUSH4 0x9BCBEA52 GT PUSH2 0xD3 JUMPI DUP1 PUSH4 0x9BCBEA52 EQ PUSH2 0x367 JUMPI DUP1 PUSH4 0xA99BC082 EQ PUSH2 0x39A JUMPI DUP1 PUSH4 0xADF7D47A EQ PUSH2 0x3A2 JUMPI DUP1 PUSH4 0xC01D373F EQ PUSH2 0x3B5 JUMPI PUSH1 0x0 DUP1 REVERT JUMPDEST DUP1 PUSH4 0x8362CECF EQ PUSH2 0x334 JUMPI DUP1 PUSH4 0x84D0643E EQ PUSH2 0x33C JUMPI DUP1 PUSH4 0x8DA5CB5B EQ PUSH2 0x354 JUMPI PUSH1 0x0 DUP1 REVERT JUMPDEST DUP1 PUSH4 0x48E11E2D GT PUSH2 0x166 JUMPI DUP1 PUSH4 0x58C5A1E4 GT PUSH2 0x140 JUMPI DUP1 PUSH4 0x58C5A1E4 EQ PUSH2 0x2F1 JUMPI DUP1 PUSH4 0x6AD7ED47 EQ PUSH2 0x311 JUMPI DUP1 PUSH4 0x6B3EE32A EQ PUSH2 0x319 JUMPI DUP1 PUSH4 0x81EC0F0F EQ PUSH2 0x321 JUMPI PUSH1 0x0 DUP1 REVERT JUMPDEST DUP1 PUSH4 0x48E11E2D EQ PUSH2 0x2B7 JUMPI DUP1 PUSH4 0x4DF7E3D0 EQ PUSH2 0x2E0 JUMPI DUP1 PUSH4 0x57FFFD4A EQ PUSH2 0x2E9 JUMPI PUSH1 0x0 DUP1 REVERT JUMPDEST DUP1 PUSH4 0x1C7E9ED0 GT PUSH2 0x1A2 JUMPI DUP1 PUSH4 0x1C7E9ED0 EQ PUSH2 0x23B JUMPI DUP1 PUSH4 0x38EE821B EQ PUSH2 0x243 JUMPI DUP1 PUSH4 0x3ED2B77A EQ PUSH2 0x27F JUMPI DUP1 PUSH4 0x4079761E EQ PUSH2 0x2A4 JUMPI PUSH1 0x0 DUP1 REVERT JUMPDEST DUP1 PUSH4 0x49878F3 EQ PUSH2 0x1C9 JUMPI DUP1 PUSH4 0xDBE671F EQ PUSH2 0x1DE JUMPI DUP1 PUSH4 0x1B586A3B EQ PUSH2 0x1FA JUMPI JUMPDEST PUSH1 0x0 DUP1 REVERT JUMPDEST PUSH2 0x1DC PUSH2 0x1D7 CALLDATASIZE PUSH1 0x4 PUSH2 0x1FF6 JUMP JUMPDEST PUSH2 0x43B JUMP JUMPDEST STOP JUMPDEST PUSH2 0x1E7 PUSH1 0x5 SLOAD DUP2 JUMP JUMPDEST PUSH1 0x40 MLOAD SWAP1 DUP2 MSTORE PUSH1 0x20 ADD JUMPDEST PUSH1 0x40 MLOAD DUP1 SWAP2 SUB SWAP1 RETURN JUMPDEST PUSH2 0x223 PUSH2 0x208 CALLDATASIZE PUSH1 0x4 PUSH2 0x1FF6 JUMP JUMPDEST PUSH1 0xD PUSH1 0x20 MSTORE PUSH1 0x0 SWAP1 DUP2 MSTORE PUSH1 0x40 SWAP1 KECCAK256 SLOAD PUSH1 0x1 PUSH1 0x1 PUSH1 0xA0 SHL SUB AND DUP2 JUMP JUMPDEST PUSH1 0x40 MLOAD PUSH1 0x1 PUSH1 0x1 PUSH1 0xA0 SHL SUB SWAP1 SWAP2 AND DUP2 MSTORE PUSH1 0x20 ADD PUSH2 0x1F1 JUMP JUMPDEST PUSH2 0x1DC PUSH2 0x6B5 JUMP JUMPDEST PUSH2 0x26A PUSH2 0x251 CALLDATASIZE PUSH1 0x4 PUSH2 0x202B JUMP JUMPDEST PUSH1 0xC PUSH1 0x20 MSTORE PUSH1 0x0 SWAP1 DUP2 MSTORE PUSH1 0x40 SWAP1 KECCAK256 DUP1 SLOAD PUSH1 0x1 SWAP1 SWAP2 ADD SLOAD DUP3 JUMP JUMPDEST PUSH1 0x40 DUP1 MLOAD SWAP3 DUP4 MSTORE PUSH1 0x20 DUP4 ADD SWAP2 SWAP1 SWAP2 MSTORE ADD PUSH2 0x1F1 JUMP JUMPDEST PUSH2 0x292 PUSH2 0x28D CALLDATASIZE PUSH1 0x4 PUSH2 0x1FF6 JUMP JUMPDEST PUSH2 0xA46 JUMP JUMPDEST PUSH1 0x40 MLOAD PUSH2 0x1F1 SWAP7 SWAP6 SWAP5 SWAP4 SWAP3 SWAP2 SWAP1 PUSH2 0x208C JUMP JUMPDEST PUSH2 0x1DC PUSH2 0x2B2 CALLDATASIZE PUSH1 0x4 PUSH2 0x202B JUMP JUMPDEST PUSH2 0xB16 JUMP JUMPDEST PUSH2 0x223 PUSH2 0x2C5 CALLDATASIZE PUSH1 0x4 PUSH2 0x1FF6 JUMP JUMPDEST PUSH1 0xE PUSH1 0x20 MSTORE PUSH1 0x0 SWAP1 DUP2 MSTORE PUSH1 0x40 SWAP1 KECCAK256 SLOAD PUSH1 0x1 PUSH1 0x1 PUSH1 0xA0 SHL SUB AND DUP2 JUMP JUMPDEST PUSH2 0x1E7 PUSH1 0x6 SLOAD DUP2 JUMP JUMPDEST PUSH2 0x1DC PUSH2 0xC99 JUMP JUMPDEST PUSH2 0x1E7 PUSH2 0x2FF CALLDATASIZE PUSH1 0x4 PUSH2 0x202B JUMP JUMPDEST PUSH1 0xA PUSH1 0x20 MSTORE PUSH1 0x0 SWAP1 DUP2 MSTORE PUSH1 0x40 SWAP1 KECCAK256 SLOAD DUP2 JUMP JUMPDEST PUSH2 0x1DC PUSH2 0xEBB JUMP JUMPDEST PUSH2 0x1DC PUSH2 0xFC7 JUMP JUMPDEST PUSH2 0x1DC PUSH2 0x32F CALLDATASIZE PUSH1 0x4 PUSH2 0x20CA JUMP JUMPDEST PUSH2 0x11E6 JUMP JUMPDEST PUSH2 0x1DC PUSH2 0x1282 JUMP JUMPDEST PUSH1 0x3 SLOAD PUSH2 0x223 SWAP1 PUSH2 0x100 SWAP1 DIV PUSH1 0x1 PUSH1 0x1 PUSH1 0xA0 SHL SUB AND DUP2 JUMP JUMPDEST PUSH1 0x0 SLOAD PUSH2 0x223 SWAP1 PUSH1 0x1 PUSH1 0x1 PUSH1 0xA0 SHL SUB AND DUP2 JUMP JUMPDEST PUSH2 0x38A PUSH2 0x375 CALLDATASIZE PUSH1 0x4 PUSH2 0x202B JUMP JUMPDEST PUSH1 0xB PUSH1 0x20 MSTORE PUSH1 0x0 SWAP1 DUP2 MSTORE PUSH1 0x40 SWAP1 KECCAK256 SLOAD PUSH1 0xFF AND DUP2 JUMP JUMPDEST PUSH1 0x40 MLOAD SWAP1 ISZERO ISZERO DUP2 MSTORE PUSH1 0x20 ADD PUSH2 0x1F1 JUMP JUMPDEST PUSH2 0x1DC PUSH2 0x148D JUMP JUMPDEST PUSH2 0x1DC PUSH2 0x3B0 CALLDATASIZE PUSH1 0x4 PUSH2 0x1FF6 JUMP JUMPDEST PUSH2 0x1698 JUMP JUMPDEST PUSH2 0x1DC PUSH2 0x3C3 CALLDATASIZE PUSH1 0x4 PUSH2 0x202B JUMP JUMPDEST PUSH2 0x1A8F JUMP JUMPDEST PUSH2 0x1E7 PUSH1 0x7 SLOAD DUP2 JUMP JUMPDEST PUSH2 0x1E7 PUSH1 0x2 SLOAD DUP2 JUMP JUMPDEST PUSH2 0x1DC PUSH2 0x3E8 CALLDATASIZE PUSH1 0x4 PUSH2 0x210C JUMP JUMPDEST PUSH2 0x1BE6 JUMP JUMPDEST PUSH2 0x1DC PUSH2 0x3FB CALLDATASIZE PUSH1 0x4 PUSH2 0x202B JUMP JUMPDEST PUSH2 0x1C81 JUMP JUMPDEST PUSH2 0x408 PUSH2 0x1DF3 JUMP JUMPDEST PUSH1 0x40 MLOAD PUSH2 0x1F1 SWAP2 SWAP1 PUSH2 0x21C7 JUMP JUMPDEST PUSH2 0x1DC PUSH2 0x423 CALLDATASIZE PUSH1 0x4 PUSH2 0x21DA JUMP JUMPDEST PUSH2 0x1E81 JUMP JUMPDEST PUSH1 0x4 SLOAD PUSH2 0x223 SWAP1 PUSH1 0x1 PUSH1 0x1 PUSH1 0xA0 SHL SUB AND DUP2 JUMP JUMPDEST PUSH1 0x9 SLOAD DUP2 LT PUSH2 0x484 JUMPI PUSH1 0x40 MLOAD PUSH3 0x461BCD PUSH1 0xE5 SHL DUP2 MSTORE PUSH1 0x20 PUSH1 0x4 DUP3 ADD MSTORE PUSH1 0x10 PUSH1 0x24 DUP3 ADD MSTORE PUSH16 0x24B73B30B634B2103A32B0B69024A217 PUSH1 0x81 SHL PUSH1 0x44 DUP3 ADD MSTORE PUSH1 0x64 ADD JUMPDEST PUSH1 0x40 MLOAD DUP1 SWAP2 SUB SWAP1 REVERT JUMPDEST PUSH1 0x4 DUP1 SLOAD PUSH1 0x40 MLOAD PUSH4 0x70A08231 PUSH1 0xE0 SHL DUP2 MSTORE CALLER SWAP3 DUP2 ADD SWAP3 SWAP1 SWAP3 MSTORE PUSH1 0x0 SWAP2 PUSH8 0xDE0B6B3A7640000 SWAP2 PUSH1 0x1 PUSH1 0x1 PUSH1 0xA0 SHL SUB AND SWAP1 PUSH4 0x70A08231 SWAP1 PUSH1 0x24 ADD PUSH1 0x20 PUSH1 0x40 MLOAD DUP1 DUP4 SUB DUP2 DUP7 GAS STATICCALL ISZERO DUP1 ISZERO PUSH2 0x4DA JUMPI RETURNDATASIZE PUSH1 0x0 DUP1 RETURNDATACOPY RETURNDATASIZE PUSH1 0x0 REVERT JUMPDEST POP POP POP POP PUSH1 0x40 MLOAD RETURNDATASIZE PUSH1 0x1F NOT PUSH1 0x1F DUP3 ADD AND DUP3 ADD DUP1 PUSH1 0x40 MSTORE POP DUP2 ADD SWAP1 PUSH2 0x4FE SWAP2 SWAP1 PUSH2 0x221D JUMP JUMPDEST PUSH2 0x508 SWAP2 SWAP1 PUSH2 0x2262 JUMP JUMPDEST PUSH1 0x3 SLOAD PUSH1 0x40 MLOAD PUSH4 0x70A08231 PUSH1 0xE0 SHL DUP2 MSTORE CALLER PUSH1 0x4 DUP3 ADD MSTORE PUSH8 0xDE0B6B3A7640000 SWAP2 PUSH2 0x100 SWAP1 DIV PUSH1 0x1 PUSH1 0x1 PUSH1 0xA0 SHL SUB AND SWAP1 PUSH4 0x70A08231 SWAP1 PUSH1 0x24 ADD PUSH1 0x20 PUSH1 0x40 MLOAD DUP1 DUP4 SUB DUP2 DUP7 GAS STATICCALL ISZERO DUP1 ISZERO PUSH2 0x55D JUMPI RETURNDATASIZE PUSH1 0x0 DUP1 RETURNDATACOPY RETURNDATASIZE PUSH1 0x0 REVERT JUMPDEST POP POP POP POP PUSH1 0x40 MLOAD RETURNDATASIZE PUSH1 0x1F NOT PUSH1 0x1F DUP3 ADD AND DUP3 ADD DUP1 PUSH1 0x40 MSTORE POP DUP2 ADD SWAP1 PUSH2 0x581 SWAP2 SWAP1 PUSH2 0x221D JUMP JUMPDEST PUSH2 0x58B SWAP2 SWAP1 PUSH2 0x2262 JUMP JUMPDEST PUSH2 0x595 SWAP2 SWAP1 PUSH2 0x2276 JUMP JUMPDEST SWAP1 POP PUSH1 0x64 DUP2 LT ISZERO PUSH2 0x5F8 JUMPI PUSH1 0x40 MLOAD PUSH3 0x461BCD PUSH1 0xE5 SHL DUP2 MSTORE PUSH1 0x20 PUSH1 0x4 DUP3 ADD MSTORE PUSH1 0x27 PUSH1 0x24 DUP3 ADD MSTORE PUSH32 0x5265717569726573206174206C6561737420313030205169202B206551692074 PUSH1 0x44 DUP3 ADD MSTORE PUSH7 0x3790383630BC97 PUSH1 0xC9 SHL PUSH1 0x64 DUP3 ADD MSTORE PUSH1 0x84 ADD PUSH2 0x47B JUMP JUMPDEST DUP1 PUSH1 0x9 DUP4 DUP2 SLOAD DUP2 LT PUSH2 0x60C JUMPI PUSH2 0x60C PUSH2 0x2289 JUMP JUMPDEST SWAP1 PUSH1 0x0 MSTORE PUSH1 0x20 PUSH1 0x0 KECCAK256 SWAP1 PUSH1 0x6 MUL ADD PUSH1 0x0 ADD PUSH1 0x0 DUP3 DUP3 SLOAD PUSH2 0x62C SWAP2 SWAP1 PUSH2 0x2276 JUMP JUMPDEST SWAP1 SWAP2 SSTORE POP POP CALLER PUSH1 0x0 DUP2 DUP2 MSTORE PUSH1 0xA PUSH1 0x20 SWAP1 DUP2 MSTORE PUSH1 0x40 DUP1 DUP4 KECCAK256 DUP7 SWAP1 SSTORE PUSH1 0xC SWAP1 SWAP2 MSTORE SWAP1 KECCAK256 DUP3 SWAP1 SSTORE PUSH1 0x9 DUP1 SLOAD PUSH32 0x421F2322493A06D9F34E676FFA1C281FFB19C3E128AE5F8EEE60EA3C83CDD8F6 SWAP3 SWAP2 SWAP1 DUP6 SWAP1 DUP2 LT PUSH2 0x688 JUMPI PUSH2 0x688 PUSH2 0x2289 JUMP JUMPDEST SWAP1 PUSH1 0x0 MSTORE PUSH1 0x20 PUSH1 0x0 KECCAK256 SWAP1 PUSH1 0x6 MUL ADD PUSH1 0x1 ADD DUP4 PUSH1 0x40 MLOAD PUSH2 0x6A9 SWAP4 SWAP3 SWAP2 SWAP1 PUSH2 0x2356 JUMP JUMPDEST PUSH1 0x40 MLOAD DUP1 SWAP2 SUB SWAP1 LOG1 POP POP JUMP JUMPDEST PUSH1 0x3 SLOAD PUSH1 0xFF AND PUSH2 0x6D7 JUMPI PUSH1 0x40 MLOAD PUSH3 0x461BCD PUSH1 0xE5 SHL DUP2 MSTORE PUSH1 0x4 ADD PUSH2 0x47B SWAP1 PUSH2 0x238A JUMP JUMPDEST CALLER PUSH1 0x0 SWAP1 DUP2 MSTORE PUSH1 0xB PUSH1 0x20 MSTORE PUSH1 0x40 SWAP1 KECCAK256 SLOAD PUSH1 0xFF AND ISZERO PUSH2 0x707 JUMPI PUSH1 0x40 MLOAD PUSH3 0x461BCD PUSH1 0xE5 SHL DUP2 MSTORE PUSH1 0x4 ADD PUSH2 0x47B SWAP1 PUSH2 0x23C1 JUMP JUMPDEST CALLER PUSH1 0x0 SWAP1 DUP2 MSTORE PUSH1 0xA PUSH1 0x20 MSTORE PUSH1 0x40 SWAP1 KECCAK256 SLOAD PUSH1 0x9 DUP1 SLOAD PUSH1 0x5 SWAP2 SWAP1 DUP4 SWAP1 DUP2 LT PUSH2 0x72F JUMPI PUSH2 0x72F PUSH2 0x2289 JUMP JUMPDEST SWAP1 PUSH1 0x0 MSTORE PUSH1 0x20 PUSH1 0x0 KECCAK256 SWAP1 PUSH1 0x6 MUL ADD PUSH1 0x0 ADD SLOAD LT ISZERO PUSH2 0x79E JUMPI PUSH1 0x40 MLOAD PUSH3 0x461BCD PUSH1 0xE5 SHL DUP2 MSTORE PUSH1 0x20 PUSH1 0x4 DUP3 ADD MSTORE PUSH1 0x26 PUSH1 0x24 DUP3 ADD MSTORE PUSH32 0x4E6F7420656E6F756768206D6F6E657920746F206275792061206D7973746572 PUSH1 0x44 DUP3 ADD MSTORE PUSH6 0x3C903137BC17 PUSH1 0xD1 SHL PUSH1 0x64 DUP3 ADD MSTORE PUSH1 0x84 ADD PUSH2 0x47B JUMP JUMPDEST PUSH1 0x5 PUSH1 0x9 DUP3 DUP2 SLOAD DUP2 LT PUSH2 0x7B3 JUMPI PUSH2 0x7B3 PUSH2 0x2289 JUMP JUMPDEST SWAP1 PUSH1 0x0 MSTORE PUSH1 0x20 PUSH1 0x0 KECCAK256 SWAP1 PUSH1 0x6 MUL ADD PUSH1 0x0 ADD PUSH1 0x0 DUP3 DUP3 SLOAD PUSH2 0x7D3 SWAP2 SWAP1 PUSH2 0x23F0 JUMP JUMPDEST SWAP3 POP POP DUP2 SWAP1 SSTORE POP PUSH1 0x0 DUP1 PUSH1 0x64 TIMESTAMP CALLER PUSH1 0x40 MLOAD PUSH1 0x20 ADD PUSH2 0x80D SWAP3 SWAP2 SWAP1 SWAP2 DUP3 MSTORE PUSH1 0x60 SHL PUSH12 0xFFFFFFFFFFFFFFFFFFFFFFFF NOT AND PUSH1 0x20 DUP3 ADD MSTORE PUSH1 0x34 ADD SWAP1 JUMP JUMPDEST PUSH1 0x40 MLOAD PUSH1 0x20 DUP2 DUP4 SUB SUB DUP2 MSTORE SWAP1 PUSH1 0x40 MSTORE DUP1 MLOAD SWAP1 PUSH1 0x20 ADD KECCAK256 PUSH1 0x0 SHR PUSH2 0x830 SWAP2 SWAP1 PUSH2 0x2403 JUMP JUMPDEST SWAP1 POP PUSH1 0x5 DUP2 LT PUSH2 0x9DB JUMPI PUSH1 0x6 DUP2 LT ISZERO PUSH2 0x887 JUMPI PUSH1 0xC8 PUSH1 0x9 DUP5 DUP2 SLOAD DUP2 LT PUSH2 0x858 JUMPI PUSH2 0x858 PUSH2 0x2289 JUMP JUMPDEST SWAP1 PUSH1 0x0 MSTORE PUSH1 0x20 PUSH1 0x0 KECCAK256 SWAP1 PUSH1 0x6 MUL ADD PUSH1 0x0 ADD PUSH1 0x0 DUP3 DUP3 SLOAD PUSH2 0x878 SWAP2 SWAP1 PUSH2 0x2276 JUMP JUMPDEST SWAP1 SWAP2 SSTORE POP PUSH1 0x1 SWAP3 POP PUSH2 0x9DB SWAP1 POP JUMP JUMPDEST PUSH1 0x8 DUP2 LT ISZERO PUSH2 0x94C JUMPI PUSH1 0x2 PUSH1 0x9 DUP5 DUP2 SLOAD DUP2 LT PUSH2 0x8A5 JUMPI PUSH2 0x8A5 PUSH2 0x2289 JUMP JUMPDEST SWAP1 PUSH1 0x0 MSTORE PUSH1 0x20 PUSH1 0x0 KECCAK256 SWAP1 PUSH1 0x6 MUL ADD PUSH1 0x2 ADD PUSH1 0x0 DUP3 DUP3 SLOAD PUSH2 0x8C5 SWAP2 SWAP1 PUSH2 0x2276 JUMP JUMPDEST SWAP3 POP POP DUP2 SWAP1 SSTORE POP PUSH1 0x2 PUSH1 0x9 DUP5 DUP2 SLOAD DUP2 LT PUSH2 0x8E1 JUMPI PUSH2 0x8E1 PUSH2 0x2289 JUMP JUMPDEST SWAP1 PUSH1 0x0 MSTORE PUSH1 0x20 PUSH1 0x0 KECCAK256 SWAP1 PUSH1 0x6 MUL ADD PUSH1 0x4 ADD PUSH1 0x0 DUP3 DUP3 SLOAD PUSH2 0x901 SWAP2 SWAP1 PUSH2 0x2276 JUMP JUMPDEST SWAP3 POP POP DUP2 SWAP1 SSTORE POP PUSH1 0x2 PUSH1 0x9 DUP5 DUP2 SLOAD DUP2 LT PUSH2 0x91D JUMPI PUSH2 0x91D PUSH2 0x2289 JUMP JUMPDEST SWAP1 PUSH1 0x0 MSTORE PUSH1 0x20 PUSH1 0x0 KECCAK256 SWAP1 PUSH1 0x6 MUL ADD PUSH1 0x5 ADD PUSH1 0x0 DUP3 DUP3 SLOAD PUSH2 0x93D SWAP2 SWAP1 PUSH2 0x2276 JUMP JUMPDEST SWAP1 SWAP2 SSTORE POP PUSH1 0x2 SWAP3 POP PUSH2 0x9DB SWAP1 POP JUMP JUMPDEST PUSH1 0x0 JUMPDEST PUSH1 0x9 SLOAD DUP2 LT ISZERO PUSH2 0x9D5 JUMPI PUSH2 0x99C PUSH1 0x64 PUSH2 0x996 PUSH1 0x5A PUSH1 0x9 DUP6 DUP2 SLOAD DUP2 LT PUSH2 0x976 JUMPI PUSH2 0x976 PUSH2 0x2289 JUMP JUMPDEST SWAP1 PUSH1 0x0 MSTORE PUSH1 0x20 PUSH1 0x0 KECCAK256 SWAP1 PUSH1 0x6 MUL ADD PUSH1 0x3 ADD SLOAD PUSH2 0x1FBD SWAP1 SWAP2 SWAP1 PUSH4 0xFFFFFFFF AND JUMP JUMPDEST SWAP1 PUSH2 0x1FD2 JUMP JUMPDEST PUSH1 0x9 DUP3 DUP2 SLOAD DUP2 LT PUSH2 0x9AF JUMPI PUSH2 0x9AF PUSH2 0x2289 JUMP JUMPDEST PUSH1 0x0 SWAP2 DUP3 MSTORE PUSH1 0x20 SWAP1 SWAP2 KECCAK256 PUSH1 0x3 PUSH1 0x6 SWAP1 SWAP3 MUL ADD ADD SSTORE DUP1 PUSH2 0x9CD DUP2 PUSH2 0x2417 JUMP JUMPDEST SWAP2 POP POP PUSH2 0x94F JUMP JUMPDEST POP PUSH1 0x3 SWAP2 POP JUMPDEST PUSH2 0x9E3 PUSH2 0xFC7 JUMP JUMPDEST PUSH32 0x963F55B912749794FC60E09989F975D99E32135EBDC74C70CE5CA23C86828A77 CALLER PUSH1 0x9 DUP6 DUP2 SLOAD DUP2 LT PUSH2 0xA18 JUMPI PUSH2 0xA18 PUSH2 0x2289 JUMP JUMPDEST SWAP1 PUSH1 0x0 MSTORE PUSH1 0x20 PUSH1 0x0 KECCAK256 SWAP1 PUSH1 0x6 MUL ADD PUSH1 0x1 ADD DUP5 PUSH1 0x40 MLOAD PUSH2 0xA39 SWAP4 SWAP3 SWAP2 SWAP1 PUSH2 0x2356 JUMP JUMPDEST PUSH1 0x40 MLOAD DUP1 SWAP2 SUB SWAP1 LOG1 POP POP POP JUMP JUMPDEST PUSH1 0x9 DUP2 DUP2 SLOAD DUP2 LT PUSH2 0xA56 JUMPI PUSH1 0x0 DUP1 REVERT JUMPDEST PUSH1 0x0 SWAP2 DUP3 MSTORE PUSH1 0x20 SWAP1 SWAP2 KECCAK256 PUSH1 0x6 SWAP1 SWAP2 MUL ADD DUP1 SLOAD PUSH1 0x1 DUP3 ADD DUP1 SLOAD SWAP2 SWAP4 POP SWAP1 PUSH2 0xA7B SWAP1 PUSH2 0x229F JUMP JUMPDEST DUP1 PUSH1 0x1F ADD PUSH1 0x20 DUP1 SWAP2 DIV MUL PUSH1 0x20 ADD PUSH1 0x40 MLOAD SWAP1 DUP2 ADD PUSH1 0x40 MSTORE DUP1 SWAP3 SWAP2 SWAP1 DUP2 DUP2 MSTORE PUSH1 0x20 ADD DUP3 DUP1 SLOAD PUSH2 0xAA7 SWAP1 PUSH2 0x229F JUMP JUMPDEST DUP1 ISZERO PUSH2 0xAF4 JUMPI DUP1 PUSH1 0x1F LT PUSH2 0xAC9 JUMPI PUSH2 0x100 DUP1 DUP4 SLOAD DIV MUL DUP4 MSTORE SWAP2 PUSH1 0x20 ADD SWAP2 PUSH2 0xAF4 JUMP JUMPDEST DUP3 ADD SWAP2 SWAP1 PUSH1 0x0 MSTORE PUSH1 0x20 PUSH1 0x0 KECCAK256 SWAP1 JUMPDEST DUP2 SLOAD DUP2 MSTORE SWAP1 PUSH1 0x1 ADD SWAP1 PUSH1 0x20 ADD DUP1 DUP4 GT PUSH2 0xAD7 JUMPI DUP3 SWAP1 SUB PUSH1 0x1F AND DUP3 ADD SWAP2 JUMPDEST POP POP POP POP POP SWAP1 DUP1 PUSH1 0x2 ADD SLOAD SWAP1 DUP1 PUSH1 0x3 ADD SLOAD SWAP1 DUP1 PUSH1 0x4 ADD SLOAD SWAP1 DUP1 PUSH1 0x5 ADD SLOAD SWAP1 POP DUP7 JUMP JUMPDEST CALLER PUSH1 0x0 DUP2 DUP2 MSTORE PUSH1 0xA PUSH1 0x20 SWAP1 DUP2 MSTORE PUSH1 0x40 DUP1 DUP4 KECCAK256 SLOAD DUP4 MSTORE PUSH1 0xD SWAP1 SWAP2 MSTORE SWAP1 KECCAK256 SLOAD PUSH1 0x1 PUSH1 0x1 PUSH1 0xA0 SHL SUB AND EQ DUP1 PUSH2 0xB6B JUMPI POP CALLER PUSH1 0x0 DUP2 DUP2 MSTORE PUSH1 0xA PUSH1 0x20 SWAP1 DUP2 MSTORE PUSH1 0x40 DUP1 DUP4 KECCAK256 SLOAD DUP4 MSTORE PUSH1 0xE SWAP1 SWAP2 MSTORE SWAP1 KECCAK256 SLOAD PUSH1 0x1 PUSH1 0x1 PUSH1 0xA0 SHL SUB AND EQ JUMPDEST PUSH2 0xB87 JUMPI PUSH1 0x40 MLOAD PUSH3 0x461BCD PUSH1 0xE5 SHL DUP2 MSTORE PUSH1 0x4 ADD PUSH2 0x47B SWAP1 PUSH2 0x2430 JUMP JUMPDEST PUSH1 0x1 PUSH1 0x1 PUSH1 0xA0 SHL SUB DUP2 AND PUSH1 0x0 SWAP1 DUP2 MSTORE PUSH1 0xA PUSH1 0x20 MSTORE PUSH1 0x40 DUP1 DUP3 KECCAK256 SLOAD CALLER DUP4 MSTORE SWAP2 KECCAK256 SLOAD EQ PUSH2 0xC0D JUMPI PUSH1 0x40 MLOAD PUSH3 0x461BCD PUSH1 0xE5 SHL DUP2 MSTORE PUSH1 0x20 PUSH1 0x4 DUP3 ADD MSTORE PUSH1 0x30 PUSH1 0x24 DUP3 ADD MSTORE PUSH32 0x43616E6E6F742074616B6520736F6D656F6E65206F6E20616E6F746865722074 PUSH1 0x44 DUP3 ADD MSTORE PUSH16 0x32B0B69037BABA1037B3103530B4B617 PUSH1 0x81 SHL PUSH1 0x64 DUP3 ADD MSTORE PUSH1 0x84 ADD PUSH2 0x47B JUMP JUMPDEST PUSH1 0x1 PUSH1 0x1 PUSH1 0xA0 SHL SUB DUP2 AND PUSH1 0x0 SWAP1 DUP2 MSTORE PUSH1 0xB PUSH1 0x20 SWAP1 DUP2 MSTORE PUSH1 0x40 DUP1 DUP4 KECCAK256 DUP1 SLOAD PUSH1 0xFF NOT AND SWAP1 SSTORE PUSH1 0xA SWAP1 SWAP2 MSTORE SWAP1 KECCAK256 SLOAD PUSH1 0x9 DUP1 SLOAD PUSH32 0x7C892458D566E30087DE155713D0B373EE96B70E37B90D1F057ABAB145B40666 SWAP3 DUP5 SWAP3 SWAP2 DUP2 LT PUSH2 0xC6F JUMPI PUSH2 0xC6F PUSH2 0x2289 JUMP JUMPDEST SWAP1 PUSH1 0x0 MSTORE PUSH1 0x20 PUSH1 0x0 KECCAK256 SWAP1 PUSH1 0x6 MUL ADD PUSH1 0x1 ADD PUSH1 0x40 MLOAD PUSH2 0xC8E SWAP3 SWAP2 SWAP1 PUSH2 0x247B JUMP JUMPDEST PUSH1 0x40 MLOAD DUP1 SWAP2 SUB SWAP1 LOG1 POP JUMP JUMPDEST PUSH1 0x3 SLOAD PUSH1 0xFF AND PUSH2 0xCBB JUMPI PUSH1 0x40 MLOAD PUSH3 0x461BCD PUSH1 0xE5 SHL DUP2 MSTORE PUSH1 0x4 ADD PUSH2 0x47B SWAP1 PUSH2 0x238A JUMP JUMPDEST CALLER PUSH1 0x0 SWAP1 DUP2 MSTORE PUSH1 0xB PUSH1 0x20 MSTORE PUSH1 0x40 SWAP1 KECCAK256 SLOAD PUSH1 0xFF AND ISZERO PUSH2 0xCEB JUMPI PUSH1 0x40 MLOAD PUSH3 0x461BCD PUSH1 0xE5 SHL DUP2 MSTORE PUSH1 0x4 ADD PUSH2 0x47B SWAP1 PUSH2 0x23C1 JUMP JUMPDEST CALLER PUSH1 0x0 SWAP1 DUP2 MSTORE PUSH1 0xA PUSH1 0x20 MSTORE PUSH1 0x40 SWAP1 KECCAK256 SLOAD PUSH1 0x9 DUP1 SLOAD PUSH1 0x1 SWAP2 SWAP1 DUP4 SWAP1 DUP2 LT PUSH2 0xD13 JUMPI PUSH2 0xD13 PUSH2 0x2289 JUMP JUMPDEST SWAP1 PUSH1 0x0 MSTORE PUSH1 0x20 PUSH1 0x0 KECCAK256 SWAP1 PUSH1 0x6 MUL ADD PUSH1 0x0 ADD SLOAD LT ISZERO PUSH2 0xD7F JUMPI PUSH1 0x40 MLOAD PUSH3 0x461BCD PUSH1 0xE5 SHL DUP2 MSTORE PUSH1 0x20 PUSH1 0x4 DUP3 ADD MSTORE PUSH1 0x23 PUSH1 0x24 DUP3 ADD MSTORE PUSH32 0x4E6F7420656E6F756768206D6F6E657920746F207570677261646520656E6769 PUSH1 0x44 DUP3 ADD MSTORE PUSH3 0x373297 PUSH1 0xE9 SHL PUSH1 0x64 DUP3 ADD MSTORE PUSH1 0x84 ADD PUSH2 0x47B JUMP JUMPDEST PUSH2 0xDAE PUSH1 0x1 PUSH1 0x9 DUP4 DUP2 SLOAD DUP2 LT PUSH2 0xD97 JUMPI PUSH2 0xD97 PUSH2 0x2289 JUMP JUMPDEST PUSH1 0x0 SWAP2 DUP3 MSTORE PUSH1 0x20 SWAP1 SWAP2 KECCAK256 PUSH1 0x6 SWAP1 SWAP2 MUL ADD SLOAD SWAP1 PUSH2 0x1FDE JUMP JUMPDEST PUSH1 0x9 DUP3 DUP2 SLOAD DUP2 LT PUSH2 0xDC1 JUMPI PUSH2 0xDC1 PUSH2 0x2289 JUMP JUMPDEST SWAP1 PUSH1 0x0 MSTORE PUSH1 0x20 PUSH1 0x0 KECCAK256 SWAP1 PUSH1 0x6 MUL ADD PUSH1 0x0 ADD DUP2 SWAP1 SSTORE POP PUSH2 0xE0E PUSH1 0x1 PUSH1 0x9 DUP4 DUP2 SLOAD DUP2 LT PUSH2 0xDEE JUMPI PUSH2 0xDEE PUSH2 0x2289 JUMP JUMPDEST SWAP1 PUSH1 0x0 MSTORE PUSH1 0x20 PUSH1 0x0 KECCAK256 SWAP1 PUSH1 0x6 MUL ADD PUSH1 0x2 ADD SLOAD PUSH2 0x1FEA SWAP1 SWAP2 SWAP1 PUSH4 0xFFFFFFFF AND JUMP JUMPDEST PUSH1 0x9 DUP3 DUP2 SLOAD DUP2 LT PUSH2 0xE21 JUMPI PUSH2 0xE21 PUSH2 0x2289 JUMP JUMPDEST PUSH1 0x0 SWAP2 DUP3 MSTORE PUSH1 0x20 DUP1 DUP4 KECCAK256 PUSH1 0x2 PUSH1 0x6 SWAP1 SWAP4 MUL ADD SWAP2 SWAP1 SWAP2 ADD SWAP3 SWAP1 SWAP3 SSTORE CALLER DUP2 MSTORE PUSH1 0xC SWAP1 SWAP2 MSTORE PUSH1 0x40 SWAP1 KECCAK256 PUSH1 0x1 SWAP1 DUP2 ADD SLOAD PUSH2 0xE56 SWAP2 PUSH2 0x1FEA JUMP JUMPDEST CALLER PUSH1 0x0 SWAP1 DUP2 MSTORE PUSH1 0xC PUSH1 0x20 MSTORE PUSH1 0x40 DUP2 KECCAK256 PUSH1 0x1 ADD DUP1 SLOAD SWAP1 SWAP2 SWAP1 PUSH2 0xE78 SWAP1 DUP5 SWAP1 PUSH2 0x2276 JUMP JUMPDEST SWAP1 SWAP2 SSTORE POP PUSH2 0xE86 SWAP1 POP PUSH2 0xFC7 JUMP JUMPDEST PUSH32 0xFDBB5B39CF560CD0A57D2342B964C7D29F734F63B301D6389A860883FCCDF697 CALLER PUSH1 0x9 DUP4 DUP2 SLOAD DUP2 LT PUSH2 0xC6F JUMPI PUSH2 0xC6F PUSH2 0x2289 JUMP JUMPDEST PUSH1 0x0 SLOAD PUSH1 0x1 PUSH1 0x1 PUSH1 0xA0 SHL SUB AND CALLER EQ PUSH2 0xF20 JUMPI PUSH1 0x40 MLOAD PUSH3 0x461BCD PUSH1 0xE5 SHL DUP2 MSTORE PUSH1 0x20 PUSH1 0x4 DUP3 ADD MSTORE PUSH1 0x22 PUSH1 0x24 DUP3 ADD MSTORE PUSH32 0x4F6E6C7920746865206F776E65722063616E2073746172742074686520726163 PUSH1 0x44 DUP3 ADD MSTORE PUSH2 0x3297 PUSH1 0xF1 SHL PUSH1 0x64 DUP3 ADD MSTORE PUSH1 0x84 ADD PUSH2 0x47B JUMP JUMPDEST PUSH1 0x3 SLOAD PUSH1 0xFF AND ISZERO PUSH2 0xF6B JUMPI PUSH1 0x40 MLOAD PUSH3 0x461BCD PUSH1 0xE5 SHL DUP2 MSTORE PUSH1 0x20 PUSH1 0x4 DUP3 ADD MSTORE PUSH1 0x15 PUSH1 0x24 DUP3 ADD MSTORE PUSH21 0x23B0B6B29030B63932B0B23C9039BA30B93A32B217 PUSH1 0x59 SHL PUSH1 0x44 DUP3 ADD MSTORE PUSH1 0x64 ADD PUSH2 0x47B JUMP JUMPDEST PUSH1 0x3 DUP1 SLOAD PUSH1 0xFF NOT AND PUSH1 0x1 OR SWAP1 SSTORE PUSH1 0x0 JUMPDEST PUSH1 0x9 SLOAD DUP2 LT ISZERO PUSH2 0xFC0 JUMPI PUSH1 0x1 PUSH1 0x9 DUP3 DUP2 SLOAD DUP2 LT PUSH2 0xF9A JUMPI PUSH2 0xF9A PUSH2 0x2289 JUMP JUMPDEST PUSH1 0x0 SWAP2 DUP3 MSTORE PUSH1 0x20 SWAP1 SWAP2 KECCAK256 PUSH1 0x2 PUSH1 0x6 SWAP1 SWAP3 MUL ADD ADD SSTORE DUP1 PUSH2 0xFB8 DUP2 PUSH2 0x2417 JUMP JUMPDEST SWAP2 POP POP PUSH2 0xF7B JUMP JUMPDEST POP TIMESTAMP PUSH1 0x8 SSTORE JUMP JUMPDEST PUSH1 0x3 SLOAD PUSH1 0xFF AND PUSH2 0xFE9 JUMPI PUSH1 0x40 MLOAD PUSH3 0x461BCD PUSH1 0xE5 SHL DUP2 MSTORE PUSH1 0x4 ADD PUSH2 0x47B SWAP1 PUSH2 0x238A JUMP JUMPDEST PUSH1 0x0 JUMPDEST PUSH1 0x9 SLOAD DUP2 LT ISZERO PUSH2 0x10FF JUMPI PUSH1 0x0 PUSH1 0x8 SLOAD TIMESTAMP PUSH2 0x1006 SWAP2 SWAP1 PUSH2 0x23F0 JUMP JUMPDEST SWAP1 POP DUP1 PUSH1 0x9 DUP4 DUP2 SLOAD DUP2 LT PUSH2 0x101C JUMPI PUSH2 0x101C PUSH2 0x2289 JUMP JUMPDEST SWAP1 PUSH1 0x0 MSTORE PUSH1 0x20 PUSH1 0x0 KECCAK256 SWAP1 PUSH1 0x6 MUL ADD PUSH1 0x2 ADD SLOAD PUSH2 0x1038 SWAP2 SWAP1 PUSH2 0x24A7 JUMP JUMPDEST PUSH1 0x9 DUP4 DUP2 SLOAD DUP2 LT PUSH2 0x104B JUMPI PUSH2 0x104B PUSH2 0x2289 JUMP JUMPDEST SWAP1 PUSH1 0x0 MSTORE PUSH1 0x20 PUSH1 0x0 KECCAK256 SWAP1 PUSH1 0x6 MUL ADD PUSH1 0x3 ADD PUSH1 0x0 DUP3 DUP3 SLOAD PUSH2 0x106B SWAP2 SWAP1 PUSH2 0x2276 JUMP JUMPDEST SWAP1 SWAP2 SSTORE POP POP PUSH1 0x2 SLOAD PUSH1 0x9 DUP1 SLOAD DUP5 SWAP1 DUP2 LT PUSH2 0x1087 JUMPI PUSH2 0x1087 PUSH2 0x2289 JUMP JUMPDEST SWAP1 PUSH1 0x0 MSTORE PUSH1 0x20 PUSH1 0x0 KECCAK256 SWAP1 PUSH1 0x6 MUL ADD PUSH1 0x3 ADD SLOAD LT ISZERO DUP1 ISZERO PUSH2 0x10B3 JUMPI POP PUSH1 0x1 DUP1 SLOAD PUSH2 0x10AF SWAP1 PUSH2 0x229F JUMP JUMPDEST ISZERO SWAP1 POP JUMPDEST ISZERO PUSH2 0x10EC JUMPI PUSH1 0x9 DUP3 DUP2 SLOAD DUP2 LT PUSH2 0x10CB JUMPI PUSH2 0x10CB PUSH2 0x2289 JUMP JUMPDEST SWAP1 PUSH1 0x0 MSTORE PUSH1 0x20 PUSH1 0x0 KECCAK256 SWAP1 PUSH1 0x6 MUL ADD PUSH1 0x1 ADD PUSH1 0x1 SWAP1 DUP2 PUSH2 0x10EA SWAP2 SWAP1 PUSH2 0x2504 JUMP JUMPDEST POP JUMPDEST POP DUP1 PUSH2 0x10F7 DUP2 PUSH2 0x2417 JUMP JUMPDEST SWAP2 POP POP PUSH2 0xFEC JUMP JUMPDEST POP TIMESTAMP PUSH1 0x8 DUP2 SWAP1 SSTORE POP PUSH32 0x24EDE07B86B6E8AEEA97CE363C9B62C5A79ED1B54E95D3B017D17F66C75BC1A3 PUSH1 0x9 PUSH1 0x0 DUP2 SLOAD DUP2 LT PUSH2 0x113C JUMPI PUSH2 0x113C PUSH2 0x2289 JUMP JUMPDEST SWAP1 PUSH1 0x0 MSTORE PUSH1 0x20 PUSH1 0x0 KECCAK256 SWAP1 PUSH1 0x6 MUL ADD PUSH1 0x3 ADD SLOAD PUSH1 0x9 PUSH1 0x1 DUP2 SLOAD DUP2 LT PUSH2 0x1162 JUMPI PUSH2 0x1162 PUSH2 0x2289 JUMP JUMPDEST SWAP1 PUSH1 0x0 MSTORE PUSH1 0x20 PUSH1 0x0 KECCAK256 SWAP1 PUSH1 0x6 MUL ADD PUSH1 0x3 ADD SLOAD PUSH1 0x9 PUSH1 0x2 DUP2 SLOAD DUP2 LT PUSH2 0x1188 JUMPI PUSH2 0x1188 PUSH2 0x2289 JUMP JUMPDEST SWAP1 PUSH1 0x0 MSTORE PUSH1 0x20 PUSH1 0x0 KECCAK256 SWAP1 PUSH1 0x6 MUL ADD PUSH1 0x3 ADD SLOAD PUSH1 0x9 PUSH1 0x3 DUP2 SLOAD DUP2 LT PUSH2 0x11AE JUMPI PUSH2 0x11AE PUSH2 0x2289 JUMP JUMPDEST PUSH1 0x0 SWAP2 DUP3 MSTORE PUSH1 0x20 SWAP2 DUP3 SWAP1 KECCAK256 PUSH1 0x3 PUSH1 0x6 SWAP1 SWAP3 MUL ADD ADD SLOAD PUSH1 0x40 DUP1 MLOAD SWAP6 DUP7 MSTORE SWAP2 DUP6 ADD SWAP4 SWAP1 SWAP4 MSTORE DUP4 ADD MSTORE PUSH1 0x60 DUP3 ADD MSTORE PUSH1 0x80 ADD PUSH1 0x40 MLOAD DUP1 SWAP2 SUB SWAP1 LOG1 JUMP JUMPDEST PUSH1 0x0 SLOAD PUSH1 0x1 PUSH1 0x1 PUSH1 0xA0 SHL SUB AND CALLER EQ PUSH2 0x124A JUMPI PUSH1 0x40 MLOAD PUSH3 0x461BCD PUSH1 0xE5 SHL DUP2 MSTORE PUSH1 0x20 PUSH1 0x4 DUP3 ADD MSTORE PUSH1 0x21 PUSH1 0x24 DUP3 ADD MSTORE PUSH32 0x4F6E6C7920746865206F776E65722063616E207069636B206361707461696E73 PUSH1 0x44 DUP3 ADD MSTORE PUSH1 0x17 PUSH1 0xF9 SHL PUSH1 0x64 DUP3 ADD MSTORE PUSH1 0x84 ADD PUSH2 0x47B JUMP JUMPDEST PUSH1 0x1 PUSH1 0x1 PUSH1 0xA0 SHL SUB AND PUSH1 0x0 DUP2 DUP2 MSTORE PUSH1 0xA PUSH1 0x20 SWAP1 DUP2 MSTORE PUSH1 0x40 DUP1 DUP4 KECCAK256 SLOAD DUP4 MSTORE PUSH1 0xD SWAP1 SWAP2 MSTORE SWAP1 KECCAK256 DUP1 SLOAD PUSH1 0x1 PUSH1 0x1 PUSH1 0xA0 SHL SUB NOT AND SWAP1 SWAP2 OR SWAP1 SSTORE POP JUMP JUMPDEST PUSH1 0x3 SLOAD PUSH1 0xFF AND PUSH2 0x12A4 JUMPI PUSH1 0x40 MLOAD PUSH3 0x461BCD PUSH1 0xE5 SHL DUP2 MSTORE PUSH1 0x4 ADD PUSH2 0x47B SWAP1 PUSH2 0x238A JUMP JUMPDEST CALLER PUSH1 0x0 SWAP1 DUP2 MSTORE PUSH1 0xB PUSH1 0x20 MSTORE PUSH1 0x40 SWAP1 KECCAK256 SLOAD PUSH1 0xFF AND ISZERO PUSH2 0x12D4 JUMPI PUSH1 0x40 MLOAD PUSH3 0x461BCD PUSH1 0xE5 SHL DUP2 MSTORE PUSH1 0x4 ADD PUSH2 0x47B SWAP1 PUSH2 0x23C1 JUMP JUMPDEST CALLER PUSH1 0x0 SWAP1 DUP2 MSTORE PUSH1 0xA PUSH1 0x20 MSTORE PUSH1 0x40 SWAP1 KECCAK256 SLOAD PUSH1 0x9 DUP1 SLOAD PUSH1 0x1 SWAP2 SWAP1 DUP4 SWAP1 DUP2 LT PUSH2 0x12FC JUMPI PUSH2 0x12FC PUSH2 0x2289 JUMP JUMPDEST SWAP1 PUSH1 0x0 MSTORE PUSH1 0x20 PUSH1 0x0 KECCAK256 SWAP1 PUSH1 0x6 MUL ADD PUSH1 0x0 ADD SLOAD LT ISZERO PUSH2 0x1368 JUMPI PUSH1 0x40 MLOAD PUSH3 0x461BCD PUSH1 0xE5 SHL DUP2 MSTORE PUSH1 0x20 PUSH1 0x4 DUP3 ADD MSTORE PUSH1 0x23 PUSH1 0x24 DUP3 ADD MSTORE PUSH32 0x4E6F7420656E6F756768206D6F6E657920746F20757067726164652061747461 PUSH1 0x44 DUP3 ADD MSTORE PUSH3 0x31B597 PUSH1 0xE9 SHL PUSH1 0x64 DUP3 ADD MSTORE PUSH1 0x84 ADD PUSH2 0x47B JUMP JUMPDEST PUSH2 0x1380 PUSH1 0x1 PUSH1 0x9 DUP4 DUP2 SLOAD DUP2 LT PUSH2 0xD97 JUMPI PUSH2 0xD97 PUSH2 0x2289 JUMP JUMPDEST PUSH1 0x9 DUP3 DUP2 SLOAD DUP2 LT PUSH2 0x1393 JUMPI PUSH2 0x1393 PUSH2 0x2289 JUMP JUMPDEST SWAP1 PUSH1 0x0 MSTORE PUSH1 0x20 PUSH1 0x0 KECCAK256 SWAP1 PUSH1 0x6 MUL ADD PUSH1 0x0 ADD DUP2 SWAP1 SSTORE POP PUSH2 0x13E0 PUSH1 0x1 PUSH1 0x9 DUP4 DUP2 SLOAD DUP2 LT PUSH2 0x13C0 JUMPI PUSH2 0x13C0 PUSH2 0x2289 JUMP JUMPDEST SWAP1 PUSH1 0x0 MSTORE PUSH1 0x20 PUSH1 0x0 KECCAK256 SWAP1 PUSH1 0x6 MUL ADD PUSH1 0x5 ADD SLOAD PUSH2 0x1FEA SWAP1 SWAP2 SWAP1 PUSH4 0xFFFFFFFF AND JUMP JUMPDEST PUSH1 0x9 DUP3 DUP2 SLOAD DUP2 LT PUSH2 0x13F3 JUMPI PUSH2 0x13F3 PUSH2 0x2289 JUMP JUMPDEST PUSH1 0x0 SWAP2 DUP3 MSTORE PUSH1 0x20 DUP1 DUP4 KECCAK256 PUSH1 0x5 PUSH1 0x6 SWAP1 SWAP4 MUL ADD SWAP2 SWAP1 SWAP2 ADD SWAP3 SWAP1 SWAP3 SSTORE CALLER DUP2 MSTORE PUSH1 0xC SWAP1 SWAP2 MSTORE PUSH1 0x40 SWAP1 KECCAK256 PUSH1 0x1 SWAP1 DUP2 ADD SLOAD PUSH2 0x1428 SWAP2 PUSH2 0x1FEA JUMP JUMPDEST CALLER PUSH1 0x0 SWAP1 DUP2 MSTORE PUSH1 0xC PUSH1 0x20 MSTORE PUSH1 0x40 DUP2 KECCAK256 PUSH1 0x1 ADD DUP1 SLOAD SWAP1 SWAP2 SWAP1 PUSH2 0x144A SWAP1 DUP5 SWAP1 PUSH2 0x2276 JUMP JUMPDEST SWAP1 SWAP2 SSTORE POP PUSH2 0x1458 SWAP1 POP PUSH2 0xFC7 JUMP JUMPDEST PUSH32 0x7C0725A32355C8362AAA495B37BDB3B9CFCC9FC46DBF2B0C85E7CCCE4669E6B8 CALLER PUSH1 0x9 DUP4 DUP2 SLOAD DUP2 LT PUSH2 0xC6F JUMPI PUSH2 0xC6F PUSH2 0x2289 JUMP JUMPDEST PUSH1 0x3 SLOAD PUSH1 0xFF AND PUSH2 0x14AF JUMPI PUSH1 0x40 MLOAD PUSH3 0x461BCD PUSH1 0xE5 SHL DUP2 MSTORE PUSH1 0x4 ADD PUSH2 0x47B SWAP1 PUSH2 0x238A JUMP JUMPDEST CALLER PUSH1 0x0 SWAP1 DUP2 MSTORE PUSH1 0xB PUSH1 0x20 MSTORE PUSH1 0x40 SWAP1 KECCAK256 SLOAD PUSH1 0xFF AND ISZERO PUSH2 0x14DF JUMPI PUSH1 0x40 MLOAD PUSH3 0x461BCD PUSH1 0xE5 SHL DUP2 MSTORE PUSH1 0x4 ADD PUSH2 0x47B SWAP1 PUSH2 0x23C1 JUMP JUMPDEST CALLER PUSH1 0x0 SWAP1 DUP2 MSTORE PUSH1 0xA PUSH1 0x20 MSTORE PUSH1 0x40 SWAP1 KECCAK256 SLOAD PUSH1 0x9 DUP1 SLOAD PUSH1 0x1 SWAP2 SWAP1 DUP4 SWAP1 DUP2 LT PUSH2 0x1507 JUMPI PUSH2 0x1507 PUSH2 0x2289 JUMP JUMPDEST SWAP1 PUSH1 0x0 MSTORE PUSH1 0x20 PUSH1 0x0 KECCAK256 SWAP1 PUSH1 0x6 MUL ADD PUSH1 0x0 ADD SLOAD LT ISZERO PUSH2 0x1573 JUMPI PUSH1 0x40 MLOAD PUSH3 0x461BCD PUSH1 0xE5 SHL DUP2 MSTORE PUSH1 0x20 PUSH1 0x4 DUP3 ADD MSTORE PUSH1 0x24 DUP1 DUP3 ADD MSTORE PUSH32 0x4E6F7420656E6F756768206D6F6E657920746F20757067726164652064656665 PUSH1 0x44 DUP3 ADD MSTORE PUSH4 0x3739B297 PUSH1 0xE1 SHL PUSH1 0x64 DUP3 ADD MSTORE PUSH1 0x84 ADD PUSH2 0x47B JUMP JUMPDEST PUSH2 0x158B PUSH1 0x1 PUSH1 0x9 DUP4 DUP2 SLOAD DUP2 LT PUSH2 0xD97 JUMPI PUSH2 0xD97 PUSH2 0x2289 JUMP JUMPDEST PUSH1 0x9 DUP3 DUP2 SLOAD DUP2 LT PUSH2 0x159E JUMPI PUSH2 0x159E PUSH2 0x2289 JUMP JUMPDEST SWAP1 PUSH1 0x0 MSTORE PUSH1 0x20 PUSH1 0x0 KECCAK256 SWAP1 PUSH1 0x6 MUL ADD PUSH1 0x0 ADD DUP2 SWAP1 SSTORE POP PUSH2 0x15EB PUSH1 0x1 PUSH1 0x9 DUP4 DUP2 SLOAD DUP2 LT PUSH2 0x15CB JUMPI PUSH2 0x15CB PUSH2 0x2289 JUMP JUMPDEST SWAP1 PUSH1 0x0 MSTORE PUSH1 0x20 PUSH1 0x0 KECCAK256 SWAP1 PUSH1 0x6 MUL ADD PUSH1 0x4 ADD SLOAD PUSH2 0x1FEA SWAP1 SWAP2 SWAP1 PUSH4 0xFFFFFFFF AND JUMP JUMPDEST PUSH1 0x9 DUP3 DUP2 SLOAD DUP2 LT PUSH2 0x15FE JUMPI PUSH2 0x15FE PUSH2 0x2289 JUMP JUMPDEST PUSH1 0x0 SWAP2 DUP3 MSTORE PUSH1 0x20 DUP1 DUP4 KECCAK256 PUSH1 0x4 PUSH1 0x6 SWAP1 SWAP4 MUL ADD SWAP2 SWAP1 SWAP2 ADD SWAP3 SWAP1 SWAP3 SSTORE CALLER DUP2 MSTORE PUSH1 0xC SWAP1 SWAP2 MSTORE PUSH1 0x40 SWAP1 KECCAK256 PUSH1 0x1 SWAP1 DUP2 ADD SLOAD PUSH2 0x1633 SWAP2 PUSH2 0x1FEA JUMP JUMPDEST CALLER PUSH1 0x0 SWAP1 DUP2 MSTORE PUSH1 0xC PUSH1 0x20 MSTORE PUSH1 0x40 DUP2 KECCAK256 PUSH1 0x1 ADD DUP1 SLOAD SWAP1 SWAP2 SWAP1 PUSH2 0x1655 SWAP1 DUP5 SWAP1 PUSH2 0x2276 JUMP JUMPDEST SWAP1 SWAP2 SSTORE POP PUSH2 0x1663 SWAP1 POP PUSH2 0xFC7 JUMP JUMPDEST PUSH32 0x7CCB3DD8C961E6D97590C65C2CFB6296766D9B731FF7B6F73E59B0BEB50EE2D4 CALLER PUSH1 0x9 DUP4 DUP2 SLOAD DUP2 LT PUSH2 0xC6F JUMPI PUSH2 0xC6F PUSH2 0x2289 JUMP JUMPDEST PUSH1 0x3 SLOAD PUSH1 0xFF AND PUSH2 0x16BA JUMPI PUSH1 0x40 MLOAD PUSH3 0x461BCD PUSH1 0xE5 SHL DUP2 MSTORE PUSH1 0x4 ADD PUSH2 0x47B SWAP1 PUSH2 0x238A JUMP JUMPDEST CALLER PUSH1 0x0 SWAP1 DUP2 MSTORE PUSH1 0xB PUSH1 0x20 MSTORE PUSH1 0x40 SWAP1 KECCAK256 SLOAD PUSH1 0xFF AND ISZERO PUSH2 0x16EA JUMPI PUSH1 0x40 MLOAD PUSH3 0x461BCD PUSH1 0xE5 SHL DUP2 MSTORE PUSH1 0x4 ADD PUSH2 0x47B SWAP1 PUSH2 0x23C1 JUMP JUMPDEST PUSH1 0x9 SLOAD DUP2 LT PUSH2 0x1732 JUMPI PUSH1 0x40 MLOAD PUSH3 0x461BCD PUSH1 0xE5 SHL DUP2 MSTORE PUSH1 0x20 PUSH1 0x4 DUP3 ADD MSTORE PUSH1 0x14 PUSH1 0x24 DUP3 ADD MSTORE PUSH20 0x24B73B30B634B2103A30B933B2BA103A32B0B697 PUSH1 0x61 SHL PUSH1 0x44 DUP3 ADD MSTORE PUSH1 0x64 ADD PUSH2 0x47B JUMP JUMPDEST CALLER PUSH1 0x0 SWAP1 DUP2 MSTORE PUSH1 0xA PUSH1 0x20 MSTORE PUSH1 0x40 SWAP1 KECCAK256 SLOAD DUP2 SUB PUSH2 0x1790 JUMPI PUSH1 0x40 MLOAD PUSH3 0x461BCD PUSH1 0xE5 SHL DUP2 MSTORE PUSH1 0x20 PUSH1 0x4 DUP3 ADD MSTORE PUSH1 0x18 PUSH1 0x24 DUP3 ADD MSTORE PUSH32 0x43616E6E6F742066697265206174206F776E207465616D2E0000000000000000 PUSH1 0x44 DUP3 ADD MSTORE PUSH1 0x64 ADD PUSH2 0x47B JUMP JUMPDEST CALLER PUSH1 0x0 SWAP1 DUP2 MSTORE PUSH1 0xA PUSH1 0x20 MSTORE PUSH1 0x40 DUP2 KECCAK256 SLOAD PUSH1 0x9 DUP1 SLOAD SWAP2 SWAP3 SWAP2 PUSH1 0x21 SWAP2 SWAP1 DUP6 SWAP1 DUP2 LT PUSH2 0x17BB JUMPI PUSH2 0x17BB PUSH2 0x2289 JUMP JUMPDEST SWAP1 PUSH1 0x0 MSTORE PUSH1 0x20 PUSH1 0x0 KECCAK256 SWAP1 PUSH1 0x6 MUL ADD PUSH1 0x4 ADD SLOAD PUSH1 0x9 DUP5 DUP2 SLOAD DUP2 LT PUSH2 0x17E0 JUMPI PUSH2 0x17E0 PUSH2 0x2289 JUMP JUMPDEST SWAP1 PUSH1 0x0 MSTORE PUSH1 0x20 PUSH1 0x0 KECCAK256 SWAP1 PUSH1 0x6 MUL ADD PUSH1 0x5 ADD SLOAD DUP3 PUSH2 0x17FD SWAP2 SWAP1 PUSH2 0x2276 JUMP JUMPDEST LT ISZERO PUSH2 0x180B JUMPI POP PUSH1 0x1 PUSH2 0x186E JUMP JUMPDEST PUSH1 0x9 DUP5 DUP2 SLOAD DUP2 LT PUSH2 0x181E JUMPI PUSH2 0x181E PUSH2 0x2289 JUMP JUMPDEST SWAP1 PUSH1 0x0 MSTORE PUSH1 0x20 PUSH1 0x0 KECCAK256 SWAP1 PUSH1 0x6 MUL ADD PUSH1 0x4 ADD SLOAD PUSH1 0x9 DUP5 DUP2 SLOAD DUP2 LT PUSH2 0x1843 JUMPI PUSH2 0x1843 PUSH2 0x2289 JUMP JUMPDEST SWAP1 PUSH1 0x0 MSTORE PUSH1 0x20 PUSH1 0x0 KECCAK256 SWAP1 PUSH1 0x6 MUL ADD PUSH1 0x5 ADD SLOAD PUSH1 0x21 PUSH2 0x1861 SWAP2 SWAP1 PUSH2 0x2276 JUMP JUMPDEST PUSH2 0x186B SWAP2 SWAP1 PUSH2 0x23F0 JUMP JUMPDEST SWAP1 POP JUMPDEST PUSH1 0x63 DUP2 GT ISZERO PUSH2 0x187B JUMPI POP PUSH1 0x63 JUMPDEST PUSH1 0x0 PUSH1 0x64 TIMESTAMP CALLER PUSH1 0x40 MLOAD PUSH1 0x20 ADD PUSH2 0x18AD SWAP3 SWAP2 SWAP1 SWAP2 DUP3 MSTORE PUSH1 0x60 SHL PUSH12 0xFFFFFFFFFFFFFFFFFFFFFFFF NOT AND PUSH1 0x20 DUP3 ADD MSTORE PUSH1 0x34 ADD SWAP1 JUMP JUMPDEST PUSH1 0x40 MLOAD PUSH1 0x20 DUP2 DUP4 SUB SUB DUP2 MSTORE SWAP1 PUSH1 0x40 MSTORE DUP1 MLOAD SWAP1 PUSH1 0x20 ADD KECCAK256 PUSH1 0x0 SHR PUSH2 0x18D0 SWAP2 SWAP1 PUSH2 0x2403 JUMP JUMPDEST PUSH1 0x5 DUP2 SWAP1 SSTORE SWAP1 POP DUP2 DUP2 LT ISZERO PUSH2 0x19B7 JUMPI PUSH2 0x18FC PUSH1 0x64 PUSH2 0x996 PUSH1 0x62 PUSH1 0x9 DUP10 DUP2 SLOAD DUP2 LT PUSH2 0x976 JUMPI PUSH2 0x976 PUSH2 0x2289 JUMP JUMPDEST PUSH1 0x9 DUP7 DUP2 SLOAD DUP2 LT PUSH2 0x190F JUMPI PUSH2 0x190F PUSH2 0x2289 JUMP JUMPDEST SWAP1 PUSH1 0x0 MSTORE PUSH1 0x20 PUSH1 0x0 KECCAK256 SWAP1 PUSH1 0x6 MUL ADD PUSH1 0x3 ADD DUP2 SWAP1 SSTORE POP PUSH1 0x3 PUSH1 0x9 DUP7 DUP2 SLOAD DUP2 LT PUSH2 0x1939 JUMPI PUSH2 0x1939 PUSH2 0x2289 JUMP JUMPDEST SWAP1 PUSH1 0x0 MSTORE PUSH1 0x20 PUSH1 0x0 KECCAK256 SWAP1 PUSH1 0x6 MUL ADD PUSH1 0x2 ADD SLOAD GT ISZERO PUSH2 0x19B2 JUMPI PUSH2 0x1989 PUSH1 0x2 PUSH1 0x9 DUP8 DUP2 SLOAD DUP2 LT PUSH2 0x1969 JUMPI PUSH2 0x1969 PUSH2 0x2289 JUMP JUMPDEST SWAP1 PUSH1 0x0 MSTORE PUSH1 0x20 PUSH1 0x0 KECCAK256 SWAP1 PUSH1 0x6 MUL ADD PUSH1 0x2 ADD SLOAD PUSH2 0x1FDE SWAP1 SWAP2 SWAP1 PUSH4 0xFFFFFFFF AND JUMP JUMPDEST PUSH1 0x9 DUP7 DUP2 SLOAD DUP2 LT PUSH2 0x199C JUMPI PUSH2 0x199C PUSH2 0x2289 JUMP JUMPDEST SWAP1 PUSH1 0x0 MSTORE PUSH1 0x20 PUSH1 0x0 KECCAK256 SWAP1 PUSH1 0x6 MUL ADD PUSH1 0x2 ADD DUP2 SWAP1 SSTORE POP JUMPDEST PUSH1 0x1 SWAP3 POP JUMPDEST CALLER PUSH1 0x0 SWAP1 DUP2 MSTORE PUSH1 0xC PUSH1 0x20 MSTORE PUSH1 0x40 SWAP1 KECCAK256 PUSH1 0x1 SWAP1 DUP2 ADD SLOAD PUSH2 0x19D5 SWAP2 PUSH2 0x1FEA JUMP JUMPDEST CALLER PUSH1 0x0 SWAP1 DUP2 MSTORE PUSH1 0xC PUSH1 0x20 MSTORE PUSH1 0x40 DUP2 KECCAK256 PUSH1 0x1 ADD DUP1 SLOAD SWAP1 SWAP2 SWAP1 PUSH2 0x19F7 SWAP1 DUP5 SWAP1 PUSH2 0x2276 JUMP JUMPDEST SWAP1 SWAP2 SSTORE POP PUSH2 0x1A05 SWAP1 POP PUSH2 0xFC7 JUMP JUMPDEST PUSH32 0x1070E59B5639F0799BD97E9AA418E32193DB53C11A30E2BADAB45D1AC1F1E4E4 CALLER PUSH1 0x9 DUP7 DUP2 SLOAD DUP2 LT PUSH2 0x1A3A JUMPI PUSH2 0x1A3A PUSH2 0x2289 JUMP JUMPDEST SWAP1 PUSH1 0x0 MSTORE PUSH1 0x20 PUSH1 0x0 KECCAK256 SWAP1 PUSH1 0x6 MUL ADD PUSH1 0x1 ADD PUSH1 0x9 DUP9 DUP2 SLOAD DUP2 LT PUSH2 0x1A5E JUMPI PUSH2 0x1A5E PUSH2 0x2289 JUMP JUMPDEST SWAP1 PUSH1 0x0 MSTORE PUSH1 0x20 PUSH1 0x0 KECCAK256 SWAP1 PUSH1 0x6 MUL ADD PUSH1 0x1 ADD DUP7 PUSH1 0x40 MLOAD PUSH2 0x1A80 SWAP5 SWAP4 SWAP3 SWAP2 SWAP1 PUSH2 0x25E5 JUMP JUMPDEST PUSH1 0x40 MLOAD DUP1 SWAP2 SUB SWAP1 LOG1 POP POP POP POP POP JUMP JUMPDEST CALLER PUSH1 0x0 DUP2 DUP2 MSTORE PUSH1 0xA PUSH1 0x20 SWAP1 DUP2 MSTORE PUSH1 0x40 DUP1 DUP4 KECCAK256 SLOAD DUP4 MSTORE PUSH1 0xD SWAP1 SWAP2 MSTORE SWAP1 KECCAK256 SLOAD PUSH1 0x1 PUSH1 0x1 PUSH1 0xA0 SHL SUB AND EQ DUP1 PUSH2 0x1AE4 JUMPI POP CALLER PUSH1 0x0 DUP2 DUP2 MSTORE PUSH1 0xA PUSH1 0x20 SWAP1 DUP2 MSTORE PUSH1 0x40 DUP1 DUP4 KECCAK256 SLOAD DUP4 MSTORE PUSH1 0xE SWAP1 SWAP2 MSTORE SWAP1 KECCAK256 SLOAD PUSH1 0x1 PUSH1 0x1 PUSH1 0xA0 SHL SUB AND EQ JUMPDEST PUSH2 0x1B00 JUMPI PUSH1 0x40 MLOAD PUSH3 0x461BCD PUSH1 0xE5 SHL DUP2 MSTORE PUSH1 0x4 ADD PUSH2 0x47B SWAP1 PUSH2 0x2430 JUMP JUMPDEST PUSH1 0x1 PUSH1 0x1 PUSH1 0xA0 SHL SUB DUP2 AND PUSH1 0x0 SWAP1 DUP2 MSTORE PUSH1 0xA PUSH1 0x20 MSTORE PUSH1 0x40 DUP1 DUP3 KECCAK256 SLOAD CALLER DUP4 MSTORE SWAP2 KECCAK256 SLOAD EQ PUSH2 0x1B81 JUMPI PUSH1 0x40 MLOAD PUSH3 0x461BCD PUSH1 0xE5 SHL DUP2 MSTORE PUSH1 0x20 PUSH1 0x4 DUP3 ADD MSTORE PUSH1 0x2B PUSH1 0x24 DUP3 ADD MSTORE PUSH32 0x43616E6E6F742070757420736F6D656F6E65206F6E20616E6F74686572207465 PUSH1 0x44 DUP3 ADD MSTORE PUSH11 0x30B69034B7103530B4B617 PUSH1 0xA9 SHL PUSH1 0x64 DUP3 ADD MSTORE PUSH1 0x84 ADD PUSH2 0x47B JUMP JUMPDEST PUSH1 0x1 PUSH1 0x1 PUSH1 0xA0 SHL SUB DUP2 AND PUSH1 0x0 SWAP1 DUP2 MSTORE PUSH1 0xB PUSH1 0x20 SWAP1 DUP2 MSTORE PUSH1 0x40 DUP1 DUP4 KECCAK256 DUP1 SLOAD PUSH1 0xFF NOT AND PUSH1 0x1 OR SWAP1 SSTORE PUSH1 0xA SWAP1 SWAP2 MSTORE SWAP1 KECCAK256 SLOAD PUSH1 0x9 DUP1 SLOAD PUSH32 0x3A20C27241F03F182FDEA2523631CB8DBE89E8C84A05CDB19F6F804D58F8F3C7 SWAP3 DUP5 SWAP3 SWAP2 DUP2 LT PUSH2 0xC6F JUMPI PUSH2 0xC6F PUSH2 0x2289 JUMP JUMPDEST PUSH1 0x0 SLOAD PUSH1 0x1 PUSH1 0x1 PUSH1 0xA0 SHL SUB AND CALLER EQ PUSH2 0x1C4B JUMPI PUSH1 0x40 MLOAD PUSH3 0x461BCD PUSH1 0xE5 SHL DUP2 MSTORE PUSH1 0x20 PUSH1 0x4 DUP3 ADD MSTORE PUSH1 0x22 PUSH1 0x24 DUP3 ADD MSTORE PUSH32 0x4F6E6C7920746865206F776E65722063616E206E616D6520746865207465616D PUSH1 0x44 DUP3 ADD MSTORE PUSH2 0x3997 PUSH1 0xF1 SHL PUSH1 0x64 DUP3 ADD MSTORE PUSH1 0x84 ADD PUSH2 0x47B JUMP JUMPDEST DUP1 PUSH1 0x9 DUP4 DUP2 SLOAD DUP2 LT PUSH2 0x1C5F JUMPI PUSH2 0x1C5F PUSH2 0x2289 JUMP JUMPDEST SWAP1 PUSH1 0x0 MSTORE PUSH1 0x20 PUSH1 0x0 KECCAK256 SWAP1 PUSH1 0x6 MUL ADD PUSH1 0x1 ADD SWAP1 DUP2 PUSH2 0x1C7C SWAP2 SWAP1 PUSH2 0x262F JUMP JUMPDEST POP POP POP JUMP JUMPDEST CALLER PUSH1 0x0 DUP2 DUP2 MSTORE PUSH1 0xA PUSH1 0x20 SWAP1 DUP2 MSTORE PUSH1 0x40 DUP1 DUP4 KECCAK256 SLOAD DUP4 MSTORE PUSH1 0xD SWAP1 SWAP2 MSTORE SWAP1 KECCAK256 SLOAD PUSH1 0x1 PUSH1 0x1 PUSH1 0xA0 SHL SUB AND EQ PUSH2 0x1CF4 JUMPI PUSH1 0x40 MLOAD PUSH3 0x461BCD PUSH1 0xE5 SHL DUP2 MSTORE PUSH1 0x20 PUSH1 0x4 DUP3 ADD MSTORE PUSH1 0x1D PUSH1 0x24 DUP3 ADD MSTORE PUSH32 0x4F6E6C7920746865206361707461696E2063616E20646F20746869732E000000 PUSH1 0x44 DUP3 ADD MSTORE PUSH1 0x64 ADD PUSH2 0x47B JUMP JUMPDEST PUSH1 0x1 PUSH1 0x1 PUSH1 0xA0 SHL SUB DUP2 AND PUSH1 0x0 SWAP1 DUP2 MSTORE PUSH1 0xA PUSH1 0x20 MSTORE PUSH1 0x40 DUP1 DUP3 KECCAK256 SLOAD CALLER DUP4 MSTORE SWAP2 KECCAK256 SLOAD EQ PUSH2 0x1D61 JUMPI PUSH1 0x40 MLOAD PUSH3 0x461BCD PUSH1 0xE5 SHL DUP2 MSTORE PUSH1 0x20 PUSH1 0x4 DUP3 ADD DUP2 SWAP1 MSTORE PUSH1 0x24 DUP3 ADD MSTORE PUSH32 0x4669727374206D617465206D757374206265206F6E20796F7572207465616D2E PUSH1 0x44 DUP3 ADD MSTORE PUSH1 0x64 ADD PUSH2 0x47B JUMP JUMPDEST PUSH1 0x1 PUSH1 0x1 PUSH1 0xA0 SHL SUB DUP2 AND PUSH1 0x0 DUP2 DUP2 MSTORE PUSH1 0xA PUSH1 0x20 DUP2 DUP2 MSTORE PUSH1 0x40 DUP1 DUP5 KECCAK256 SLOAD DUP5 MSTORE PUSH1 0xE DUP3 MSTORE DUP1 DUP5 KECCAK256 DUP1 SLOAD PUSH1 0x1 PUSH1 0x1 PUSH1 0xA0 SHL SUB NOT AND SWAP1 SWAP6 OR SWAP1 SWAP5 SSTORE CALLER DUP4 MSTORE MSTORE KECCAK256 SLOAD PUSH1 0x9 DUP1 SLOAD PUSH32 0x793CE8F0C70B280A4C9C6008694F48260A4AA13D0A724BAB8F18A592EDFE5093 SWAP3 SWAP1 DUP2 LT PUSH2 0x1DD3 JUMPI PUSH2 0x1DD3 PUSH2 0x2289 JUMP JUMPDEST SWAP1 PUSH1 0x0 MSTORE PUSH1 0x20 PUSH1 0x0 KECCAK256 SWAP1 PUSH1 0x6 MUL ADD PUSH1 0x1 ADD DUP3 PUSH1 0x40 MLOAD PUSH2 0xC8E SWAP3 SWAP2 SWAP1 PUSH2 0x26E9 JUMP JUMPDEST PUSH1 0x1 DUP1 SLOAD PUSH2 0x1E00 SWAP1 PUSH2 0x229F JUMP JUMPDEST DUP1 PUSH1 0x1F ADD PUSH1 0x20 DUP1 SWAP2 DIV MUL PUSH1 0x20 ADD PUSH1 0x40 MLOAD SWAP1 DUP2 ADD PUSH1 0x40 MSTORE DUP1 SWAP3 SWAP2 SWAP1 DUP2 DUP2 MSTORE PUSH1 0x20 ADD DUP3 DUP1 SLOAD PUSH2 0x1E2C SWAP1 PUSH2 0x229F JUMP JUMPDEST DUP1 ISZERO PUSH2 0x1E79 JUMPI DUP1 PUSH1 0x1F LT PUSH2 0x1E4E JUMPI PUSH2 0x100 DUP1 DUP4 SLOAD DIV MUL DUP4 MSTORE SWAP2 PUSH1 0x20 ADD SWAP2 PUSH2 0x1E79 JUMP JUMPDEST DUP3 ADD SWAP2 SWAP1 PUSH1 0x0 MSTORE PUSH1 0x20 PUSH1 0x0 KECCAK256 SWAP1 JUMPDEST DUP2 SLOAD DUP2 MSTORE SWAP1 PUSH1 0x1 ADD SWAP1 PUSH1 0x20 ADD DUP1 DUP4 GT PUSH2 0x1E5C JUMPI DUP3 SWAP1 SUB PUSH1 0x1F AND DUP3 ADD SWAP2 JUMPDEST POP POP POP POP POP DUP2 JUMP JUMPDEST PUSH1 0x0 SLOAD PUSH1 0x1 PUSH1 0x1 PUSH1 0xA0 SHL SUB AND CALLER EQ PUSH2 0x1EC9 JUMPI PUSH1 0x40 MLOAD PUSH3 0x461BCD PUSH1 0xE5 SHL DUP2 MSTORE PUSH1 0x20 PUSH1 0x4 DUP3 ADD MSTORE PUSH1 0xB PUSH1 0x24 DUP3 ADD MSTORE PUSH11 0x27B7363C9037BBB732B917 PUSH1 0xA9 SHL PUSH1 0x44 DUP3 ADD MSTORE PUSH1 0x64 ADD PUSH2 0x47B JUMP JUMPDEST DUP5 ISZERO PUSH2 0x1EF5 JUMPI DUP5 PUSH1 0x9 DUP8 DUP2 SLOAD DUP2 LT PUSH2 0x1EE3 JUMPI PUSH2 0x1EE3 PUSH2 0x2289 JUMP JUMPDEST PUSH1 0x0 SWAP2 DUP3 MSTORE PUSH1 0x20 SWAP1 SWAP2 KECCAK256 PUSH1 0x6 SWAP1 SWAP2 MUL ADD SSTORE JUMPDEST DUP4 ISZERO PUSH2 0x1F25 JUMPI DUP4 PUSH1 0x9 DUP8 DUP2 SLOAD DUP2 LT PUSH2 0x1F0F JUMPI PUSH2 0x1F0F PUSH2 0x2289 JUMP JUMPDEST SWAP1 PUSH1 0x0 MSTORE PUSH1 0x20 PUSH1 0x0 KECCAK256 SWAP1 PUSH1 0x6 MUL ADD PUSH1 0x2 ADD DUP2 SWAP1 SSTORE POP JUMPDEST DUP3 ISZERO PUSH2 0x1F55 JUMPI DUP3 PUSH1 0x9 DUP8 DUP2 SLOAD DUP2 LT PUSH2 0x1F3F JUMPI PUSH2 0x1F3F PUSH2 0x2289 JUMP JUMPDEST SWAP1 PUSH1 0x0 MSTORE PUSH1 0x20 PUSH1 0x0 KECCAK256 SWAP1 PUSH1 0x6 MUL ADD PUSH1 0x3 ADD DUP2 SWAP1 SSTORE POP JUMPDEST DUP2 ISZERO PUSH2 0x1F85 JUMPI DUP2 PUSH1 0x9 DUP8 DUP2 SLOAD DUP2 LT PUSH2 0x1F6F JUMPI PUSH2 0x1F6F PUSH2 0x2289 JUMP JUMPDEST SWAP1 PUSH1 0x0 MSTORE PUSH1 0x20 PUSH1 0x0 KECCAK256 SWAP1 PUSH1 0x6 MUL ADD PUSH1 0x4 ADD DUP2 SWAP1 SSTORE POP JUMPDEST DUP1 ISZERO PUSH2 0x1FB5 JUMPI DUP1 PUSH1 0x9 DUP8 DUP2 SLOAD DUP2 LT PUSH2 0x1F9F JUMPI PUSH2 0x1F9F PUSH2 0x2289 JUMP JUMPDEST SWAP1 PUSH1 0x0 MSTORE PUSH1 0x20 PUSH1 0x0 KECCAK256 SWAP1 PUSH1 0x6 MUL ADD PUSH1 0x5 ADD DUP2 SWAP1 SSTORE POP JUMPDEST POP POP POP POP POP POP JUMP JUMPDEST PUSH1 0x0 PUSH2 0x1FC9 DUP3 DUP5 PUSH2 0x24A7 JUMP JUMPDEST SWAP1 POP JUMPDEST SWAP3 SWAP2 POP POP JUMP JUMPDEST PUSH1 0x0 PUSH2 0x1FC9 DUP3 DUP5 PUSH2 0x2262 JUMP JUMPDEST PUSH1 0x0 PUSH2 0x1FC9 DUP3 DUP5 PUSH2 0x23F0 JUMP JUMPDEST PUSH1 0x0 PUSH2 0x1FC9 DUP3 DUP5 PUSH2 0x2276 JUMP JUMPDEST PUSH1 0x0 PUSH1 0x20 DUP3 DUP5 SUB SLT ISZERO PUSH2 0x2008 JUMPI PUSH1 0x0 DUP1 REVERT JUMPDEST POP CALLDATALOAD SWAP2 SWAP1 POP JUMP JUMPDEST DUP1 CALLDATALOAD PUSH1 0x1 PUSH1 0x1 PUSH1 0xA0 SHL SUB DUP2 AND DUP2 EQ PUSH2 0x2026 JUMPI PUSH1 0x0 DUP1 REVERT JUMPDEST SWAP2 SWAP1 POP JUMP JUMPDEST PUSH1 0x0 PUSH1 0x20 DUP3 DUP5 SUB SLT ISZERO PUSH2 0x203D JUMPI PUSH1 0x0 DUP1 REVERT JUMPDEST PUSH2 0x1FC9 DUP3 PUSH2 0x200F JUMP JUMPDEST PUSH1 0x0 DUP2 MLOAD DUP1 DUP5 MSTORE PUSH1 0x0 JUMPDEST DUP2 DUP2 LT ISZERO PUSH2 0x206C JUMPI PUSH1 0x20 DUP2 DUP6 ADD DUP2 ADD MLOAD DUP7 DUP4 ADD DUP3 ADD MSTORE ADD PUSH2 0x2050 JUMP JUMPDEST POP PUSH1 0x0 PUSH1 0x20 DUP3 DUP7 ADD ADD MSTORE PUSH1 0x20 PUSH1 0x1F NOT PUSH1 0x1F DUP4 ADD AND DUP6 ADD ADD SWAP2 POP POP SWAP3 SWAP2 POP POP JUMP JUMPDEST DUP7 DUP2 MSTORE PUSH1 0xC0 PUSH1 0x20 DUP3 ADD MSTORE PUSH1 0x0 PUSH2 0x20A5 PUSH1 0xC0 DUP4 ADD DUP9 PUSH2 0x2046 JUMP JUMPDEST SWAP1 POP DUP6 PUSH1 0x40 DUP4 ADD MSTORE DUP5 PUSH1 0x60 DUP4 ADD MSTORE DUP4 PUSH1 0x80 DUP4 ADD MSTORE DUP3 PUSH1 0xA0 DUP4 ADD MSTORE SWAP8 SWAP7 POP POP POP POP POP POP POP JUMP JUMPDEST PUSH1 0x0 DUP1 PUSH1 0x40 DUP4 DUP6 SUB SLT ISZERO PUSH2 0x20DD JUMPI PUSH1 0x0 DUP1 REVERT JUMPDEST DUP3 CALLDATALOAD SWAP2 POP PUSH2 0x20ED PUSH1 0x20 DUP5 ADD PUSH2 0x200F JUMP JUMPDEST SWAP1 POP SWAP3 POP SWAP3 SWAP1 POP JUMP JUMPDEST PUSH4 0x4E487B71 PUSH1 0xE0 SHL PUSH1 0x0 MSTORE PUSH1 0x41 PUSH1 0x4 MSTORE PUSH1 0x24 PUSH1 0x0 REVERT JUMPDEST PUSH1 0x0 DUP1 PUSH1 0x40 DUP4 DUP6 SUB SLT ISZERO PUSH2 0x211F JUMPI PUSH1 0x0 DUP1 REVERT JUMPDEST DUP3 CALLDATALOAD SWAP2 POP PUSH1 0x20 DUP4 ADD CALLDATALOAD PUSH8 0xFFFFFFFFFFFFFFFF DUP1 DUP3 GT ISZERO PUSH2 0x213E JUMPI PUSH1 0x0 DUP1 REVERT JUMPDEST DUP2 DUP6 ADD SWAP2 POP DUP6 PUSH1 0x1F DUP4 ADD SLT PUSH2 0x2152 JUMPI PUSH1 0x0 DUP1 REVERT JUMPDEST DUP2 CALLDATALOAD DUP2 DUP2 GT ISZERO PUSH2 0x2164 JUMPI PUSH2 0x2164 PUSH2 0x20F6 JUMP JUMPDEST PUSH1 0x40 MLOAD PUSH1 0x1F DUP3 ADD PUSH1 0x1F NOT SWAP1 DUP2 AND PUSH1 0x3F ADD AND DUP2 ADD SWAP1 DUP4 DUP3 GT DUP2 DUP4 LT OR ISZERO PUSH2 0x218C JUMPI PUSH2 0x218C PUSH2 0x20F6 JUMP JUMPDEST DUP2 PUSH1 0x40 MSTORE DUP3 DUP2 MSTORE DUP9 PUSH1 0x20 DUP5 DUP8 ADD ADD GT ISZERO PUSH2 0x21A5 JUMPI PUSH1 0x0 DUP1 REVERT JUMPDEST DUP3 PUSH1 0x20 DUP7 ADD PUSH1 0x20 DUP4 ADD CALLDATACOPY PUSH1 0x0 PUSH1 0x20 DUP5 DUP4 ADD ADD MSTORE DUP1 SWAP6 POP POP POP POP POP POP SWAP3 POP SWAP3 SWAP1 POP JUMP JUMPDEST PUSH1 0x20 DUP2 MSTORE PUSH1 0x0 PUSH2 0x1FC9 PUSH1 0x20 DUP4 ADD DUP5 PUSH2 0x2046 JUMP JUMPDEST PUSH1 0x0 DUP1 PUSH1 0x0 DUP1 PUSH1 0x0 DUP1 PUSH1 0xC0 DUP8 DUP10 SUB SLT ISZERO PUSH2 0x21F3 JUMPI PUSH1 0x0 DUP1 REVERT JUMPDEST POP POP DUP5 CALLDATALOAD SWAP7 PUSH1 0x20 DUP7 ADD CALLDATALOAD SWAP7 POP PUSH1 0x40 DUP7 ADD CALLDATALOAD SWAP6 PUSH1 0x60 DUP2 ADD CALLDATALOAD SWAP6 POP PUSH1 0x80 DUP2 ADD CALLDATALOAD SWAP5 POP PUSH1 0xA0 ADD CALLDATALOAD SWAP3 POP SWAP1 POP JUMP JUMPDEST PUSH1 0x0 PUSH1 0x20 DUP3 DUP5 SUB SLT ISZERO PUSH2 0x222F JUMPI PUSH1 0x0 DUP1 REVERT JUMPDEST POP MLOAD SWAP2 SWAP1 POP JUMP JUMPDEST PUSH4 0x4E487B71 PUSH1 0xE0 SHL PUSH1 0x0 MSTORE PUSH1 0x12 PUSH1 0x4 MSTORE PUSH1 0x24 PUSH1 0x0 REVERT JUMPDEST PUSH4 0x4E487B71 PUSH1 0xE0 SHL PUSH1 0x0 MSTORE PUSH1 0x11 PUSH1 0x4 MSTORE PUSH1 0x24 PUSH1 0x0 REVERT JUMPDEST PUSH1 0x0 DUP3 PUSH2 0x2271 JUMPI PUSH2 0x2271 PUSH2 0x2236 JUMP JUMPDEST POP DIV SWAP1 JUMP JUMPDEST DUP1 DUP3 ADD DUP1 DUP3 GT ISZERO PUSH2 0x1FCC JUMPI PUSH2 0x1FCC PUSH2 0x224C JUMP JUMPDEST PUSH4 0x4E487B71 PUSH1 0xE0 SHL PUSH1 0x0 MSTORE PUSH1 0x32 PUSH1 0x4 MSTORE PUSH1 0x24 PUSH1 0x0 REVERT JUMPDEST PUSH1 0x1 DUP2 DUP2 SHR SWAP1 DUP3 AND DUP1 PUSH2 0x22B3 JUMPI PUSH1 0x7F DUP3 AND SWAP2 POP JUMPDEST PUSH1 0x20 DUP3 LT DUP2 SUB PUSH2 0x22D3 JUMPI PUSH4 0x4E487B71 PUSH1 0xE0 SHL PUSH1 0x0 MSTORE PUSH1 0x22 PUSH1 0x4 MSTORE PUSH1 0x24 PUSH1 0x0 REVERT JUMPDEST POP SWAP2 SWAP1 POP JUMP JUMPDEST PUSH1 0x0 DUP2 SLOAD PUSH2 0x22E6 DUP2 PUSH2 0x229F JUMP JUMPDEST DUP1 DUP6 MSTORE PUSH1 0x20 PUSH1 0x1 DUP4 DUP2 AND DUP1 ISZERO PUSH2 0x2303 JUMPI PUSH1 0x1 DUP2 EQ PUSH2 0x231D JUMPI PUSH2 0x234B JUMP JUMPDEST PUSH1 0xFF NOT DUP6 AND DUP9 DUP5 ADD MSTORE DUP4 ISZERO ISZERO PUSH1 0x5 SHL DUP9 ADD DUP4 ADD SWAP6 POP PUSH2 0x234B JUMP JUMPDEST DUP7 PUSH1 0x0 MSTORE DUP3 PUSH1 0x0 KECCAK256 PUSH1 0x0 JUMPDEST DUP6 DUP2 LT ISZERO PUSH2 0x2343 JUMPI DUP2 SLOAD DUP11 DUP3 ADD DUP7 ADD MSTORE SWAP1 DUP4 ADD SWAP1 DUP5 ADD PUSH2 0x2328 JUMP JUMPDEST DUP10 ADD DUP5 ADD SWAP7 POP POP JUMPDEST POP POP POP POP POP SWAP3 SWAP2 POP POP JUMP JUMPDEST PUSH1 0x1 PUSH1 0x1 PUSH1 0xA0 SHL SUB DUP5 AND DUP2 MSTORE PUSH1 0x60 PUSH1 0x20 DUP3 ADD DUP2 SWAP1 MSTORE PUSH1 0x0 SWAP1 PUSH2 0x237A SWAP1 DUP4 ADD DUP6 PUSH2 0x22D9 JUMP JUMPDEST SWAP1 POP DUP3 PUSH1 0x40 DUP4 ADD MSTORE SWAP5 SWAP4 POP POP POP POP JUMP JUMPDEST PUSH1 0x20 DUP1 DUP3 MSTORE PUSH1 0x1D SWAP1 DUP3 ADD MSTORE PUSH32 0x5468652067616D6520686173206E6F742073746172746564207965742E000000 PUSH1 0x40 DUP3 ADD MSTORE PUSH1 0x60 ADD SWAP1 JUMP JUMPDEST PUSH1 0x20 DUP1 DUP3 MSTORE PUSH1 0x15 SWAP1 DUP3 ADD MSTORE PUSH21 0x2A3434B9903AB9B2B91034B99034B7103530B4B617 PUSH1 0x59 SHL PUSH1 0x40 DUP3 ADD MSTORE PUSH1 0x60 ADD SWAP1 JUMP JUMPDEST DUP2 DUP2 SUB DUP2 DUP2 GT ISZERO PUSH2 0x1FCC JUMPI PUSH2 0x1FCC PUSH2 0x224C JUMP JUMPDEST PUSH1 0x0 DUP3 PUSH2 0x2412 JUMPI PUSH2 0x2412 PUSH2 0x2236 JUMP JUMPDEST POP MOD SWAP1 JUMP JUMPDEST PUSH1 0x0 PUSH1 0x1 DUP3 ADD PUSH2 0x2429 JUMPI PUSH2 0x2429 PUSH2 0x224C JUMP JUMPDEST POP PUSH1 0x1 ADD SWAP1 JUMP JUMPDEST PUSH1 0x20 DUP1 DUP3 MSTORE PUSH1 0x2B SWAP1 DUP3 ADD MSTORE PUSH32 0x4F6E6C7920746865206361707461696E206F72206669727374206D6174652063 PUSH1 0x40 DUP3 ADD MSTORE PUSH11 0x30B7103237903A3434B997 PUSH1 0xA9 SHL PUSH1 0x60 DUP3 ADD MSTORE PUSH1 0x80 ADD SWAP1 JUMP JUMPDEST PUSH1 0x1 PUSH1 0x1 PUSH1 0xA0 SHL SUB DUP4 AND DUP2 MSTORE PUSH1 0x40 PUSH1 0x20 DUP3 ADD DUP2 SWAP1 MSTORE PUSH1 0x0 SWAP1 PUSH2 0x249F SWAP1 DUP4 ADD DUP5 PUSH2 0x22D9 JUMP JUMPDEST SWAP5 SWAP4 POP POP POP POP JUMP JUMPDEST DUP1 DUP3 MUL DUP2 ISZERO DUP3 DUP3 DIV DUP5 EQ OR PUSH2 0x1FCC JUMPI PUSH2 0x1FCC PUSH2 0x224C JUMP JUMPDEST PUSH1 0x1F DUP3 GT ISZERO PUSH2 0x1C7C JUMPI PUSH1 0x0 DUP2 DUP2 MSTORE PUSH1 0x20 DUP2 KECCAK256 PUSH1 0x1F DUP6 ADD PUSH1 0x5 SHR DUP2 ADD PUSH1 0x20 DUP7 LT ISZERO PUSH2 0x24E5 JUMPI POP DUP1 JUMPDEST PUSH1 0x1F DUP6 ADD PUSH1 0x5 SHR DUP3 ADD SWAP2 POP JUMPDEST DUP2 DUP2 LT ISZERO PUSH2 0x1FB5 JUMPI DUP3 DUP2 SSTORE PUSH1 0x1 ADD PUSH2 0x24F1 JUMP JUMPDEST DUP2 DUP2 SUB PUSH2 0x250F JUMPI POP POP JUMP JUMPDEST PUSH2 0x2519 DUP3 SLOAD PUSH2 0x229F JUMP JUMPDEST PUSH8 0xFFFFFFFFFFFFFFFF DUP2 GT ISZERO PUSH2 0x2531 JUMPI PUSH2 0x2531 PUSH2 0x20F6 JUMP JUMPDEST PUSH2 0x2545 DUP2 PUSH2 0x253F DUP5 SLOAD PUSH2 0x229F JUMP JUMPDEST DUP5 PUSH2 0x24BE JUMP JUMPDEST PUSH1 0x0 PUSH1 0x1F DUP3 GT PUSH1 0x1 DUP2 EQ PUSH2 0x2579 JUMPI PUSH1 0x0 DUP4 ISZERO PUSH2 0x2561 JUMPI POP DUP5 DUP3 ADD SLOAD JUMPDEST PUSH1 0x0 NOT PUSH1 0x3 DUP6 SWAP1 SHL SHR NOT AND PUSH1 0x1 DUP5 SWAP1 SHL OR DUP5 SSTORE PUSH2 0x25DE JUMP JUMPDEST PUSH1 0x0 DUP6 DUP2 MSTORE PUSH1 0x20 SWAP1 KECCAK256 PUSH1 0x1F NOT DUP5 AND SWAP1 PUSH1 0x0 DUP7 DUP2 MSTORE PUSH1 0x20 SWAP1 KECCAK256 DUP5 JUMPDEST DUP4 DUP2 LT ISZERO PUSH2 0x25B3 JUMPI DUP3 DUP7 ADD SLOAD DUP3 SSTORE PUSH1 0x1 SWAP6 DUP7 ADD SWAP6 SWAP1 SWAP2 ADD SWAP1 PUSH1 0x20 ADD PUSH2 0x2593 JUMP JUMPDEST POP DUP6 DUP4 LT ISZERO PUSH2 0x25D1 JUMPI DUP2 DUP6 ADD SLOAD PUSH1 0x0 NOT PUSH1 0x3 DUP9 SWAP1 SHL PUSH1 0xF8 AND SHR NOT AND DUP2 SSTORE JUMPDEST POP POP POP PUSH1 0x1 DUP4 PUSH1 0x1 SHL ADD DUP5 SSTORE JUMPDEST POP POP POP POP POP JUMP JUMPDEST PUSH1 0x1 PUSH1 0x1 PUSH1 0xA0 SHL SUB DUP6 AND DUP2 MSTORE PUSH1 0x80 PUSH1 0x20 DUP3 ADD DUP2 SWAP1 MSTORE PUSH1 0x0 SWAP1 PUSH2 0x2609 SWAP1 DUP4 ADD DUP7 PUSH2 0x22D9 JUMP JUMPDEST DUP3 DUP2 SUB PUSH1 0x40 DUP5 ADD MSTORE PUSH2 0x261B DUP2 DUP7 PUSH2 0x22D9 JUMP JUMPDEST SWAP2 POP POP DUP3 ISZERO ISZERO PUSH1 0x60 DUP4 ADD MSTORE SWAP6 SWAP5 POP POP POP POP POP JUMP JUMPDEST DUP2 MLOAD PUSH8 0xFFFFFFFFFFFFFFFF DUP2 GT ISZERO PUSH2 0x2649 JUMPI PUSH2 0x2649 PUSH2 0x20F6 JUMP JUMPDEST PUSH2 0x2657 DUP2 PUSH2 0x253F DUP5 SLOAD PUSH2 0x229F JUMP JUMPDEST PUSH1 0x20 DUP1 PUSH1 0x1F DUP4 GT PUSH1 0x1 DUP2 EQ PUSH2 0x268C JUMPI PUSH1 0x0 DUP5 ISZERO PUSH2 0x2674 JUMPI POP DUP6 DUP4 ADD MLOAD JUMPDEST PUSH1 0x0 NOT PUSH1 0x3 DUP7 SWAP1 SHL SHR NOT AND PUSH1 0x1 DUP6 SWAP1 SHL OR DUP6 SSTORE PUSH2 0x1FB5 JUMP JUMPDEST PUSH1 0x0 DUP6 DUP2 MSTORE PUSH1 0x20 DUP2 KECCAK256 PUSH1 0x1F NOT DUP7 AND SWAP2 JUMPDEST DUP3 DUP2 LT ISZERO PUSH2 0x26BB JUMPI DUP9 DUP7 ADD MLOAD DUP3 SSTORE SWAP5 DUP5 ADD SWAP5 PUSH1 0x1 SWAP1 SWAP2 ADD SWAP1 DUP5 ADD PUSH2 0x269C JUMP JUMPDEST POP DUP6 DUP3 LT ISZERO PUSH2 0x26D9 JUMPI DUP8 DUP6 ADD MLOAD PUSH1 0x0 NOT PUSH1 0x3 DUP9 SWAP1 SHL PUSH1 0xF8 AND SHR NOT AND DUP2 SSTORE JUMPDEST POP POP POP POP POP PUSH1 0x1 SWAP1 DUP2 SHL ADD SWAP1 SSTORE POP JUMP JUMPDEST PUSH1 0x40 DUP2 MSTORE PUSH1 0x0 PUSH2 0x26FC PUSH1 0x40 DUP4 ADD DUP6 PUSH2 0x22D9 JUMP JUMPDEST SWAP1 POP PUSH1 0x1 DUP1 PUSH1 0xA0 SHL SUB DUP4 AND PUSH1 0x20 DUP4 ADD MSTORE SWAP4 SWAP3 POP POP POP JUMP INVALID LOG2 PUSH5 0x6970667358 0x22 SLT KECCAK256 0xEF MUL RETURNDATASIZE SWAP9 SDIV DUP13 CREATE MULMOD 0xA6 PUSH1 0x6A POP 0xDC CODECOPY 0xF DUP1 POP 0xC7 0xF7 0xEA 0xD7 0xC0 PUSH32 0x5F08D29506FD8C344364736F6C63430008110033000000000000000000000000 ",
  "sha1": "f4b13ea2c3d0863f1107ae4a6fbc3983cdee001a",
  "source": "pragma solidity ^0.8.0;\n\nimport \"@openzeppelin/contracts/utils/math/SafeMath.sol\";\nimport \"@openzeppelin/contracts/token/ERC20/IERC20.sol\";\nusing SafeMath for uint256;\n\ncontract PirateRace {\n    struct Team {\n        uint256 totalMoney;\n        string teamName;\n        uint256 speed;\n        uint256 distance;\n        uint256 defense;\n        uint256 attack;\n    }\n\n    struct Contribution {\n        uint256 money;\n        uint256 actions;\n    }\n\n    address public owner;\n    string public winner= \"\";\n    uint256 public finishLine = 1e6;\n    bool gameStarted = false;\n    IERC20 public Qi = IERC20(0x580A84C73811E1839F75d86d75d88cCa0c241fF4);\n    IERC20 public eQi = IERC20(0x880DeCADe22aD9c58A8A4202EF143c4F305100B3);\n    uint256 public a;\n    uint256 public b;\n    uint256 public c;\n    uint256 private lastUpdated;\n    Team[] public teams;\n\n    mapping (address => uint256) public userToTeam;\n    mapping (address => bool) public jail;\n    mapping (address => Contribution) public userScore;\n    mapping (uint256 => address) public captain;\n    mapping (uint256 => address) public firstMate;\n\n    constructor() public {\n        owner = msg.sender;\n        teams.push(Team({totalMoney: 0, teamName:\"team0\", speed:0, distance:0, defense:0, attack:0}));\n        teams.push(Team({totalMoney: 0, teamName:\"team1\", speed:0, distance:0, defense:0, attack:0}));\n        teams.push(Team({totalMoney: 0, teamName:\"team2\", speed:0, distance:0, defense:0, attack:0}));\n        teams.push(Team({totalMoney: 0, teamName:\"team3\", speed:0, distance:0, defense:0, attack:0}));\n        lastUpdated = block.timestamp;\n    }\n\n    // owner functions\n    function startRace() public {\n        require(msg.sender == owner, \"Only the owner can start the race.\");\n        require(!gameStarted, \"Game already started.\");\n        gameStarted = true;\n        for (uint256 i = 0; i < teams.length; i++) {\n            teams[i].speed = 1;\n        }\n        lastUpdated = block.timestamp;\n    }\n\n    function nameTeam(uint256 teamId, string memory teamName) public {\n        require(msg.sender == owner, \"Only the owner can name the teams.\");\n        teams[teamId].teamName = teamName;\n    }\n\n    function changeSettings(uint256 _teamId, uint256 _money, uint256 _speed, uint256 _distance, uint256 _defense, uint256 _attack) public {\n        require(msg.sender == owner, \"Only owner.\");\n        if (_money != 0)    teams[_teamId].totalMoney = _money;\n        if (_speed != 0)    teams[_teamId].speed = _speed;\n        if (_distance != 0) teams[_teamId].distance = _distance;\n        if (_defense != 0)  teams[_teamId].defense = _defense;\n        if (_attack != 0)   teams[_teamId].attack = _attack;\n    }\n\n    // player functions\n    function join(uint256 teamId) public {\n        require(teamId >= 0 && teamId < teams.length, \"Invalid team ID.\");\n        uint256 money = Qi.balanceOf(msg.sender)/1e18 + eQi.balanceOf(msg.sender)/1e18;\n        require(money >= 100, \"Requires at least 100 Qi + eQi to play.\");\n\n        teams[teamId].totalMoney += money;\n        userToTeam[msg.sender] = teamId;\n        userScore[msg.sender].money = money;\n        emit TeamJoin(msg.sender, teams[teamId].teamName, money);\n    }\n\n    function pickCaptain(uint256 teamId, address user) public {\n        require(msg.sender == owner, \"Only the owner can pick captains.\");\n        captain[userToTeam[user]] = user;\n    }\n\n    function pickFirstMate(address user) public isCaptain{\n        require(userToTeam[msg.sender] == userToTeam[user], \"First mate must be on your team.\");\n        firstMate[userToTeam[user]] = user;\n        emit FirstMate (teams[userToTeam[msg.sender]].teamName, user);\n    }\n\n    // update the distance for each team\n    function updateDistance() public isGameStarted {\n        for (uint256 i = 0; i < teams.length; i++) {\n            uint256 timePassed = block.timestamp - lastUpdated;\n            teams[i].distance += teams[i].speed * timePassed;\n            if (teams[i].distance >= finishLine && bytes(winner).length == 0) {\n                winner = teams[i].teamName;\n            }\n        }\n        lastUpdated = block.timestamp;\n        emit DistanceUpdated(teams[0].distance, teams[1].distance, teams[2].distance, teams[3].distance);\n    }\n\n    function upgradeEngine() public isGameStarted notInJail {\n        uint256 teamId = userToTeam[msg.sender];\n        require(teams[teamId].totalMoney >= 1, \"Not enough money to upgrade engine.\");\n        teams[teamId].totalMoney = teams[teamId].totalMoney.sub(1);\n        teams[teamId].speed = teams[teamId].speed.add(1);\n        userScore[msg.sender].actions += userScore[msg.sender].actions.add(1);\n        updateDistance();\n        emit EngineUpgraded(msg.sender, teams[teamId].teamName);\n    }\n\n    function upgradeDefense() public isGameStarted notInJail {\n        uint256 teamId = userToTeam[msg.sender];\n        require(teams[teamId].totalMoney >= 1, \"Not enough money to upgrade defense.\");\n        teams[teamId].totalMoney = teams[teamId].totalMoney.sub(1);\n        teams[teamId].defense = teams[teamId].defense.add(1);\n        userScore[msg.sender].actions += userScore[msg.sender].actions.add(1);\n        updateDistance();\n        emit DefenseUpgraded(msg.sender, teams[teamId].teamName);\n    }\n\n    function upgradeAttack() public isGameStarted notInJail {\n        uint256 teamId = userToTeam[msg.sender];\n        require(teams[teamId].totalMoney >= 1, \"Not enough money to upgrade attack.\");\n        teams[teamId].totalMoney = teams[teamId].totalMoney.sub(1);\n        teams[teamId].attack = teams[teamId].attack.add(1);\n        userScore[msg.sender].actions += userScore[msg.sender].actions.add(1);\n        updateDistance();\n        emit AttackUpgraded(msg.sender, teams[teamId].teamName);\n    }\n\n    function fireCannon(uint256 targetTeam) public isGameStarted notInJail {\n        require(targetTeam < teams.length, \"Invalid target team.\");\n        require(targetTeam != userToTeam[msg.sender], \"Cannot fire at own team.\");\n        uint256 teamId = userToTeam[msg.sender];\n        bool hit = false;\n        uint256 hitChance = 33; \n        if(hitChance + teams[teamId].attack < teams[targetTeam].defense) hitChance = 1; //overflow, min chance, 1% hitrate\n        else hitChance = 33 + teams[teamId].attack - teams[targetTeam].defense; //default chance 33% + att - def\n        if(hitChance > 99) hitChance = 99; //max hitrate, 99%\n        \n        uint256 random = uint256(keccak256(abi.encodePacked(block.timestamp, msg.sender))) % 100;\n        a = random;\n        if (random < hitChance) {\n            teams[targetTeam].distance = teams[targetTeam].distance.mul(98).div(100); //2% distance loss\n            if (teams[targetTeam].speed > 3) teams[targetTeam].speed = teams[targetTeam].speed.sub(2); //2 speed loss\n            hit = true;\n        }\n        userScore[msg.sender].actions += userScore[msg.sender].actions.add(1);\n        updateDistance();\n        emit CannonFired(msg.sender, teams[teamId].teamName, teams[targetTeam].teamName, hit);\n    }\n\n    function buyMysteryBox() public isGameStarted notInJail {\n        uint256 teamId = userToTeam[msg.sender];\n        require(teams[teamId].totalMoney >= 5, \"Not enough money to buy a mystery box.\");\n        teams[teamId].totalMoney -= 5;\n        uint256 result = 0;\n        uint256 randomNum = uint256(keccak256(abi.encodePacked(block.timestamp, msg.sender))) % 100;\n        if (randomNum < 5) {\n            // nothing happens\n        } else if (randomNum < 6) { // more money\n            teams[teamId].totalMoney += 200;\n            result = 1;\n        } else if (randomNum < 8) { // ship upgrades\n            teams[teamId].speed += 2;\n            teams[teamId].defense += 2;\n            teams[teamId].attack += 2;\n            result = 2;\n        } else { // kraken attakcked everybody!\n            for (uint256 i = 0; i < teams.length; i++)\n                teams[i].distance = teams[i].distance.mul(90).div(100); //10% distance loss\n            result = 3;\n        }\n        updateDistance();\n        emit MysteryBox(msg.sender, teams[teamId].teamName, result);\n    }\n\n    function putInJail(address user) public isCaptainOrFirstMate {\n        require(userToTeam[msg.sender] == userToTeam[user], \"Cannot put someone on another team in jail.\");\n        jail[user] = true;\n        emit InJail(user, teams[userToTeam[user]].teamName);\n    }\n\n    function takeOutOfJail(address user) public isCaptainOrFirstMate {\n        require(userToTeam[msg.sender] == userToTeam[user], \"Cannot take someone on another team out of jail.\");\n        jail[user] = false;\n        emit OutofJail(user, teams[userToTeam[user]].teamName);\n    }\n\n    modifier isGameStarted() {\n        require(gameStarted, \"The game has not started yet.\");\n        _;\n    }\n\n    modifier isCaptain() {\n        require(captain[userToTeam[msg.sender]] == msg.sender, \"Only the captain can do this.\");\n        _;\n    }\n\n    modifier isCaptainOrFirstMate() {\n        require(captain[userToTeam[msg.sender]] == msg.sender || firstMate[userToTeam[msg.sender]] == msg.sender, \"Only the captain or first mate can do this.\");\n        _;\n    }\n\n    modifier notInJail() {\n        require(!jail[msg.sender], \"This user is in jail.\");\n        _;\n    }\n\n    event TeamJoin(address user, string teamName, uint256 money);\n    event DistanceUpdated(uint256 team0, uint256 team1, uint256 team2, uint256 team3);\n    event EngineUpgraded(address user, string teamName);\n    event DefenseUpgraded(address user, string teamName);\n    event AttackUpgraded(address user, string teamName);\n    event CannonFired(address user, string shooter, string target, bool hit);\n    event InJail(address user, string teamName);    \n    event OutofJail(address user, string teamName);\n    event MysteryBox(address user, string teamName, uint256 result);\n    event FirstMate (string teamName, address user);\n\n}\n\n\n",
  "sourcePath": "contracts/race.sol",
  "type": "contract"
}