{
  "abi": [
    {
      "inputs": [],
      "stateMutability": "nonpayable",
      "type": "constructor"
    },
    {
      "anonymous": false,
      "inputs": [
        {
          "indexed": false,
          "internalType": "address",
          "name": "user",
          "type": "address"
        },
        {
          "indexed": false,
          "internalType": "string",
          "name": "teamName",
          "type": "string"
        }
      ],
      "name": "AttackUpgraded",
      "type": "event"
    },
    {
      "anonymous": false,
      "inputs": [
        {
          "indexed": false,
          "internalType": "address",
          "name": "user",
          "type": "address"
        },
        {
          "indexed": false,
          "internalType": "string",
          "name": "shooter",
          "type": "string"
        },
        {
          "indexed": false,
          "internalType": "string",
          "name": "target",
          "type": "string"
        },
        {
          "indexed": false,
          "internalType": "bool",
          "name": "hit",
          "type": "bool"
        }
      ],
      "name": "CannonFired",
      "type": "event"
    },
    {
      "anonymous": false,
      "inputs": [
        {
          "indexed": false,
          "internalType": "address",
          "name": "user",
          "type": "address"
        },
        {
          "indexed": false,
          "internalType": "string",
          "name": "teamName",
          "type": "string"
        }
      ],
      "name": "DefenseUpgraded",
      "type": "event"
    },
    {
      "anonymous": false,
      "inputs": [
        {
          "indexed": false,
          "internalType": "uint256",
          "name": "team0",
          "type": "uint256"
        },
        {
          "indexed": false,
          "internalType": "uint256",
          "name": "team1",
          "type": "uint256"
        },
        {
          "indexed": false,
          "internalType": "uint256",
          "name": "team2",
          "type": "uint256"
        },
        {
          "indexed": false,
          "internalType": "uint256",
          "name": "team3",
          "type": "uint256"
        }
      ],
      "name": "DistanceUpdated",
      "type": "event"
    },
    {
      "anonymous": false,
      "inputs": [
        {
          "indexed": false,
          "internalType": "address",
          "name": "user",
          "type": "address"
        },
        {
          "indexed": false,
          "internalType": "string",
          "name": "teamName",
          "type": "string"
        }
      ],
      "name": "EngineUpgraded",
      "type": "event"
    },
    {
      "anonymous": false,
      "inputs": [
        {
          "indexed": false,
          "internalType": "string",
          "name": "teamName",
          "type": "string"
        },
        {
          "indexed": false,
          "internalType": "address",
          "name": "user",
          "type": "address"
        }
      ],
      "name": "FirstMate",
      "type": "event"
    },
    {
      "anonymous": false,
      "inputs": [
        {
          "indexed": false,
          "internalType": "address",
          "name": "user",
          "type": "address"
        },
        {
          "indexed": false,
          "internalType": "string",
          "name": "teamName",
          "type": "string"
        }
      ],
      "name": "InJail",
      "type": "event"
    },
    {
      "anonymous": false,
      "inputs": [
        {
          "indexed": false,
          "internalType": "address",
          "name": "user",
          "type": "address"
        },
        {
          "indexed": false,
          "internalType": "string",
          "name": "teamName",
          "type": "string"
        },
        {
          "indexed": false,
          "internalType": "uint256",
          "name": "result",
          "type": "uint256"
        }
      ],
      "name": "MysteryBox",
      "type": "event"
    },
    {
      "anonymous": false,
      "inputs": [
        {
          "indexed": false,
          "internalType": "address",
          "name": "user",
          "type": "address"
        },
        {
          "indexed": false,
          "internalType": "string",
          "name": "teamName",
          "type": "string"
        }
      ],
      "name": "OutofJail",
      "type": "event"
    },
    {
      "anonymous": false,
      "inputs": [
        {
          "indexed": false,
          "internalType": "address",
          "name": "user",
          "type": "address"
        },
        {
          "indexed": false,
          "internalType": "string",
          "name": "teamName",
          "type": "string"
        },
        {
          "indexed": false,
          "internalType": "uint256",
          "name": "money",
          "type": "uint256"
        }
      ],
      "name": "TeamJoin",
      "type": "event"
    },
    {
      "inputs": [],
      "name": "Qi",
      "outputs": [
        {
          "internalType": "contract IERC20",
          "name": "",
          "type": "address"
        }
      ],
      "stateMutability": "view",
      "type": "function"
    },
    {
      "inputs": [],
      "name": "buyMysteryBox",
      "outputs": [],
      "stateMutability": "nonpayable",
      "type": "function"
    },
    {
      "inputs": [
        {
          "internalType": "uint256",
          "name": "",
          "type": "uint256"
        }
      ],
      "name": "captain",
      "outputs": [
        {
          "internalType": "address",
          "name": "",
          "type": "address"
        }
      ],
      "stateMutability": "view",
      "type": "function"
    },
    {
      "inputs": [
        {
          "internalType": "uint256",
          "name": "_teamId",
          "type": "uint256"
        },
        {
          "internalType": "uint256",
          "name": "_money",
          "type": "uint256"
        },
        {
          "internalType": "uint256",
          "name": "_speed",
          "type": "uint256"
        },
        {
          "internalType": "uint256",
          "name": "_distance",
          "type": "uint256"
        },
        {
          "internalType": "uint256",
          "name": "_defense",
          "type": "uint256"
        },
        {
          "internalType": "uint256",
          "name": "_attack",
          "type": "uint256"
        }
      ],
      "name": "changeSettings",
      "outputs": [],
      "stateMutability": "nonpayable",
      "type": "function"
    },
    {
      "inputs": [
        {
          "internalType": "address",
          "name": "user",
          "type": "address"
        }
      ],
      "name": "checkForgedPapers",
      "outputs": [],
      "stateMutability": "nonpayable",
      "type": "function"
    },
    {
      "inputs": [],
      "name": "eQi",
      "outputs": [
        {
          "internalType": "contract IERC20",
          "name": "",
          "type": "address"
        }
      ],
      "stateMutability": "view",
      "type": "function"
    },
    {
      "inputs": [],
      "name": "finishLine",
      "outputs": [
        {
          "internalType": "uint256",
          "name": "",
          "type": "uint256"
        }
      ],
      "stateMutability": "view",
      "type": "function"
    },
    {
      "inputs": [
        {
          "internalType": "uint256",
          "name": "targetTeam",
          "type": "uint256"
        }
      ],
      "name": "fireCannon",
      "outputs": [],
      "stateMutability": "nonpayable",
      "type": "function"
    },
    {
      "inputs": [
        {
          "internalType": "uint256",
          "name": "",
          "type": "uint256"
        }
      ],
      "name": "firstMate",
      "outputs": [
        {
          "internalType": "address",
          "name": "",
          "type": "address"
        }
      ],
      "stateMutability": "view",
      "type": "function"
    },
    {
      "inputs": [
        {
          "internalType": "address",
          "name": "",
          "type": "address"
        }
      ],
      "name": "jail",
      "outputs": [
        {
          "internalType": "bool",
          "name": "",
          "type": "bool"
        }
      ],
      "stateMutability": "view",
      "type": "function"
    },
    {
      "inputs": [
        {
          "internalType": "uint256",
          "name": "teamId",
          "type": "uint256"
        }
      ],
      "name": "join",
      "outputs": [],
      "stateMutability": "nonpayable",
      "type": "function"
    },
    {
      "inputs": [
        {
          "internalType": "uint256",
          "name": "teamId",
          "type": "uint256"
        },
        {
          "internalType": "string",
          "name": "teamName",
          "type": "string"
        }
      ],
      "name": "nameTeam",
      "outputs": [],
      "stateMutability": "nonpayable",
      "type": "function"
    },
    {
      "inputs": [],
      "name": "owner",
      "outputs": [
        {
          "internalType": "address",
          "name": "",
          "type": "address"
        }
      ],
      "stateMutability": "view",
      "type": "function"
    },
    {
      "inputs": [
        {
          "internalType": "uint256",
          "name": "teamId",
          "type": "uint256"
        },
        {
          "internalType": "address",
          "name": "user",
          "type": "address"
        }
      ],
      "name": "pickCaptain",
      "outputs": [],
      "stateMutability": "nonpayable",
      "type": "function"
    },
    {
      "inputs": [
        {
          "internalType": "address",
          "name": "user",
          "type": "address"
        }
      ],
      "name": "pickFirstMate",
      "outputs": [],
      "stateMutability": "nonpayable",
      "type": "function"
    },
    {
      "inputs": [
        {
          "internalType": "address",
          "name": "user",
          "type": "address"
        }
      ],
      "name": "putInJail",
      "outputs": [],
      "stateMutability": "nonpayable",
      "type": "function"
    },
    {
      "inputs": [],
      "name": "startRace",
      "outputs": [],
      "stateMutability": "nonpayable",
      "type": "function"
    },
    {
      "inputs": [
        {
          "internalType": "address",
          "name": "user",
          "type": "address"
        }
      ],
      "name": "takeOutOfJail",
      "outputs": [],
      "stateMutability": "nonpayable",
      "type": "function"
    },
    {
      "inputs": [
        {
          "internalType": "uint256",
          "name": "",
          "type": "uint256"
        }
      ],
      "name": "teams",
      "outputs": [
        {
          "internalType": "uint256",
          "name": "totalMoney",
          "type": "uint256"
        },
        {
          "internalType": "string",
          "name": "teamName",
          "type": "string"
        },
        {
          "internalType": "uint256",
          "name": "speed",
          "type": "uint256"
        },
        {
          "internalType": "uint256",
          "name": "distance",
          "type": "uint256"
        },
        {
          "internalType": "uint256",
          "name": "defense",
          "type": "uint256"
        },
        {
          "internalType": "uint256",
          "name": "attack",
          "type": "uint256"
        },
        {
          "internalType": "uint256",
          "name": "numPirates",
          "type": "uint256"
        }
      ],
      "stateMutability": "view",
      "type": "function"
    },
    {
      "inputs": [],
      "name": "updateDistance",
      "outputs": [],
      "stateMutability": "nonpayable",
      "type": "function"
    },
    {
      "inputs": [],
      "name": "upgradeAttack",
      "outputs": [],
      "stateMutability": "nonpayable",
      "type": "function"
    },
    {
      "inputs": [],
      "name": "upgradeDefense",
      "outputs": [],
      "stateMutability": "nonpayable",
      "type": "function"
    },
    {
      "inputs": [],
      "name": "upgradeEngine",
      "outputs": [],
      "stateMutability": "nonpayable",
      "type": "function"
    },
    {
      "inputs": [
        {
          "internalType": "address",
          "name": "",
          "type": "address"
        }
      ],
      "name": "userScore",
      "outputs": [
        {
          "internalType": "uint256",
          "name": "money",
          "type": "uint256"
        },
        {
          "internalType": "uint256",
          "name": "actions",
          "type": "uint256"
        }
      ],
      "stateMutability": "view",
      "type": "function"
    },
    {
      "inputs": [
        {
          "internalType": "address",
          "name": "",
          "type": "address"
        }
      ],
      "name": "userToTeam",
      "outputs": [
        {
          "internalType": "uint256",
          "name": "",
          "type": "uint256"
        }
      ],
      "stateMutability": "view",
      "type": "function"
    },
    {
      "inputs": [],
      "name": "winner",
      "outputs": [
        {
          "internalType": "string",
          "name": "",
          "type": "string"
        }
      ],
      "stateMutability": "view",
      "type": "function"
    }
  ],
  "bytecode": "60a0604052600060809081526001906200001a90826200048d565b50620f42406002556003805474580a84c73811e1839f75d86d75d88cca0c241ff4006001600160a81b0319909116179055600480546001600160a01b03191673880decade22ad9c58a8a4202ef143c4f305100b31790553480156200007e57600080fd5b50600080546001600160a01b031916331781556040805160e0810182528281528151808301835260088152672a32b0b6902132b760c11b6020828101919091528201908152918101839052606081018390526080810183905260a0810183905260c081018390526006805460018101825593528051600790930260008051602062002fcd8339815191528101938455915190929160008051602062002fad83398151915201906200013090826200048d565b5060408281015160028301556060808401516003840155608080850151600485015560a080860151600586015560c095860151600695860155835160e08101855260008082528551808701875260098152685465616d204b696c6160b81b6020828101919091528301908152958201819052938101849052918201839052810182905293840181905282546001810184559290528251600790920260008051602062002fcd8339815191528101928355905160008051602062002fad833981519152909101906200020290826200048d565b5060408281015160028301556060808401516003840155608080850151600485015560a080860151600586015560c095860151600695860155835160e081018552600080825285518087018752600a8152695465616d204e6163686f60b01b6020828101919091528301908152958201819052938101849052918201839052810182905293840181905282546001810184559290528251600790920260008051602062002fcd8339815191528101928355905160008051602062002fad83398151915290910190620002d590826200048d565b5060408281015160028301556060808401516003840155608080850151600485015560a080860151600586015560c095860151600695860155835160e0810185526000808252855180870187526007808252665465616d203f3f60c81b6020838101919091528401918252968301829052948201819052928101839052908101829052948501819052835460018101855593905283519290910260008051602062002fcd8339815191528101928355905160008051602062002fad83398151915290910190620003a690826200048d565b5060408201518160020155606082015181600301556080820151816004015560a0820151816005015560c0820151816006015550504260058190555062000559565b634e487b7160e01b600052604160045260246000fd5b600181811c908216806200041357607f821691505b6020821081036200043457634e487b7160e01b600052602260045260246000fd5b50919050565b601f8211156200048857600081815260208120601f850160051c81016020861015620004635750805b601f850160051c820191505b8181101562000484578281556001016200046f565b5050505b505050565b81516001600160401b03811115620004a957620004a9620003e8565b620004c181620004ba8454620003fe565b846200043a565b602080601f831160018114620004f95760008415620004e05750858301515b600019600386901b1c1916600185901b17855562000484565b600085815260208120601f198616915b828110156200052a5788860151825594840194600190910190840162000509565b5085821015620005495787850151600019600388901b60f8161c191681555b5050505050600190811b01905550565b612a4480620005696000396000f3fe608060405234801561001057600080fd5b506004361061018e5760003560e01c80638362cecf116100de578063c01d373f11610097578063ddbceda711610071578063ddbceda7146103b0578063dfbf53ae146103c3578063e075be21146103d8578063f8200866146103eb57600080fd5b8063c01d373f14610381578063cc3590bb14610394578063d60e831c1461039d57600080fd5b80638362cecf1461030057806384d0643e146103085780638da5cb5b146103205780639bcbea5214610333578063a99bc08214610366578063adf7d47a1461036e57600080fd5b80634079761e1161014b57806358c5a1e41161012557806358c5a1e4146102af5780636ad7ed47146102dd5780636b3ee32a146102e557806381ec0f0f146102ed57600080fd5b80634079761e1461026b57806348e11e2d1461027e57806357fffd4a146102a757600080fd5b8063049878f3146101935780631b586a3b146101a85780631b6c3517146101ee5780631c7e9ed01461020157806338ee821b146102095780633ed2b77a14610245575b600080fd5b6101a66101a13660046122ec565b6103fe565b005b6101d16101b63660046122ec565b600a602052600090815260409020546001600160a01b031681565b6040516001600160a01b0390911681526020015b60405180910390f35b6101a66101fc366004612321565b6106b4565b6101a66109b5565b610230610217366004612321565b6009602052600090815260409020805460019091015482565b604080519283526020830191909152016101e5565b6102586102533660046122ec565b610d71565b6040516101e59796959493929190612382565b6101a6610279366004612321565b610e47565b6101d161028c3660046122ec565b600b602052600090815260409020546001600160a01b031681565b6101a6610fca565b6102cf6102bd366004612321565b60076020526000908152604090205481565b6040519081526020016101e5565b6101a66111e3565b6101a66112ef565b6101a66102fb3660046123c5565b61150e565b6101a66115aa565b6003546101d19061010090046001600160a01b031681565b6000546101d1906001600160a01b031681565b610356610341366004612321565b60086020526000908152604090205460ff1681565b60405190151581526020016101e5565b6101a66117ac565b6101a661037c3660046122ec565b6119ae565b6101a661038f366004612321565b611d85565b6102cf60025481565b6101a66103ab366004612407565b611edc565b6101a66103be366004612321565b611f77565b6103cb6120e9565b6040516101e591906124c2565b6101a66103e63660046124d5565b612177565b6004546101d1906001600160a01b031681565b60065481106104475760405162461bcd60e51b815260206004820152601060248201526f24b73b30b634b2103a32b0b69024a21760811b60448201526064015b60405180910390fd5b600480546040516370a0823160e01b81523392810192909252600091670de0b6b3a7640000916001600160a01b0316906370a0823190602401602060405180830381865afa15801561049d573d6000803e3d6000fd5b505050506040513d601f19601f820116820180604052508101906104c19190612518565b6104cb919061255d565b6003546040516370a0823160e01b8152336004820152670de0b6b3a76400009161010090046001600160a01b0316906370a0823190602401602060405180830381865afa158015610520573d6000803e3d6000fd5b505050506040513d601f19601f820116820180604052508101906105449190612518565b61054e919061255d565b6105589190612571565b905060648110156105bb5760405162461bcd60e51b815260206004820152602760248201527f5265717569726573206174206c6561737420313030205169202b2065516920746044820152663790383630bc9760c91b606482015260840161043e565b80600683815481106105cf576105cf612584565b906000526020600020906007020160000160008282546105ef9190612571565b9250508190555060016006838154811061060b5761060b612584565b9060005260206000209060070201600601600082825461062b9190612571565b909155505033600081815260076020908152604080832086905560099091529020829055600680547f421f2322493a06d9f34e676ffa1c281ffb19c3e128ae5f8eee60ea3c83cdd8f69291908590811061068757610687612584565b9060005260206000209060070201600101836040516106a893929190612651565b60405180910390a15050565b6001600160a01b03811660009081526008602052604090205460ff161561070f5760405162461bcd60e51b815260206004820152600f60248201526e185b1c9958591e481a5b881a985a5b608a1b604482015260640161043e565b600480546040516370a0823160e01b81526001600160a01b0384811693820193909352600092670de0b6b3a76400009216906370a0823190602401602060405180830381865afa158015610767573d6000803e3d6000fd5b505050506040513d601f19601f8201168201806040525081019061078b9190612518565b610795919061255d565b6003546040516370a0823160e01b81526001600160a01b038581166004830152670de0b6b3a764000092610100900416906370a0823190602401602060405180830381865afa1580156107ec573d6000803e3d6000fd5b505050506040513d601f19601f820116820180604052508101906108109190612518565b61081a919061255d565b6108249190612571565b6001600160a01b038316600090815260096020818152604080842054600790925290922054929350909190600a9061085d908490612685565b610867919061255d565b8310156109af576001600160a01b0384166000908152600860205260409020805460ff1916600117905561089c826002612685565b600682815481106108af576108af612584565b9060005260206000209060070201600001541115610910576108d2826002612685565b600682815481106108e5576108e5612584565b90600052602060002090600702016000016000828254610905919061269c565b909155506109379050565b60006006828154811061092557610925612584565b60009182526020909120600790910201555b6001600160a01b038416600090815260076020526040902054600680547f3a20c27241f03f182fdea2523631cb8dbe89e8c84a05cdb19f6f804d58f8f3c792879291811061098757610987612584565b90600052602060002090600702016001016040516109a69291906126af565b60405180910390a15b50505050565b60035460ff166109d75760405162461bcd60e51b815260040161043e906126db565b3360009081526008602052604090205460ff1615610a075760405162461bcd60e51b815260040161043e90612712565b33600090815260076020526040902054600680546005919083908110610a2f57610a2f612584565b9060005260206000209060070201600001541015610a9e5760405162461bcd60e51b815260206004820152602660248201527f4e6f7420656e6f756768206d6f6e657920746f206275792061206d79737465726044820152653c903137bc1760d11b606482015260840161043e565b600560068281548110610ab357610ab3612584565b90600052602060002090600702016000016000828254610ad3919061269c565b9250508190555060008060644233604051602001610b0d92919091825260601b6bffffffffffffffffffffffff1916602082015260340190565b6040516020818303038152906040528051906020012060001c610b309190612741565b905060328110610cdb576041811015610b875760c860068481548110610b5857610b58612584565b90600052602060002090600702016000016000828254610b789190612571565b9091555060019250610cdb9050565b6055811015610c4c57600260068481548110610ba557610ba5612584565b90600052602060002090600702016002016000828254610bc59190612571565b92505081905550600260068481548110610be157610be1612584565b90600052602060002090600702016004016000828254610c019190612571565b92505081905550600260068481548110610c1d57610c1d612584565b90600052602060002090600702016005016000828254610c3d9190612571565b9091555060029250610cdb9050565b60005b600654811015610cd557610c9c6064610c96605a60068581548110610c7657610c76612584565b9060005260206000209060070201600301546122b390919063ffffffff16565b906122c8565b60068281548110610caf57610caf612584565b600091825260209091206003600790920201015580610ccd81612755565b915050610c4f565b50600391505b3360009081526009602052604081206001908101805491929091610d00908490612571565b90915550610d0e90506112ef565b7f963f55b912749794fc60e09989f975d99e32135ebdc74c70ce5ca23c86828a773360068581548110610d4357610d43612584565b906000526020600020906007020160010184604051610d6493929190612651565b60405180910390a1505050565b60068181548110610d8157600080fd5b60009182526020909120600790910201805460018201805491935090610da69061259a565b80601f0160208091040260200160405190810160405280929190818152602001828054610dd29061259a565b8015610e1f5780601f10610df457610100808354040283529160200191610e1f565b820191906000526020600020905b815481529060010190602001808311610e0257829003601f168201915b5050505050908060020154908060030154908060040154908060050154908060060154905087565b336000818152600760209081526040808320548352600a9091529020546001600160a01b03161480610e9c5750336000818152600760209081526040808320548352600b9091529020546001600160a01b0316145b610eb85760405162461bcd60e51b815260040161043e9061276e565b6001600160a01b0381166000908152600760205260408082205433835291205414610f3e5760405162461bcd60e51b815260206004820152603060248201527f43616e6e6f742074616b6520736f6d656f6e65206f6e20616e6f74686572207460448201526f32b0b69037baba1037b3103530b4b61760811b606482015260840161043e565b6001600160a01b0381166000908152600860209081526040808320805460ff191690556007909152902054600680547f7c892458d566e30087de155713d0b373ee96b70e37b90d1f057abab145b40666928492918110610fa057610fa0612584565b9060005260206000209060070201600101604051610fbf9291906126af565b60405180910390a150565b60035460ff16610fec5760405162461bcd60e51b815260040161043e906126db565b3360009081526008602052604090205460ff161561101c5760405162461bcd60e51b815260040161043e90612712565b3360009081526007602052604090205460068054600191908390811061104457611044612584565b90600052602060002090600702016000015410156110b05760405162461bcd60e51b815260206004820152602360248201527f4e6f7420656e6f756768206d6f6e657920746f207570677261646520656e676960448201526237329760e91b606482015260840161043e565b6110df6001600683815481106110c8576110c8612584565b6000918252602090912060079091020154906122d4565b600682815481106110f2576110f2612584565b90600052602060002090600702016000018190555061113f60016006838154811061111f5761111f612584565b9060005260206000209060070201600201546122e090919063ffffffff16565b6006828154811061115257611152612584565b906000526020600020906007020160020181905550600160096000336001600160a01b03166001600160a01b0316815260200190815260200160002060010160008282546111a09190612571565b909155506111ae90506112ef565b7ffdbb5b39cf560cd0a57d2342b964c7d29f734f63b301d6389a860883fccdf6973360068381548110610fa057610fa0612584565b6000546001600160a01b031633146112485760405162461bcd60e51b815260206004820152602260248201527f4f6e6c7920746865206f776e65722063616e2073746172742074686520726163604482015261329760f11b606482015260840161043e565b60035460ff16156112935760405162461bcd60e51b815260206004820152601560248201527423b0b6b29030b63932b0b23c9039ba30b93a32b21760591b604482015260640161043e565b6003805460ff1916600117905560005b6006548110156112e8576001600682815481106112c2576112c2612584565b6000918252602090912060026007909202010155806112e081612755565b9150506112a3565b5042600555565b60035460ff166113115760405162461bcd60e51b815260040161043e906126db565b60005b6006548110156114275760006005544261132e919061269c565b9050806006838154811061134457611344612584565b9060005260206000209060070201600201546113609190612685565b6006838154811061137357611373612584565b906000526020600020906007020160030160008282546113939190612571565b909155505060025460068054849081106113af576113af612584565b906000526020600020906007020160030154101580156113db5750600180546113d79061259a565b1590505b1561141457600682815481106113f3576113f3612584565b90600052602060002090600702016001016001908161141291906127ff565b505b508061141f81612755565b915050611314565b50426005819055507f24ede07b86b6e8aeea97ce363c9b62c5a79ed1b54e95d3b017d17f66c75bc1a3600660008154811061146457611464612584565b906000526020600020906007020160030154600660018154811061148a5761148a612584565b90600052602060002090600702016003015460066002815481106114b0576114b0612584565b90600052602060002090600702016003015460066003815481106114d6576114d6612584565b6000918252602091829020600360079092020101546040805195865291850193909352830152606082015260800160405180910390a1565b6000546001600160a01b031633146115725760405162461bcd60e51b815260206004820152602160248201527f4f6e6c7920746865206f776e65722063616e207069636b206361707461696e736044820152601760f91b606482015260840161043e565b6001600160a01b03166000818152600760209081526040808320548352600a909152902080546001600160a01b031916909117905550565b60035460ff166115cc5760405162461bcd60e51b815260040161043e906126db565b3360009081526008602052604090205460ff16156115fc5760405162461bcd60e51b815260040161043e90612712565b3360009081526007602052604090205460068054600191908390811061162457611624612584565b90600052602060002090600702016000015410156116905760405162461bcd60e51b815260206004820152602360248201527f4e6f7420656e6f756768206d6f6e657920746f2075706772616465206174746160448201526231b59760e91b606482015260840161043e565b6116a86001600683815481106110c8576110c8612584565b600682815481106116bb576116bb612584565b9060005260206000209060070201600001819055506117086001600683815481106116e8576116e8612584565b9060005260206000209060070201600501546122e090919063ffffffff16565b6006828154811061171b5761171b612584565b906000526020600020906007020160050181905550600160096000336001600160a01b03166001600160a01b0316815260200190815260200160002060010160008282546117699190612571565b9091555061177790506112ef565b7f7c0725a32355c8362aaa495b37bdb3b9cfcc9fc46dbf2b0c85e7ccce4669e6b83360068381548110610fa057610fa0612584565b60035460ff166117ce5760405162461bcd60e51b815260040161043e906126db565b3360009081526008602052604090205460ff16156117fe5760405162461bcd60e51b815260040161043e90612712565b3360009081526007602052604090205460068054600191908390811061182657611826612584565b90600052602060002090600702016000015410156118925760405162461bcd60e51b8152602060048201526024808201527f4e6f7420656e6f756768206d6f6e657920746f207570677261646520646566656044820152633739b29760e11b606482015260840161043e565b6118aa6001600683815481106110c8576110c8612584565b600682815481106118bd576118bd612584565b90600052602060002090600702016000018190555061190a6001600683815481106118ea576118ea612584565b9060005260206000209060070201600401546122e090919063ffffffff16565b6006828154811061191d5761191d612584565b906000526020600020906007020160040181905550600160096000336001600160a01b03166001600160a01b03168152602001908152602001600020600101600082825461196b9190612571565b9091555061197990506112ef565b7f7ccb3dd8c961e6d97590c65c2cfb6296766d9b731ff7b6f73e59b0beb50ee2d43360068381548110610fa057610fa0612584565b60035460ff166119d05760405162461bcd60e51b815260040161043e906126db565b3360009081526008602052604090205460ff1615611a005760405162461bcd60e51b815260040161043e90612712565b6006548110611a485760405162461bcd60e51b815260206004820152601460248201527324b73b30b634b2103a30b933b2ba103a32b0b69760611b604482015260640161043e565b336000908152600760205260409020548103611aa65760405162461bcd60e51b815260206004820152601860248201527f43616e6e6f742066697265206174206f776e207465616d2e0000000000000000604482015260640161043e565b33600090815260076020526040812054600680549192916021919085908110611ad157611ad1612584565b90600052602060002090600702016004015460068481548110611af657611af6612584565b90600052602060002090600702016005015482611b139190612571565b1015611b2157506001611b84565b60068481548110611b3457611b34612584565b90600052602060002090600702016004015460068481548110611b5957611b59612584565b9060005260206000209060070201600501546021611b779190612571565b611b81919061269c565b90505b6063811115611b91575060635b600060644233604051602001611bc392919091825260601b6bffffffffffffffffffffffff1916602082015260340190565b6040516020818303038152906040528051906020012060001c611be69190612741565b905081811015611cc857611c0d6064610c96606260068981548110610c7657610c76612584565b60068681548110611c2057611c20612584565b906000526020600020906007020160030181905550600360068681548110611c4a57611c4a612584565b9060005260206000209060070201600201541115611cc357611c9a600260068781548110611c7a57611c7a612584565b9060005260206000209060070201600201546122d490919063ffffffff16565b60068681548110611cad57611cad612584565b9060005260206000209060070201600201819055505b600192505b3360009081526009602052604081206001908101805491929091611ced908490612571565b90915550611cfb90506112ef565b7f1070e59b5639f0799bd97e9aa418e32193db53c11a30e2badab45d1ac1f1e4e43360068681548110611d3057611d30612584565b906000526020600020906007020160010160068881548110611d5457611d54612584565b906000526020600020906007020160010186604051611d7694939291906128e0565b60405180910390a15050505050565b336000818152600760209081526040808320548352600a9091529020546001600160a01b03161480611dda5750336000818152600760209081526040808320548352600b9091529020546001600160a01b0316145b611df65760405162461bcd60e51b815260040161043e9061276e565b6001600160a01b0381166000908152600760205260408082205433835291205414611e775760405162461bcd60e51b815260206004820152602b60248201527f43616e6e6f742070757420736f6d656f6e65206f6e20616e6f7468657220746560448201526a30b69034b7103530b4b61760a91b606482015260840161043e565b6001600160a01b0381166000908152600860209081526040808320805460ff191660011790556007909152902054600680547f3a20c27241f03f182fdea2523631cb8dbe89e8c84a05cdb19f6f804d58f8f3c7928492918110610fa057610fa0612584565b6000546001600160a01b03163314611f415760405162461bcd60e51b815260206004820152602260248201527f4f6e6c7920746865206f776e65722063616e206e616d6520746865207465616d604482015261399760f11b606482015260840161043e565b8060068381548110611f5557611f55612584565b90600052602060002090600702016001019081611f72919061292a565b505050565b336000818152600760209081526040808320548352600a9091529020546001600160a01b031614611fea5760405162461bcd60e51b815260206004820152601d60248201527f4f6e6c7920746865206361707461696e2063616e20646f20746869732e000000604482015260640161043e565b6001600160a01b03811660009081526007602052604080822054338352912054146120575760405162461bcd60e51b815260206004820181905260248201527f4669727374206d617465206d757374206265206f6e20796f7572207465616d2e604482015260640161043e565b6001600160a01b0381166000818152600760208181526040808420548452600b825280842080546001600160a01b031916909517909455338352522054600680547f793ce8f0c70b280a4c9c6008694f48260a4aa13d0a724bab8f18a592edfe5093929081106120c9576120c9612584565b906000526020600020906007020160010182604051610fbf9291906129e4565b600180546120f69061259a565b80601f01602080910402602001604051908101604052809291908181526020018280546121229061259a565b801561216f5780601f106121445761010080835404028352916020019161216f565b820191906000526020600020905b81548152906001019060200180831161215257829003601f168201915b505050505081565b6000546001600160a01b031633146121bf5760405162461bcd60e51b815260206004820152600b60248201526a27b7363c9037bbb732b91760a91b604482015260640161043e565b84156121eb5784600687815481106121d9576121d9612584565b60009182526020909120600790910201555b831561221b57836006878154811061220557612205612584565b9060005260206000209060070201600201819055505b821561224b57826006878154811061223557612235612584565b9060005260206000209060070201600301819055505b811561227b57816006878154811061226557612265612584565b9060005260206000209060070201600401819055505b80156122ab57806006878154811061229557612295612584565b9060005260206000209060070201600501819055505b505050505050565b60006122bf8284612685565b90505b92915050565b60006122bf828461255d565b60006122bf828461269c565b60006122bf8284612571565b6000602082840312156122fe57600080fd5b5035919050565b80356001600160a01b038116811461231c57600080fd5b919050565b60006020828403121561233357600080fd5b6122bf82612305565b6000815180845260005b8181101561236257602081850181015186830182015201612346565b506000602082860101526020601f19601f83011685010191505092915050565b87815260e06020820152600061239b60e083018961233c565b6040830197909752506060810194909452608084019290925260a083015260c09091015292915050565b600080604083850312156123d857600080fd5b823591506123e860208401612305565b90509250929050565b634e487b7160e01b600052604160045260246000fd5b6000806040838503121561241a57600080fd5b82359150602083013567ffffffffffffffff8082111561243957600080fd5b818501915085601f83011261244d57600080fd5b81358181111561245f5761245f6123f1565b604051601f8201601f19908116603f01168101908382118183101715612487576124876123f1565b816040528281528860208487010111156124a057600080fd5b8260208601602083013760006020848301015280955050505050509250929050565b6020815260006122bf602083018461233c565b60008060008060008060c087890312156124ee57600080fd5b505084359660208601359650604086013595606081013595506080810135945060a0013592509050565b60006020828403121561252a57600080fd5b5051919050565b634e487b7160e01b600052601260045260246000fd5b634e487b7160e01b600052601160045260246000fd5b60008261256c5761256c612531565b500490565b808201808211156122c2576122c2612547565b634e487b7160e01b600052603260045260246000fd5b600181811c908216806125ae57607f821691505b6020821081036125ce57634e487b7160e01b600052602260045260246000fd5b50919050565b600081546125e18161259a565b8085526020600183811680156125fe576001811461261857612646565b60ff1985168884015283151560051b880183019550612646565b866000528260002060005b8581101561263e5781548a8201860152908301908401612623565b890184019650505b505050505092915050565b6001600160a01b0384168152606060208201819052600090612675908301856125d4565b9050826040830152949350505050565b80820281158282048414176122c2576122c2612547565b818103818111156122c2576122c2612547565b6001600160a01b03831681526040602082018190526000906126d3908301846125d4565b949350505050565b6020808252601d908201527f5468652067616d6520686173206e6f742073746172746564207965742e000000604082015260600190565b6020808252601590820152742a3434b9903ab9b2b91034b99034b7103530b4b61760591b604082015260600190565b60008261275057612750612531565b500690565b60006001820161276757612767612547565b5060010190565b6020808252602b908201527f4f6e6c7920746865206361707461696e206f72206669727374206d617465206360408201526a30b7103237903a3434b99760a91b606082015260800190565b601f821115611f7257600081815260208120601f850160051c810160208610156127e05750805b601f850160051c820191505b818110156122ab578281556001016127ec565b81810361280a575050565b612814825461259a565b67ffffffffffffffff81111561282c5761282c6123f1565b6128408161283a845461259a565b846127b9565b6000601f821160018114612874576000831561285c5750848201545b600019600385901b1c1916600184901b1784556128d9565b600085815260209020601f19841690600086815260209020845b838110156128ae578286015482556001958601959091019060200161288e565b50858310156128cc5781850154600019600388901b60f8161c191681555b50505060018360011b0184555b5050505050565b6001600160a01b0385168152608060208201819052600090612904908301866125d4565b828103604084015261291681866125d4565b915050821515606083015295945050505050565b815167ffffffffffffffff811115612944576129446123f1565b6129528161283a845461259a565b602080601f831160018114612987576000841561296f5750858301515b600019600386901b1c1916600185901b1785556122ab565b600085815260208120601f198616915b828110156129b657888601518255948401946001909101908401612997565b50858210156129d45787850151600019600388901b60f8161c191681555b5050505050600190811b01905550565b6040815260006129f760408301856125d4565b905060018060a01b0383166020830152939250505056fea26469706673582212201cd239b1968eccb437135a92e5eaaa184a09f98d82d1b4a32a244b964315932464736f6c63430008110033f652222313e28459528d920b65115c16c04f3efc82aaedc97be59f3f377c0d40f652222313e28459528d920b65115c16c04f3efc82aaedc97be59f3f377c0d3f",
  "bytecodeSha1": "3fed6183400cb7bfe98b69da1775f1b88eda4ac3",
  "compiler": {
    "evm_version": "istanbul",
    "optimizer": {
      "enabled": true,
      "runs": 200
    },
    "version": "0.8.17+commit.8df45f5f"
  },
  "contractName": "PirateRace",
  "language": "Solidity",
  "natspec": {
    "kind": "dev",
    "methods": {},
    "version": 1
  },
  "opcodes": "PUSH1 0x80 PUSH1 0x40 MSTORE CALLVALUE DUP1 ISZERO PUSH2 0x10 JUMPI PUSH1 0x0 DUP1 REVERT JUMPDEST POP PUSH1 0x4 CALLDATASIZE LT PUSH2 0x18E JUMPI PUSH1 0x0 CALLDATALOAD PUSH1 0xE0 SHR DUP1 PUSH4 0x8362CECF GT PUSH2 0xDE JUMPI DUP1 PUSH4 0xC01D373F GT PUSH2 0x97 JUMPI DUP1 PUSH4 0xDDBCEDA7 GT PUSH2 0x71 JUMPI DUP1 PUSH4 0xDDBCEDA7 EQ PUSH2 0x3B0 JUMPI DUP1 PUSH4 0xDFBF53AE EQ PUSH2 0x3C3 JUMPI DUP1 PUSH4 0xE075BE21 EQ PUSH2 0x3D8 JUMPI DUP1 PUSH4 0xF8200866 EQ PUSH2 0x3EB JUMPI PUSH1 0x0 DUP1 REVERT JUMPDEST DUP1 PUSH4 0xC01D373F EQ PUSH2 0x381 JUMPI DUP1 PUSH4 0xCC3590BB EQ PUSH2 0x394 JUMPI DUP1 PUSH4 0xD60E831C EQ PUSH2 0x39D JUMPI PUSH1 0x0 DUP1 REVERT JUMPDEST DUP1 PUSH4 0x8362CECF EQ PUSH2 0x300 JUMPI DUP1 PUSH4 0x84D0643E EQ PUSH2 0x308 JUMPI DUP1 PUSH4 0x8DA5CB5B EQ PUSH2 0x320 JUMPI DUP1 PUSH4 0x9BCBEA52 EQ PUSH2 0x333 JUMPI DUP1 PUSH4 0xA99BC082 EQ PUSH2 0x366 JUMPI DUP1 PUSH4 0xADF7D47A EQ PUSH2 0x36E JUMPI PUSH1 0x0 DUP1 REVERT JUMPDEST DUP1 PUSH4 0x4079761E GT PUSH2 0x14B JUMPI DUP1 PUSH4 0x58C5A1E4 GT PUSH2 0x125 JUMPI DUP1 PUSH4 0x58C5A1E4 EQ PUSH2 0x2AF JUMPI DUP1 PUSH4 0x6AD7ED47 EQ PUSH2 0x2DD JUMPI DUP1 PUSH4 0x6B3EE32A EQ PUSH2 0x2E5 JUMPI DUP1 PUSH4 0x81EC0F0F EQ PUSH2 0x2ED JUMPI PUSH1 0x0 DUP1 REVERT JUMPDEST DUP1 PUSH4 0x4079761E EQ PUSH2 0x26B JUMPI DUP1 PUSH4 0x48E11E2D EQ PUSH2 0x27E JUMPI DUP1 PUSH4 0x57FFFD4A EQ PUSH2 0x2A7 JUMPI PUSH1 0x0 DUP1 REVERT JUMPDEST DUP1 PUSH4 0x49878F3 EQ PUSH2 0x193 JUMPI DUP1 PUSH4 0x1B586A3B EQ PUSH2 0x1A8 JUMPI DUP1 PUSH4 0x1B6C3517 EQ PUSH2 0x1EE JUMPI DUP1 PUSH4 0x1C7E9ED0 EQ PUSH2 0x201 JUMPI DUP1 PUSH4 0x38EE821B EQ PUSH2 0x209 JUMPI DUP1 PUSH4 0x3ED2B77A EQ PUSH2 0x245 JUMPI JUMPDEST PUSH1 0x0 DUP1 REVERT JUMPDEST PUSH2 0x1A6 PUSH2 0x1A1 CALLDATASIZE PUSH1 0x4 PUSH2 0x22EC JUMP JUMPDEST PUSH2 0x3FE JUMP JUMPDEST STOP JUMPDEST PUSH2 0x1D1 PUSH2 0x1B6 CALLDATASIZE PUSH1 0x4 PUSH2 0x22EC JUMP JUMPDEST PUSH1 0xA PUSH1 0x20 MSTORE PUSH1 0x0 SWAP1 DUP2 MSTORE PUSH1 0x40 SWAP1 KECCAK256 SLOAD PUSH1 0x1 PUSH1 0x1 PUSH1 0xA0 SHL SUB AND DUP2 JUMP JUMPDEST PUSH1 0x40 MLOAD PUSH1 0x1 PUSH1 0x1 PUSH1 0xA0 SHL SUB SWAP1 SWAP2 AND DUP2 MSTORE PUSH1 0x20 ADD JUMPDEST PUSH1 0x40 MLOAD DUP1 SWAP2 SUB SWAP1 RETURN JUMPDEST PUSH2 0x1A6 PUSH2 0x1FC CALLDATASIZE PUSH1 0x4 PUSH2 0x2321 JUMP JUMPDEST PUSH2 0x6B4 JUMP JUMPDEST PUSH2 0x1A6 PUSH2 0x9B5 JUMP JUMPDEST PUSH2 0x230 PUSH2 0x217 CALLDATASIZE PUSH1 0x4 PUSH2 0x2321 JUMP JUMPDEST PUSH1 0x9 PUSH1 0x20 MSTORE PUSH1 0x0 SWAP1 DUP2 MSTORE PUSH1 0x40 SWAP1 KECCAK256 DUP1 SLOAD PUSH1 0x1 SWAP1 SWAP2 ADD SLOAD DUP3 JUMP JUMPDEST PUSH1 0x40 DUP1 MLOAD SWAP3 DUP4 MSTORE PUSH1 0x20 DUP4 ADD SWAP2 SWAP1 SWAP2 MSTORE ADD PUSH2 0x1E5 JUMP JUMPDEST PUSH2 0x258 PUSH2 0x253 CALLDATASIZE PUSH1 0x4 PUSH2 0x22EC JUMP JUMPDEST PUSH2 0xD71 JUMP JUMPDEST PUSH1 0x40 MLOAD PUSH2 0x1E5 SWAP8 SWAP7 SWAP6 SWAP5 SWAP4 SWAP3 SWAP2 SWAP1 PUSH2 0x2382 JUMP JUMPDEST PUSH2 0x1A6 PUSH2 0x279 CALLDATASIZE PUSH1 0x4 PUSH2 0x2321 JUMP JUMPDEST PUSH2 0xE47 JUMP JUMPDEST PUSH2 0x1D1 PUSH2 0x28C CALLDATASIZE PUSH1 0x4 PUSH2 0x22EC JUMP JUMPDEST PUSH1 0xB PUSH1 0x20 MSTORE PUSH1 0x0 SWAP1 DUP2 MSTORE PUSH1 0x40 SWAP1 KECCAK256 SLOAD PUSH1 0x1 PUSH1 0x1 PUSH1 0xA0 SHL SUB AND DUP2 JUMP JUMPDEST PUSH2 0x1A6 PUSH2 0xFCA JUMP JUMPDEST PUSH2 0x2CF PUSH2 0x2BD CALLDATASIZE PUSH1 0x4 PUSH2 0x2321 JUMP JUMPDEST PUSH1 0x7 PUSH1 0x20 MSTORE PUSH1 0x0 SWAP1 DUP2 MSTORE PUSH1 0x40 SWAP1 KECCAK256 SLOAD DUP2 JUMP JUMPDEST PUSH1 0x40 MLOAD SWAP1 DUP2 MSTORE PUSH1 0x20 ADD PUSH2 0x1E5 JUMP JUMPDEST PUSH2 0x1A6 PUSH2 0x11E3 JUMP JUMPDEST PUSH2 0x1A6 PUSH2 0x12EF JUMP JUMPDEST PUSH2 0x1A6 PUSH2 0x2FB CALLDATASIZE PUSH1 0x4 PUSH2 0x23C5 JUMP JUMPDEST PUSH2 0x150E JUMP JUMPDEST PUSH2 0x1A6 PUSH2 0x15AA JUMP JUMPDEST PUSH1 0x3 SLOAD PUSH2 0x1D1 SWAP1 PUSH2 0x100 SWAP1 DIV PUSH1 0x1 PUSH1 0x1 PUSH1 0xA0 SHL SUB AND DUP2 JUMP JUMPDEST PUSH1 0x0 SLOAD PUSH2 0x1D1 SWAP1 PUSH1 0x1 PUSH1 0x1 PUSH1 0xA0 SHL SUB AND DUP2 JUMP JUMPDEST PUSH2 0x356 PUSH2 0x341 CALLDATASIZE PUSH1 0x4 PUSH2 0x2321 JUMP JUMPDEST PUSH1 0x8 PUSH1 0x20 MSTORE PUSH1 0x0 SWAP1 DUP2 MSTORE PUSH1 0x40 SWAP1 KECCAK256 SLOAD PUSH1 0xFF AND DUP2 JUMP JUMPDEST PUSH1 0x40 MLOAD SWAP1 ISZERO ISZERO DUP2 MSTORE PUSH1 0x20 ADD PUSH2 0x1E5 JUMP JUMPDEST PUSH2 0x1A6 PUSH2 0x17AC JUMP JUMPDEST PUSH2 0x1A6 PUSH2 0x37C CALLDATASIZE PUSH1 0x4 PUSH2 0x22EC JUMP JUMPDEST PUSH2 0x19AE JUMP JUMPDEST PUSH2 0x1A6 PUSH2 0x38F CALLDATASIZE PUSH1 0x4 PUSH2 0x2321 JUMP JUMPDEST PUSH2 0x1D85 JUMP JUMPDEST PUSH2 0x2CF PUSH1 0x2 SLOAD DUP2 JUMP JUMPDEST PUSH2 0x1A6 PUSH2 0x3AB CALLDATASIZE PUSH1 0x4 PUSH2 0x2407 JUMP JUMPDEST PUSH2 0x1EDC JUMP JUMPDEST PUSH2 0x1A6 PUSH2 0x3BE CALLDATASIZE PUSH1 0x4 PUSH2 0x2321 JUMP JUMPDEST PUSH2 0x1F77 JUMP JUMPDEST PUSH2 0x3CB PUSH2 0x20E9 JUMP JUMPDEST PUSH1 0x40 MLOAD PUSH2 0x1E5 SWAP2 SWAP1 PUSH2 0x24C2 JUMP JUMPDEST PUSH2 0x1A6 PUSH2 0x3E6 CALLDATASIZE PUSH1 0x4 PUSH2 0x24D5 JUMP JUMPDEST PUSH2 0x2177 JUMP JUMPDEST PUSH1 0x4 SLOAD PUSH2 0x1D1 SWAP1 PUSH1 0x1 PUSH1 0x1 PUSH1 0xA0 SHL SUB AND DUP2 JUMP JUMPDEST PUSH1 0x6 SLOAD DUP2 LT PUSH2 0x447 JUMPI PUSH1 0x40 MLOAD PUSH3 0x461BCD PUSH1 0xE5 SHL DUP2 MSTORE PUSH1 0x20 PUSH1 0x4 DUP3 ADD MSTORE PUSH1 0x10 PUSH1 0x24 DUP3 ADD MSTORE PUSH16 0x24B73B30B634B2103A32B0B69024A217 PUSH1 0x81 SHL PUSH1 0x44 DUP3 ADD MSTORE PUSH1 0x64 ADD JUMPDEST PUSH1 0x40 MLOAD DUP1 SWAP2 SUB SWAP1 REVERT JUMPDEST PUSH1 0x4 DUP1 SLOAD PUSH1 0x40 MLOAD PUSH4 0x70A08231 PUSH1 0xE0 SHL DUP2 MSTORE CALLER SWAP3 DUP2 ADD SWAP3 SWAP1 SWAP3 MSTORE PUSH1 0x0 SWAP2 PUSH8 0xDE0B6B3A7640000 SWAP2 PUSH1 0x1 PUSH1 0x1 PUSH1 0xA0 SHL SUB AND SWAP1 PUSH4 0x70A08231 SWAP1 PUSH1 0x24 ADD PUSH1 0x20 PUSH1 0x40 MLOAD DUP1 DUP4 SUB DUP2 DUP7 GAS STATICCALL ISZERO DUP1 ISZERO PUSH2 0x49D JUMPI RETURNDATASIZE PUSH1 0x0 DUP1 RETURNDATACOPY RETURNDATASIZE PUSH1 0x0 REVERT JUMPDEST POP POP POP POP PUSH1 0x40 MLOAD RETURNDATASIZE PUSH1 0x1F NOT PUSH1 0x1F DUP3 ADD AND DUP3 ADD DUP1 PUSH1 0x40 MSTORE POP DUP2 ADD SWAP1 PUSH2 0x4C1 SWAP2 SWAP1 PUSH2 0x2518 JUMP JUMPDEST PUSH2 0x4CB SWAP2 SWAP1 PUSH2 0x255D JUMP JUMPDEST PUSH1 0x3 SLOAD PUSH1 0x40 MLOAD PUSH4 0x70A08231 PUSH1 0xE0 SHL DUP2 MSTORE CALLER PUSH1 0x4 DUP3 ADD MSTORE PUSH8 0xDE0B6B3A7640000 SWAP2 PUSH2 0x100 SWAP1 DIV PUSH1 0x1 PUSH1 0x1 PUSH1 0xA0 SHL SUB AND SWAP1 PUSH4 0x70A08231 SWAP1 PUSH1 0x24 ADD PUSH1 0x20 PUSH1 0x40 MLOAD DUP1 DUP4 SUB DUP2 DUP7 GAS STATICCALL ISZERO DUP1 ISZERO PUSH2 0x520 JUMPI RETURNDATASIZE PUSH1 0x0 DUP1 RETURNDATACOPY RETURNDATASIZE PUSH1 0x0 REVERT JUMPDEST POP POP POP POP PUSH1 0x40 MLOAD RETURNDATASIZE PUSH1 0x1F NOT PUSH1 0x1F DUP3 ADD AND DUP3 ADD DUP1 PUSH1 0x40 MSTORE POP DUP2 ADD SWAP1 PUSH2 0x544 SWAP2 SWAP1 PUSH2 0x2518 JUMP JUMPDEST PUSH2 0x54E SWAP2 SWAP1 PUSH2 0x255D JUMP JUMPDEST PUSH2 0x558 SWAP2 SWAP1 PUSH2 0x2571 JUMP JUMPDEST SWAP1 POP PUSH1 0x64 DUP2 LT ISZERO PUSH2 0x5BB JUMPI PUSH1 0x40 MLOAD PUSH3 0x461BCD PUSH1 0xE5 SHL DUP2 MSTORE PUSH1 0x20 PUSH1 0x4 DUP3 ADD MSTORE PUSH1 0x27 PUSH1 0x24 DUP3 ADD MSTORE PUSH32 0x5265717569726573206174206C6561737420313030205169202B206551692074 PUSH1 0x44 DUP3 ADD MSTORE PUSH7 0x3790383630BC97 PUSH1 0xC9 SHL PUSH1 0x64 DUP3 ADD MSTORE PUSH1 0x84 ADD PUSH2 0x43E JUMP JUMPDEST DUP1 PUSH1 0x6 DUP4 DUP2 SLOAD DUP2 LT PUSH2 0x5CF JUMPI PUSH2 0x5CF PUSH2 0x2584 JUMP JUMPDEST SWAP1 PUSH1 0x0 MSTORE PUSH1 0x20 PUSH1 0x0 KECCAK256 SWAP1 PUSH1 0x7 MUL ADD PUSH1 0x0 ADD PUSH1 0x0 DUP3 DUP3 SLOAD PUSH2 0x5EF SWAP2 SWAP1 PUSH2 0x2571 JUMP JUMPDEST SWAP3 POP POP DUP2 SWAP1 SSTORE POP PUSH1 0x1 PUSH1 0x6 DUP4 DUP2 SLOAD DUP2 LT PUSH2 0x60B JUMPI PUSH2 0x60B PUSH2 0x2584 JUMP JUMPDEST SWAP1 PUSH1 0x0 MSTORE PUSH1 0x20 PUSH1 0x0 KECCAK256 SWAP1 PUSH1 0x7 MUL ADD PUSH1 0x6 ADD PUSH1 0x0 DUP3 DUP3 SLOAD PUSH2 0x62B SWAP2 SWAP1 PUSH2 0x2571 JUMP JUMPDEST SWAP1 SWAP2 SSTORE POP POP CALLER PUSH1 0x0 DUP2 DUP2 MSTORE PUSH1 0x7 PUSH1 0x20 SWAP1 DUP2 MSTORE PUSH1 0x40 DUP1 DUP4 KECCAK256 DUP7 SWAP1 SSTORE PUSH1 0x9 SWAP1 SWAP2 MSTORE SWAP1 KECCAK256 DUP3 SWAP1 SSTORE PUSH1 0x6 DUP1 SLOAD PUSH32 0x421F2322493A06D9F34E676FFA1C281FFB19C3E128AE5F8EEE60EA3C83CDD8F6 SWAP3 SWAP2 SWAP1 DUP6 SWAP1 DUP2 LT PUSH2 0x687 JUMPI PUSH2 0x687 PUSH2 0x2584 JUMP JUMPDEST SWAP1 PUSH1 0x0 MSTORE PUSH1 0x20 PUSH1 0x0 KECCAK256 SWAP1 PUSH1 0x7 MUL ADD PUSH1 0x1 ADD DUP4 PUSH1 0x40 MLOAD PUSH2 0x6A8 SWAP4 SWAP3 SWAP2 SWAP1 PUSH2 0x2651 JUMP JUMPDEST PUSH1 0x40 MLOAD DUP1 SWAP2 SUB SWAP1 LOG1 POP POP JUMP JUMPDEST PUSH1 0x1 PUSH1 0x1 PUSH1 0xA0 SHL SUB DUP2 AND PUSH1 0x0 SWAP1 DUP2 MSTORE PUSH1 0x8 PUSH1 0x20 MSTORE PUSH1 0x40 SWAP1 KECCAK256 SLOAD PUSH1 0xFF AND ISZERO PUSH2 0x70F JUMPI PUSH1 0x40 MLOAD PUSH3 0x461BCD PUSH1 0xE5 SHL DUP2 MSTORE PUSH1 0x20 PUSH1 0x4 DUP3 ADD MSTORE PUSH1 0xF PUSH1 0x24 DUP3 ADD MSTORE PUSH15 0x185B1C9958591E481A5B881A985A5B PUSH1 0x8A SHL PUSH1 0x44 DUP3 ADD MSTORE PUSH1 0x64 ADD PUSH2 0x43E JUMP JUMPDEST PUSH1 0x4 DUP1 SLOAD PUSH1 0x40 MLOAD PUSH4 0x70A08231 PUSH1 0xE0 SHL DUP2 MSTORE PUSH1 0x1 PUSH1 0x1 PUSH1 0xA0 SHL SUB DUP5 DUP2 AND SWAP4 DUP3 ADD SWAP4 SWAP1 SWAP4 MSTORE PUSH1 0x0 SWAP3 PUSH8 0xDE0B6B3A7640000 SWAP3 AND SWAP1 PUSH4 0x70A08231 SWAP1 PUSH1 0x24 ADD PUSH1 0x20 PUSH1 0x40 MLOAD DUP1 DUP4 SUB DUP2 DUP7 GAS STATICCALL ISZERO DUP1 ISZERO PUSH2 0x767 JUMPI RETURNDATASIZE PUSH1 0x0 DUP1 RETURNDATACOPY RETURNDATASIZE PUSH1 0x0 REVERT JUMPDEST POP POP POP POP PUSH1 0x40 MLOAD RETURNDATASIZE PUSH1 0x1F NOT PUSH1 0x1F DUP3 ADD AND DUP3 ADD DUP1 PUSH1 0x40 MSTORE POP DUP2 ADD SWAP1 PUSH2 0x78B SWAP2 SWAP1 PUSH2 0x2518 JUMP JUMPDEST PUSH2 0x795 SWAP2 SWAP1 PUSH2 0x255D JUMP JUMPDEST PUSH1 0x3 SLOAD PUSH1 0x40 MLOAD PUSH4 0x70A08231 PUSH1 0xE0 SHL DUP2 MSTORE PUSH1 0x1 PUSH1 0x1 PUSH1 0xA0 SHL SUB DUP6 DUP2 AND PUSH1 0x4 DUP4 ADD MSTORE PUSH8 0xDE0B6B3A7640000 SWAP3 PUSH2 0x100 SWAP1 DIV AND SWAP1 PUSH4 0x70A08231 SWAP1 PUSH1 0x24 ADD PUSH1 0x20 PUSH1 0x40 MLOAD DUP1 DUP4 SUB DUP2 DUP7 GAS STATICCALL ISZERO DUP1 ISZERO PUSH2 0x7EC JUMPI RETURNDATASIZE PUSH1 0x0 DUP1 RETURNDATACOPY RETURNDATASIZE PUSH1 0x0 REVERT JUMPDEST POP POP POP POP PUSH1 0x40 MLOAD RETURNDATASIZE PUSH1 0x1F NOT PUSH1 0x1F DUP3 ADD AND DUP3 ADD DUP1 PUSH1 0x40 MSTORE POP DUP2 ADD SWAP1 PUSH2 0x810 SWAP2 SWAP1 PUSH2 0x2518 JUMP JUMPDEST PUSH2 0x81A SWAP2 SWAP1 PUSH2 0x255D JUMP JUMPDEST PUSH2 0x824 SWAP2 SWAP1 PUSH2 0x2571 JUMP JUMPDEST PUSH1 0x1 PUSH1 0x1 PUSH1 0xA0 SHL SUB DUP4 AND PUSH1 0x0 SWAP1 DUP2 MSTORE PUSH1 0x9 PUSH1 0x20 DUP2 DUP2 MSTORE PUSH1 0x40 DUP1 DUP5 KECCAK256 SLOAD PUSH1 0x7 SWAP1 SWAP3 MSTORE SWAP1 SWAP3 KECCAK256 SLOAD SWAP3 SWAP4 POP SWAP1 SWAP2 SWAP1 PUSH1 0xA SWAP1 PUSH2 0x85D SWAP1 DUP5 SWAP1 PUSH2 0x2685 JUMP JUMPDEST PUSH2 0x867 SWAP2 SWAP1 PUSH2 0x255D JUMP JUMPDEST DUP4 LT ISZERO PUSH2 0x9AF JUMPI PUSH1 0x1 PUSH1 0x1 PUSH1 0xA0 SHL SUB DUP5 AND PUSH1 0x0 SWAP1 DUP2 MSTORE PUSH1 0x8 PUSH1 0x20 MSTORE PUSH1 0x40 SWAP1 KECCAK256 DUP1 SLOAD PUSH1 0xFF NOT AND PUSH1 0x1 OR SWAP1 SSTORE PUSH2 0x89C DUP3 PUSH1 0x2 PUSH2 0x2685 JUMP JUMPDEST PUSH1 0x6 DUP3 DUP2 SLOAD DUP2 LT PUSH2 0x8AF JUMPI PUSH2 0x8AF PUSH2 0x2584 JUMP JUMPDEST SWAP1 PUSH1 0x0 MSTORE PUSH1 0x20 PUSH1 0x0 KECCAK256 SWAP1 PUSH1 0x7 MUL ADD PUSH1 0x0 ADD SLOAD GT ISZERO PUSH2 0x910 JUMPI PUSH2 0x8D2 DUP3 PUSH1 0x2 PUSH2 0x2685 JUMP JUMPDEST PUSH1 0x6 DUP3 DUP2 SLOAD DUP2 LT PUSH2 0x8E5 JUMPI PUSH2 0x8E5 PUSH2 0x2584 JUMP JUMPDEST SWAP1 PUSH1 0x0 MSTORE PUSH1 0x20 PUSH1 0x0 KECCAK256 SWAP1 PUSH1 0x7 MUL ADD PUSH1 0x0 ADD PUSH1 0x0 DUP3 DUP3 SLOAD PUSH2 0x905 SWAP2 SWAP1 PUSH2 0x269C JUMP JUMPDEST SWAP1 SWAP2 SSTORE POP PUSH2 0x937 SWAP1 POP JUMP JUMPDEST PUSH1 0x0 PUSH1 0x6 DUP3 DUP2 SLOAD DUP2 LT PUSH2 0x925 JUMPI PUSH2 0x925 PUSH2 0x2584 JUMP JUMPDEST PUSH1 0x0 SWAP2 DUP3 MSTORE PUSH1 0x20 SWAP1 SWAP2 KECCAK256 PUSH1 0x7 SWAP1 SWAP2 MUL ADD SSTORE JUMPDEST PUSH1 0x1 PUSH1 0x1 PUSH1 0xA0 SHL SUB DUP5 AND PUSH1 0x0 SWAP1 DUP2 MSTORE PUSH1 0x7 PUSH1 0x20 MSTORE PUSH1 0x40 SWAP1 KECCAK256 SLOAD PUSH1 0x6 DUP1 SLOAD PUSH32 0x3A20C27241F03F182FDEA2523631CB8DBE89E8C84A05CDB19F6F804D58F8F3C7 SWAP3 DUP8 SWAP3 SWAP2 DUP2 LT PUSH2 0x987 JUMPI PUSH2 0x987 PUSH2 0x2584 JUMP JUMPDEST SWAP1 PUSH1 0x0 MSTORE PUSH1 0x20 PUSH1 0x0 KECCAK256 SWAP1 PUSH1 0x7 MUL ADD PUSH1 0x1 ADD PUSH1 0x40 MLOAD PUSH2 0x9A6 SWAP3 SWAP2 SWAP1 PUSH2 0x26AF JUMP JUMPDEST PUSH1 0x40 MLOAD DUP1 SWAP2 SUB SWAP1 LOG1 JUMPDEST POP POP POP POP JUMP JUMPDEST PUSH1 0x3 SLOAD PUSH1 0xFF AND PUSH2 0x9D7 JUMPI PUSH1 0x40 MLOAD PUSH3 0x461BCD PUSH1 0xE5 SHL DUP2 MSTORE PUSH1 0x4 ADD PUSH2 0x43E SWAP1 PUSH2 0x26DB JUMP JUMPDEST CALLER PUSH1 0x0 SWAP1 DUP2 MSTORE PUSH1 0x8 PUSH1 0x20 MSTORE PUSH1 0x40 SWAP1 KECCAK256 SLOAD PUSH1 0xFF AND ISZERO PUSH2 0xA07 JUMPI PUSH1 0x40 MLOAD PUSH3 0x461BCD PUSH1 0xE5 SHL DUP2 MSTORE PUSH1 0x4 ADD PUSH2 0x43E SWAP1 PUSH2 0x2712 JUMP JUMPDEST CALLER PUSH1 0x0 SWAP1 DUP2 MSTORE PUSH1 0x7 PUSH1 0x20 MSTORE PUSH1 0x40 SWAP1 KECCAK256 SLOAD PUSH1 0x6 DUP1 SLOAD PUSH1 0x5 SWAP2 SWAP1 DUP4 SWAP1 DUP2 LT PUSH2 0xA2F JUMPI PUSH2 0xA2F PUSH2 0x2584 JUMP JUMPDEST SWAP1 PUSH1 0x0 MSTORE PUSH1 0x20 PUSH1 0x0 KECCAK256 SWAP1 PUSH1 0x7 MUL ADD PUSH1 0x0 ADD SLOAD LT ISZERO PUSH2 0xA9E JUMPI PUSH1 0x40 MLOAD PUSH3 0x461BCD PUSH1 0xE5 SHL DUP2 MSTORE PUSH1 0x20 PUSH1 0x4 DUP3 ADD MSTORE PUSH1 0x26 PUSH1 0x24 DUP3 ADD MSTORE PUSH32 0x4E6F7420656E6F756768206D6F6E657920746F206275792061206D7973746572 PUSH1 0x44 DUP3 ADD MSTORE PUSH6 0x3C903137BC17 PUSH1 0xD1 SHL PUSH1 0x64 DUP3 ADD MSTORE PUSH1 0x84 ADD PUSH2 0x43E JUMP JUMPDEST PUSH1 0x5 PUSH1 0x6 DUP3 DUP2 SLOAD DUP2 LT PUSH2 0xAB3 JUMPI PUSH2 0xAB3 PUSH2 0x2584 JUMP JUMPDEST SWAP1 PUSH1 0x0 MSTORE PUSH1 0x20 PUSH1 0x0 KECCAK256 SWAP1 PUSH1 0x7 MUL ADD PUSH1 0x0 ADD PUSH1 0x0 DUP3 DUP3 SLOAD PUSH2 0xAD3 SWAP2 SWAP1 PUSH2 0x269C JUMP JUMPDEST SWAP3 POP POP DUP2 SWAP1 SSTORE POP PUSH1 0x0 DUP1 PUSH1 0x64 TIMESTAMP CALLER PUSH1 0x40 MLOAD PUSH1 0x20 ADD PUSH2 0xB0D SWAP3 SWAP2 SWAP1 SWAP2 DUP3 MSTORE PUSH1 0x60 SHL PUSH12 0xFFFFFFFFFFFFFFFFFFFFFFFF NOT AND PUSH1 0x20 DUP3 ADD MSTORE PUSH1 0x34 ADD SWAP1 JUMP JUMPDEST PUSH1 0x40 MLOAD PUSH1 0x20 DUP2 DUP4 SUB SUB DUP2 MSTORE SWAP1 PUSH1 0x40 MSTORE DUP1 MLOAD SWAP1 PUSH1 0x20 ADD KECCAK256 PUSH1 0x0 SHR PUSH2 0xB30 SWAP2 SWAP1 PUSH2 0x2741 JUMP JUMPDEST SWAP1 POP PUSH1 0x32 DUP2 LT PUSH2 0xCDB JUMPI PUSH1 0x41 DUP2 LT ISZERO PUSH2 0xB87 JUMPI PUSH1 0xC8 PUSH1 0x6 DUP5 DUP2 SLOAD DUP2 LT PUSH2 0xB58 JUMPI PUSH2 0xB58 PUSH2 0x2584 JUMP JUMPDEST SWAP1 PUSH1 0x0 MSTORE PUSH1 0x20 PUSH1 0x0 KECCAK256 SWAP1 PUSH1 0x7 MUL ADD PUSH1 0x0 ADD PUSH1 0x0 DUP3 DUP3 SLOAD PUSH2 0xB78 SWAP2 SWAP1 PUSH2 0x2571 JUMP JUMPDEST SWAP1 SWAP2 SSTORE POP PUSH1 0x1 SWAP3 POP PUSH2 0xCDB SWAP1 POP JUMP JUMPDEST PUSH1 0x55 DUP2 LT ISZERO PUSH2 0xC4C JUMPI PUSH1 0x2 PUSH1 0x6 DUP5 DUP2 SLOAD DUP2 LT PUSH2 0xBA5 JUMPI PUSH2 0xBA5 PUSH2 0x2584 JUMP JUMPDEST SWAP1 PUSH1 0x0 MSTORE PUSH1 0x20 PUSH1 0x0 KECCAK256 SWAP1 PUSH1 0x7 MUL ADD PUSH1 0x2 ADD PUSH1 0x0 DUP3 DUP3 SLOAD PUSH2 0xBC5 SWAP2 SWAP1 PUSH2 0x2571 JUMP JUMPDEST SWAP3 POP POP DUP2 SWAP1 SSTORE POP PUSH1 0x2 PUSH1 0x6 DUP5 DUP2 SLOAD DUP2 LT PUSH2 0xBE1 JUMPI PUSH2 0xBE1 PUSH2 0x2584 JUMP JUMPDEST SWAP1 PUSH1 0x0 MSTORE PUSH1 0x20 PUSH1 0x0 KECCAK256 SWAP1 PUSH1 0x7 MUL ADD PUSH1 0x4 ADD PUSH1 0x0 DUP3 DUP3 SLOAD PUSH2 0xC01 SWAP2 SWAP1 PUSH2 0x2571 JUMP JUMPDEST SWAP3 POP POP DUP2 SWAP1 SSTORE POP PUSH1 0x2 PUSH1 0x6 DUP5 DUP2 SLOAD DUP2 LT PUSH2 0xC1D JUMPI PUSH2 0xC1D PUSH2 0x2584 JUMP JUMPDEST SWAP1 PUSH1 0x0 MSTORE PUSH1 0x20 PUSH1 0x0 KECCAK256 SWAP1 PUSH1 0x7 MUL ADD PUSH1 0x5 ADD PUSH1 0x0 DUP3 DUP3 SLOAD PUSH2 0xC3D SWAP2 SWAP1 PUSH2 0x2571 JUMP JUMPDEST SWAP1 SWAP2 SSTORE POP PUSH1 0x2 SWAP3 POP PUSH2 0xCDB SWAP1 POP JUMP JUMPDEST PUSH1 0x0 JUMPDEST PUSH1 0x6 SLOAD DUP2 LT ISZERO PUSH2 0xCD5 JUMPI PUSH2 0xC9C PUSH1 0x64 PUSH2 0xC96 PUSH1 0x5A PUSH1 0x6 DUP6 DUP2 SLOAD DUP2 LT PUSH2 0xC76 JUMPI PUSH2 0xC76 PUSH2 0x2584 JUMP JUMPDEST SWAP1 PUSH1 0x0 MSTORE PUSH1 0x20 PUSH1 0x0 KECCAK256 SWAP1 PUSH1 0x7 MUL ADD PUSH1 0x3 ADD SLOAD PUSH2 0x22B3 SWAP1 SWAP2 SWAP1 PUSH4 0xFFFFFFFF AND JUMP JUMPDEST SWAP1 PUSH2 0x22C8 JUMP JUMPDEST PUSH1 0x6 DUP3 DUP2 SLOAD DUP2 LT PUSH2 0xCAF JUMPI PUSH2 0xCAF PUSH2 0x2584 JUMP JUMPDEST PUSH1 0x0 SWAP2 DUP3 MSTORE PUSH1 0x20 SWAP1 SWAP2 KECCAK256 PUSH1 0x3 PUSH1 0x7 SWAP1 SWAP3 MUL ADD ADD SSTORE DUP1 PUSH2 0xCCD DUP2 PUSH2 0x2755 JUMP JUMPDEST SWAP2 POP POP PUSH2 0xC4F JUMP JUMPDEST POP PUSH1 0x3 SWAP2 POP JUMPDEST CALLER PUSH1 0x0 SWAP1 DUP2 MSTORE PUSH1 0x9 PUSH1 0x20 MSTORE PUSH1 0x40 DUP2 KECCAK256 PUSH1 0x1 SWAP1 DUP2 ADD DUP1 SLOAD SWAP2 SWAP3 SWAP1 SWAP2 PUSH2 0xD00 SWAP1 DUP5 SWAP1 PUSH2 0x2571 JUMP JUMPDEST SWAP1 SWAP2 SSTORE POP PUSH2 0xD0E SWAP1 POP PUSH2 0x12EF JUMP JUMPDEST PUSH32 0x963F55B912749794FC60E09989F975D99E32135EBDC74C70CE5CA23C86828A77 CALLER PUSH1 0x6 DUP6 DUP2 SLOAD DUP2 LT PUSH2 0xD43 JUMPI PUSH2 0xD43 PUSH2 0x2584 JUMP JUMPDEST SWAP1 PUSH1 0x0 MSTORE PUSH1 0x20 PUSH1 0x0 KECCAK256 SWAP1 PUSH1 0x7 MUL ADD PUSH1 0x1 ADD DUP5 PUSH1 0x40 MLOAD PUSH2 0xD64 SWAP4 SWAP3 SWAP2 SWAP1 PUSH2 0x2651 JUMP JUMPDEST PUSH1 0x40 MLOAD DUP1 SWAP2 SUB SWAP1 LOG1 POP POP POP JUMP JUMPDEST PUSH1 0x6 DUP2 DUP2 SLOAD DUP2 LT PUSH2 0xD81 JUMPI PUSH1 0x0 DUP1 REVERT JUMPDEST PUSH1 0x0 SWAP2 DUP3 MSTORE PUSH1 0x20 SWAP1 SWAP2 KECCAK256 PUSH1 0x7 SWAP1 SWAP2 MUL ADD DUP1 SLOAD PUSH1 0x1 DUP3 ADD DUP1 SLOAD SWAP2 SWAP4 POP SWAP1 PUSH2 0xDA6 SWAP1 PUSH2 0x259A JUMP JUMPDEST DUP1 PUSH1 0x1F ADD PUSH1 0x20 DUP1 SWAP2 DIV MUL PUSH1 0x20 ADD PUSH1 0x40 MLOAD SWAP1 DUP2 ADD PUSH1 0x40 MSTORE DUP1 SWAP3 SWAP2 SWAP1 DUP2 DUP2 MSTORE PUSH1 0x20 ADD DUP3 DUP1 SLOAD PUSH2 0xDD2 SWAP1 PUSH2 0x259A JUMP JUMPDEST DUP1 ISZERO PUSH2 0xE1F JUMPI DUP1 PUSH1 0x1F LT PUSH2 0xDF4 JUMPI PUSH2 0x100 DUP1 DUP4 SLOAD DIV MUL DUP4 MSTORE SWAP2 PUSH1 0x20 ADD SWAP2 PUSH2 0xE1F JUMP JUMPDEST DUP3 ADD SWAP2 SWAP1 PUSH1 0x0 MSTORE PUSH1 0x20 PUSH1 0x0 KECCAK256 SWAP1 JUMPDEST DUP2 SLOAD DUP2 MSTORE SWAP1 PUSH1 0x1 ADD SWAP1 PUSH1 0x20 ADD DUP1 DUP4 GT PUSH2 0xE02 JUMPI DUP3 SWAP1 SUB PUSH1 0x1F AND DUP3 ADD SWAP2 JUMPDEST POP POP POP POP POP SWAP1 DUP1 PUSH1 0x2 ADD SLOAD SWAP1 DUP1 PUSH1 0x3 ADD SLOAD SWAP1 DUP1 PUSH1 0x4 ADD SLOAD SWAP1 DUP1 PUSH1 0x5 ADD SLOAD SWAP1 DUP1 PUSH1 0x6 ADD SLOAD SWAP1 POP DUP8 JUMP JUMPDEST CALLER PUSH1 0x0 DUP2 DUP2 MSTORE PUSH1 0x7 PUSH1 0x20 SWAP1 DUP2 MSTORE PUSH1 0x40 DUP1 DUP4 KECCAK256 SLOAD DUP4 MSTORE PUSH1 0xA SWAP1 SWAP2 MSTORE SWAP1 KECCAK256 SLOAD PUSH1 0x1 PUSH1 0x1 PUSH1 0xA0 SHL SUB AND EQ DUP1 PUSH2 0xE9C JUMPI POP CALLER PUSH1 0x0 DUP2 DUP2 MSTORE PUSH1 0x7 PUSH1 0x20 SWAP1 DUP2 MSTORE PUSH1 0x40 DUP1 DUP4 KECCAK256 SLOAD DUP4 MSTORE PUSH1 0xB SWAP1 SWAP2 MSTORE SWAP1 KECCAK256 SLOAD PUSH1 0x1 PUSH1 0x1 PUSH1 0xA0 SHL SUB AND EQ JUMPDEST PUSH2 0xEB8 JUMPI PUSH1 0x40 MLOAD PUSH3 0x461BCD PUSH1 0xE5 SHL DUP2 MSTORE PUSH1 0x4 ADD PUSH2 0x43E SWAP1 PUSH2 0x276E JUMP JUMPDEST PUSH1 0x1 PUSH1 0x1 PUSH1 0xA0 SHL SUB DUP2 AND PUSH1 0x0 SWAP1 DUP2 MSTORE PUSH1 0x7 PUSH1 0x20 MSTORE PUSH1 0x40 DUP1 DUP3 KECCAK256 SLOAD CALLER DUP4 MSTORE SWAP2 KECCAK256 SLOAD EQ PUSH2 0xF3E JUMPI PUSH1 0x40 MLOAD PUSH3 0x461BCD PUSH1 0xE5 SHL DUP2 MSTORE PUSH1 0x20 PUSH1 0x4 DUP3 ADD MSTORE PUSH1 0x30 PUSH1 0x24 DUP3 ADD MSTORE PUSH32 0x43616E6E6F742074616B6520736F6D656F6E65206F6E20616E6F746865722074 PUSH1 0x44 DUP3 ADD MSTORE PUSH16 0x32B0B69037BABA1037B3103530B4B617 PUSH1 0x81 SHL PUSH1 0x64 DUP3 ADD MSTORE PUSH1 0x84 ADD PUSH2 0x43E JUMP JUMPDEST PUSH1 0x1 PUSH1 0x1 PUSH1 0xA0 SHL SUB DUP2 AND PUSH1 0x0 SWAP1 DUP2 MSTORE PUSH1 0x8 PUSH1 0x20 SWAP1 DUP2 MSTORE PUSH1 0x40 DUP1 DUP4 KECCAK256 DUP1 SLOAD PUSH1 0xFF NOT AND SWAP1 SSTORE PUSH1 0x7 SWAP1 SWAP2 MSTORE SWAP1 KECCAK256 SLOAD PUSH1 0x6 DUP1 SLOAD PUSH32 0x7C892458D566E30087DE155713D0B373EE96B70E37B90D1F057ABAB145B40666 SWAP3 DUP5 SWAP3 SWAP2 DUP2 LT PUSH2 0xFA0 JUMPI PUSH2 0xFA0 PUSH2 0x2584 JUMP JUMPDEST SWAP1 PUSH1 0x0 MSTORE PUSH1 0x20 PUSH1 0x0 KECCAK256 SWAP1 PUSH1 0x7 MUL ADD PUSH1 0x1 ADD PUSH1 0x40 MLOAD PUSH2 0xFBF SWAP3 SWAP2 SWAP1 PUSH2 0x26AF JUMP JUMPDEST PUSH1 0x40 MLOAD DUP1 SWAP2 SUB SWAP1 LOG1 POP JUMP JUMPDEST PUSH1 0x3 SLOAD PUSH1 0xFF AND PUSH2 0xFEC JUMPI PUSH1 0x40 MLOAD PUSH3 0x461BCD PUSH1 0xE5 SHL DUP2 MSTORE PUSH1 0x4 ADD PUSH2 0x43E SWAP1 PUSH2 0x26DB JUMP JUMPDEST CALLER PUSH1 0x0 SWAP1 DUP2 MSTORE PUSH1 0x8 PUSH1 0x20 MSTORE PUSH1 0x40 SWAP1 KECCAK256 SLOAD PUSH1 0xFF AND ISZERO PUSH2 0x101C JUMPI PUSH1 0x40 MLOAD PUSH3 0x461BCD PUSH1 0xE5 SHL DUP2 MSTORE PUSH1 0x4 ADD PUSH2 0x43E SWAP1 PUSH2 0x2712 JUMP JUMPDEST CALLER PUSH1 0x0 SWAP1 DUP2 MSTORE PUSH1 0x7 PUSH1 0x20 MSTORE PUSH1 0x40 SWAP1 KECCAK256 SLOAD PUSH1 0x6 DUP1 SLOAD PUSH1 0x1 SWAP2 SWAP1 DUP4 SWAP1 DUP2 LT PUSH2 0x1044 JUMPI PUSH2 0x1044 PUSH2 0x2584 JUMP JUMPDEST SWAP1 PUSH1 0x0 MSTORE PUSH1 0x20 PUSH1 0x0 KECCAK256 SWAP1 PUSH1 0x7 MUL ADD PUSH1 0x0 ADD SLOAD LT ISZERO PUSH2 0x10B0 JUMPI PUSH1 0x40 MLOAD PUSH3 0x461BCD PUSH1 0xE5 SHL DUP2 MSTORE PUSH1 0x20 PUSH1 0x4 DUP3 ADD MSTORE PUSH1 0x23 PUSH1 0x24 DUP3 ADD MSTORE PUSH32 0x4E6F7420656E6F756768206D6F6E657920746F207570677261646520656E6769 PUSH1 0x44 DUP3 ADD MSTORE PUSH3 0x373297 PUSH1 0xE9 SHL PUSH1 0x64 DUP3 ADD MSTORE PUSH1 0x84 ADD PUSH2 0x43E JUMP JUMPDEST PUSH2 0x10DF PUSH1 0x1 PUSH1 0x6 DUP4 DUP2 SLOAD DUP2 LT PUSH2 0x10C8 JUMPI PUSH2 0x10C8 PUSH2 0x2584 JUMP JUMPDEST PUSH1 0x0 SWAP2 DUP3 MSTORE PUSH1 0x20 SWAP1 SWAP2 KECCAK256 PUSH1 0x7 SWAP1 SWAP2 MUL ADD SLOAD SWAP1 PUSH2 0x22D4 JUMP JUMPDEST PUSH1 0x6 DUP3 DUP2 SLOAD DUP2 LT PUSH2 0x10F2 JUMPI PUSH2 0x10F2 PUSH2 0x2584 JUMP JUMPDEST SWAP1 PUSH1 0x0 MSTORE PUSH1 0x20 PUSH1 0x0 KECCAK256 SWAP1 PUSH1 0x7 MUL ADD PUSH1 0x0 ADD DUP2 SWAP1 SSTORE POP PUSH2 0x113F PUSH1 0x1 PUSH1 0x6 DUP4 DUP2 SLOAD DUP2 LT PUSH2 0x111F JUMPI PUSH2 0x111F PUSH2 0x2584 JUMP JUMPDEST SWAP1 PUSH1 0x0 MSTORE PUSH1 0x20 PUSH1 0x0 KECCAK256 SWAP1 PUSH1 0x7 MUL ADD PUSH1 0x2 ADD SLOAD PUSH2 0x22E0 SWAP1 SWAP2 SWAP1 PUSH4 0xFFFFFFFF AND JUMP JUMPDEST PUSH1 0x6 DUP3 DUP2 SLOAD DUP2 LT PUSH2 0x1152 JUMPI PUSH2 0x1152 PUSH2 0x2584 JUMP JUMPDEST SWAP1 PUSH1 0x0 MSTORE PUSH1 0x20 PUSH1 0x0 KECCAK256 SWAP1 PUSH1 0x7 MUL ADD PUSH1 0x2 ADD DUP2 SWAP1 SSTORE POP PUSH1 0x1 PUSH1 0x9 PUSH1 0x0 CALLER PUSH1 0x1 PUSH1 0x1 PUSH1 0xA0 SHL SUB AND PUSH1 0x1 PUSH1 0x1 PUSH1 0xA0 SHL SUB AND DUP2 MSTORE PUSH1 0x20 ADD SWAP1 DUP2 MSTORE PUSH1 0x20 ADD PUSH1 0x0 KECCAK256 PUSH1 0x1 ADD PUSH1 0x0 DUP3 DUP3 SLOAD PUSH2 0x11A0 SWAP2 SWAP1 PUSH2 0x2571 JUMP JUMPDEST SWAP1 SWAP2 SSTORE POP PUSH2 0x11AE SWAP1 POP PUSH2 0x12EF JUMP JUMPDEST PUSH32 0xFDBB5B39CF560CD0A57D2342B964C7D29F734F63B301D6389A860883FCCDF697 CALLER PUSH1 0x6 DUP4 DUP2 SLOAD DUP2 LT PUSH2 0xFA0 JUMPI PUSH2 0xFA0 PUSH2 0x2584 JUMP JUMPDEST PUSH1 0x0 SLOAD PUSH1 0x1 PUSH1 0x1 PUSH1 0xA0 SHL SUB AND CALLER EQ PUSH2 0x1248 JUMPI PUSH1 0x40 MLOAD PUSH3 0x461BCD PUSH1 0xE5 SHL DUP2 MSTORE PUSH1 0x20 PUSH1 0x4 DUP3 ADD MSTORE PUSH1 0x22 PUSH1 0x24 DUP3 ADD MSTORE PUSH32 0x4F6E6C7920746865206F776E65722063616E2073746172742074686520726163 PUSH1 0x44 DUP3 ADD MSTORE PUSH2 0x3297 PUSH1 0xF1 SHL PUSH1 0x64 DUP3 ADD MSTORE PUSH1 0x84 ADD PUSH2 0x43E JUMP JUMPDEST PUSH1 0x3 SLOAD PUSH1 0xFF AND ISZERO PUSH2 0x1293 JUMPI PUSH1 0x40 MLOAD PUSH3 0x461BCD PUSH1 0xE5 SHL DUP2 MSTORE PUSH1 0x20 PUSH1 0x4 DUP3 ADD MSTORE PUSH1 0x15 PUSH1 0x24 DUP3 ADD MSTORE PUSH21 0x23B0B6B29030B63932B0B23C9039BA30B93A32B217 PUSH1 0x59 SHL PUSH1 0x44 DUP3 ADD MSTORE PUSH1 0x64 ADD PUSH2 0x43E JUMP JUMPDEST PUSH1 0x3 DUP1 SLOAD PUSH1 0xFF NOT AND PUSH1 0x1 OR SWAP1 SSTORE PUSH1 0x0 JUMPDEST PUSH1 0x6 SLOAD DUP2 LT ISZERO PUSH2 0x12E8 JUMPI PUSH1 0x1 PUSH1 0x6 DUP3 DUP2 SLOAD DUP2 LT PUSH2 0x12C2 JUMPI PUSH2 0x12C2 PUSH2 0x2584 JUMP JUMPDEST PUSH1 0x0 SWAP2 DUP3 MSTORE PUSH1 0x20 SWAP1 SWAP2 KECCAK256 PUSH1 0x2 PUSH1 0x7 SWAP1 SWAP3 MUL ADD ADD SSTORE DUP1 PUSH2 0x12E0 DUP2 PUSH2 0x2755 JUMP JUMPDEST SWAP2 POP POP PUSH2 0x12A3 JUMP JUMPDEST POP TIMESTAMP PUSH1 0x5 SSTORE JUMP JUMPDEST PUSH1 0x3 SLOAD PUSH1 0xFF AND PUSH2 0x1311 JUMPI PUSH1 0x40 MLOAD PUSH3 0x461BCD PUSH1 0xE5 SHL DUP2 MSTORE PUSH1 0x4 ADD PUSH2 0x43E SWAP1 PUSH2 0x26DB JUMP JUMPDEST PUSH1 0x0 JUMPDEST PUSH1 0x6 SLOAD DUP2 LT ISZERO PUSH2 0x1427 JUMPI PUSH1 0x0 PUSH1 0x5 SLOAD TIMESTAMP PUSH2 0x132E SWAP2 SWAP1 PUSH2 0x269C JUMP JUMPDEST SWAP1 POP DUP1 PUSH1 0x6 DUP4 DUP2 SLOAD DUP2 LT PUSH2 0x1344 JUMPI PUSH2 0x1344 PUSH2 0x2584 JUMP JUMPDEST SWAP1 PUSH1 0x0 MSTORE PUSH1 0x20 PUSH1 0x0 KECCAK256 SWAP1 PUSH1 0x7 MUL ADD PUSH1 0x2 ADD SLOAD PUSH2 0x1360 SWAP2 SWAP1 PUSH2 0x2685 JUMP JUMPDEST PUSH1 0x6 DUP4 DUP2 SLOAD DUP2 LT PUSH2 0x1373 JUMPI PUSH2 0x1373 PUSH2 0x2584 JUMP JUMPDEST SWAP1 PUSH1 0x0 MSTORE PUSH1 0x20 PUSH1 0x0 KECCAK256 SWAP1 PUSH1 0x7 MUL ADD PUSH1 0x3 ADD PUSH1 0x0 DUP3 DUP3 SLOAD PUSH2 0x1393 SWAP2 SWAP1 PUSH2 0x2571 JUMP JUMPDEST SWAP1 SWAP2 SSTORE POP POP PUSH1 0x2 SLOAD PUSH1 0x6 DUP1 SLOAD DUP5 SWAP1 DUP2 LT PUSH2 0x13AF JUMPI PUSH2 0x13AF PUSH2 0x2584 JUMP JUMPDEST SWAP1 PUSH1 0x0 MSTORE PUSH1 0x20 PUSH1 0x0 KECCAK256 SWAP1 PUSH1 0x7 MUL ADD PUSH1 0x3 ADD SLOAD LT ISZERO DUP1 ISZERO PUSH2 0x13DB JUMPI POP PUSH1 0x1 DUP1 SLOAD PUSH2 0x13D7 SWAP1 PUSH2 0x259A JUMP JUMPDEST ISZERO SWAP1 POP JUMPDEST ISZERO PUSH2 0x1414 JUMPI PUSH1 0x6 DUP3 DUP2 SLOAD DUP2 LT PUSH2 0x13F3 JUMPI PUSH2 0x13F3 PUSH2 0x2584 JUMP JUMPDEST SWAP1 PUSH1 0x0 MSTORE PUSH1 0x20 PUSH1 0x0 KECCAK256 SWAP1 PUSH1 0x7 MUL ADD PUSH1 0x1 ADD PUSH1 0x1 SWAP1 DUP2 PUSH2 0x1412 SWAP2 SWAP1 PUSH2 0x27FF JUMP JUMPDEST POP JUMPDEST POP DUP1 PUSH2 0x141F DUP2 PUSH2 0x2755 JUMP JUMPDEST SWAP2 POP POP PUSH2 0x1314 JUMP JUMPDEST POP TIMESTAMP PUSH1 0x5 DUP2 SWAP1 SSTORE POP PUSH32 0x24EDE07B86B6E8AEEA97CE363C9B62C5A79ED1B54E95D3B017D17F66C75BC1A3 PUSH1 0x6 PUSH1 0x0 DUP2 SLOAD DUP2 LT PUSH2 0x1464 JUMPI PUSH2 0x1464 PUSH2 0x2584 JUMP JUMPDEST SWAP1 PUSH1 0x0 MSTORE PUSH1 0x20 PUSH1 0x0 KECCAK256 SWAP1 PUSH1 0x7 MUL ADD PUSH1 0x3 ADD SLOAD PUSH1 0x6 PUSH1 0x1 DUP2 SLOAD DUP2 LT PUSH2 0x148A JUMPI PUSH2 0x148A PUSH2 0x2584 JUMP JUMPDEST SWAP1 PUSH1 0x0 MSTORE PUSH1 0x20 PUSH1 0x0 KECCAK256 SWAP1 PUSH1 0x7 MUL ADD PUSH1 0x3 ADD SLOAD PUSH1 0x6 PUSH1 0x2 DUP2 SLOAD DUP2 LT PUSH2 0x14B0 JUMPI PUSH2 0x14B0 PUSH2 0x2584 JUMP JUMPDEST SWAP1 PUSH1 0x0 MSTORE PUSH1 0x20 PUSH1 0x0 KECCAK256 SWAP1 PUSH1 0x7 MUL ADD PUSH1 0x3 ADD SLOAD PUSH1 0x6 PUSH1 0x3 DUP2 SLOAD DUP2 LT PUSH2 0x14D6 JUMPI PUSH2 0x14D6 PUSH2 0x2584 JUMP JUMPDEST PUSH1 0x0 SWAP2 DUP3 MSTORE PUSH1 0x20 SWAP2 DUP3 SWAP1 KECCAK256 PUSH1 0x3 PUSH1 0x7 SWAP1 SWAP3 MUL ADD ADD SLOAD PUSH1 0x40 DUP1 MLOAD SWAP6 DUP7 MSTORE SWAP2 DUP6 ADD SWAP4 SWAP1 SWAP4 MSTORE DUP4 ADD MSTORE PUSH1 0x60 DUP3 ADD MSTORE PUSH1 0x80 ADD PUSH1 0x40 MLOAD DUP1 SWAP2 SUB SWAP1 LOG1 JUMP JUMPDEST PUSH1 0x0 SLOAD PUSH1 0x1 PUSH1 0x1 PUSH1 0xA0 SHL SUB AND CALLER EQ PUSH2 0x1572 JUMPI PUSH1 0x40 MLOAD PUSH3 0x461BCD PUSH1 0xE5 SHL DUP2 MSTORE PUSH1 0x20 PUSH1 0x4 DUP3 ADD MSTORE PUSH1 0x21 PUSH1 0x24 DUP3 ADD MSTORE PUSH32 0x4F6E6C7920746865206F776E65722063616E207069636B206361707461696E73 PUSH1 0x44 DUP3 ADD MSTORE PUSH1 0x17 PUSH1 0xF9 SHL PUSH1 0x64 DUP3 ADD MSTORE PUSH1 0x84 ADD PUSH2 0x43E JUMP JUMPDEST PUSH1 0x1 PUSH1 0x1 PUSH1 0xA0 SHL SUB AND PUSH1 0x0 DUP2 DUP2 MSTORE PUSH1 0x7 PUSH1 0x20 SWAP1 DUP2 MSTORE PUSH1 0x40 DUP1 DUP4 KECCAK256 SLOAD DUP4 MSTORE PUSH1 0xA SWAP1 SWAP2 MSTORE SWAP1 KECCAK256 DUP1 SLOAD PUSH1 0x1 PUSH1 0x1 PUSH1 0xA0 SHL SUB NOT AND SWAP1 SWAP2 OR SWAP1 SSTORE POP JUMP JUMPDEST PUSH1 0x3 SLOAD PUSH1 0xFF AND PUSH2 0x15CC JUMPI PUSH1 0x40 MLOAD PUSH3 0x461BCD PUSH1 0xE5 SHL DUP2 MSTORE PUSH1 0x4 ADD PUSH2 0x43E SWAP1 PUSH2 0x26DB JUMP JUMPDEST CALLER PUSH1 0x0 SWAP1 DUP2 MSTORE PUSH1 0x8 PUSH1 0x20 MSTORE PUSH1 0x40 SWAP1 KECCAK256 SLOAD PUSH1 0xFF AND ISZERO PUSH2 0x15FC JUMPI PUSH1 0x40 MLOAD PUSH3 0x461BCD PUSH1 0xE5 SHL DUP2 MSTORE PUSH1 0x4 ADD PUSH2 0x43E SWAP1 PUSH2 0x2712 JUMP JUMPDEST CALLER PUSH1 0x0 SWAP1 DUP2 MSTORE PUSH1 0x7 PUSH1 0x20 MSTORE PUSH1 0x40 SWAP1 KECCAK256 SLOAD PUSH1 0x6 DUP1 SLOAD PUSH1 0x1 SWAP2 SWAP1 DUP4 SWAP1 DUP2 LT PUSH2 0x1624 JUMPI PUSH2 0x1624 PUSH2 0x2584 JUMP JUMPDEST SWAP1 PUSH1 0x0 MSTORE PUSH1 0x20 PUSH1 0x0 KECCAK256 SWAP1 PUSH1 0x7 MUL ADD PUSH1 0x0 ADD SLOAD LT ISZERO PUSH2 0x1690 JUMPI PUSH1 0x40 MLOAD PUSH3 0x461BCD PUSH1 0xE5 SHL DUP2 MSTORE PUSH1 0x20 PUSH1 0x4 DUP3 ADD MSTORE PUSH1 0x23 PUSH1 0x24 DUP3 ADD MSTORE PUSH32 0x4E6F7420656E6F756768206D6F6E657920746F20757067726164652061747461 PUSH1 0x44 DUP3 ADD MSTORE PUSH3 0x31B597 PUSH1 0xE9 SHL PUSH1 0x64 DUP3 ADD MSTORE PUSH1 0x84 ADD PUSH2 0x43E JUMP JUMPDEST PUSH2 0x16A8 PUSH1 0x1 PUSH1 0x6 DUP4 DUP2 SLOAD DUP2 LT PUSH2 0x10C8 JUMPI PUSH2 0x10C8 PUSH2 0x2584 JUMP JUMPDEST PUSH1 0x6 DUP3 DUP2 SLOAD DUP2 LT PUSH2 0x16BB JUMPI PUSH2 0x16BB PUSH2 0x2584 JUMP JUMPDEST SWAP1 PUSH1 0x0 MSTORE PUSH1 0x20 PUSH1 0x0 KECCAK256 SWAP1 PUSH1 0x7 MUL ADD PUSH1 0x0 ADD DUP2 SWAP1 SSTORE POP PUSH2 0x1708 PUSH1 0x1 PUSH1 0x6 DUP4 DUP2 SLOAD DUP2 LT PUSH2 0x16E8 JUMPI PUSH2 0x16E8 PUSH2 0x2584 JUMP JUMPDEST SWAP1 PUSH1 0x0 MSTORE PUSH1 0x20 PUSH1 0x0 KECCAK256 SWAP1 PUSH1 0x7 MUL ADD PUSH1 0x5 ADD SLOAD PUSH2 0x22E0 SWAP1 SWAP2 SWAP1 PUSH4 0xFFFFFFFF AND JUMP JUMPDEST PUSH1 0x6 DUP3 DUP2 SLOAD DUP2 LT PUSH2 0x171B JUMPI PUSH2 0x171B PUSH2 0x2584 JUMP JUMPDEST SWAP1 PUSH1 0x0 MSTORE PUSH1 0x20 PUSH1 0x0 KECCAK256 SWAP1 PUSH1 0x7 MUL ADD PUSH1 0x5 ADD DUP2 SWAP1 SSTORE POP PUSH1 0x1 PUSH1 0x9 PUSH1 0x0 CALLER PUSH1 0x1 PUSH1 0x1 PUSH1 0xA0 SHL SUB AND PUSH1 0x1 PUSH1 0x1 PUSH1 0xA0 SHL SUB AND DUP2 MSTORE PUSH1 0x20 ADD SWAP1 DUP2 MSTORE PUSH1 0x20 ADD PUSH1 0x0 KECCAK256 PUSH1 0x1 ADD PUSH1 0x0 DUP3 DUP3 SLOAD PUSH2 0x1769 SWAP2 SWAP1 PUSH2 0x2571 JUMP JUMPDEST SWAP1 SWAP2 SSTORE POP PUSH2 0x1777 SWAP1 POP PUSH2 0x12EF JUMP JUMPDEST PUSH32 0x7C0725A32355C8362AAA495B37BDB3B9CFCC9FC46DBF2B0C85E7CCCE4669E6B8 CALLER PUSH1 0x6 DUP4 DUP2 SLOAD DUP2 LT PUSH2 0xFA0 JUMPI PUSH2 0xFA0 PUSH2 0x2584 JUMP JUMPDEST PUSH1 0x3 SLOAD PUSH1 0xFF AND PUSH2 0x17CE JUMPI PUSH1 0x40 MLOAD PUSH3 0x461BCD PUSH1 0xE5 SHL DUP2 MSTORE PUSH1 0x4 ADD PUSH2 0x43E SWAP1 PUSH2 0x26DB JUMP JUMPDEST CALLER PUSH1 0x0 SWAP1 DUP2 MSTORE PUSH1 0x8 PUSH1 0x20 MSTORE PUSH1 0x40 SWAP1 KECCAK256 SLOAD PUSH1 0xFF AND ISZERO PUSH2 0x17FE JUMPI PUSH1 0x40 MLOAD PUSH3 0x461BCD PUSH1 0xE5 SHL DUP2 MSTORE PUSH1 0x4 ADD PUSH2 0x43E SWAP1 PUSH2 0x2712 JUMP JUMPDEST CALLER PUSH1 0x0 SWAP1 DUP2 MSTORE PUSH1 0x7 PUSH1 0x20 MSTORE PUSH1 0x40 SWAP1 KECCAK256 SLOAD PUSH1 0x6 DUP1 SLOAD PUSH1 0x1 SWAP2 SWAP1 DUP4 SWAP1 DUP2 LT PUSH2 0x1826 JUMPI PUSH2 0x1826 PUSH2 0x2584 JUMP JUMPDEST SWAP1 PUSH1 0x0 MSTORE PUSH1 0x20 PUSH1 0x0 KECCAK256 SWAP1 PUSH1 0x7 MUL ADD PUSH1 0x0 ADD SLOAD LT ISZERO PUSH2 0x1892 JUMPI PUSH1 0x40 MLOAD PUSH3 0x461BCD PUSH1 0xE5 SHL DUP2 MSTORE PUSH1 0x20 PUSH1 0x4 DUP3 ADD MSTORE PUSH1 0x24 DUP1 DUP3 ADD MSTORE PUSH32 0x4E6F7420656E6F756768206D6F6E657920746F20757067726164652064656665 PUSH1 0x44 DUP3 ADD MSTORE PUSH4 0x3739B297 PUSH1 0xE1 SHL PUSH1 0x64 DUP3 ADD MSTORE PUSH1 0x84 ADD PUSH2 0x43E JUMP JUMPDEST PUSH2 0x18AA PUSH1 0x1 PUSH1 0x6 DUP4 DUP2 SLOAD DUP2 LT PUSH2 0x10C8 JUMPI PUSH2 0x10C8 PUSH2 0x2584 JUMP JUMPDEST PUSH1 0x6 DUP3 DUP2 SLOAD DUP2 LT PUSH2 0x18BD JUMPI PUSH2 0x18BD PUSH2 0x2584 JUMP JUMPDEST SWAP1 PUSH1 0x0 MSTORE PUSH1 0x20 PUSH1 0x0 KECCAK256 SWAP1 PUSH1 0x7 MUL ADD PUSH1 0x0 ADD DUP2 SWAP1 SSTORE POP PUSH2 0x190A PUSH1 0x1 PUSH1 0x6 DUP4 DUP2 SLOAD DUP2 LT PUSH2 0x18EA JUMPI PUSH2 0x18EA PUSH2 0x2584 JUMP JUMPDEST SWAP1 PUSH1 0x0 MSTORE PUSH1 0x20 PUSH1 0x0 KECCAK256 SWAP1 PUSH1 0x7 MUL ADD PUSH1 0x4 ADD SLOAD PUSH2 0x22E0 SWAP1 SWAP2 SWAP1 PUSH4 0xFFFFFFFF AND JUMP JUMPDEST PUSH1 0x6 DUP3 DUP2 SLOAD DUP2 LT PUSH2 0x191D JUMPI PUSH2 0x191D PUSH2 0x2584 JUMP JUMPDEST SWAP1 PUSH1 0x0 MSTORE PUSH1 0x20 PUSH1 0x0 KECCAK256 SWAP1 PUSH1 0x7 MUL ADD PUSH1 0x4 ADD DUP2 SWAP1 SSTORE POP PUSH1 0x1 PUSH1 0x9 PUSH1 0x0 CALLER PUSH1 0x1 PUSH1 0x1 PUSH1 0xA0 SHL SUB AND PUSH1 0x1 PUSH1 0x1 PUSH1 0xA0 SHL SUB AND DUP2 MSTORE PUSH1 0x20 ADD SWAP1 DUP2 MSTORE PUSH1 0x20 ADD PUSH1 0x0 KECCAK256 PUSH1 0x1 ADD PUSH1 0x0 DUP3 DUP3 SLOAD PUSH2 0x196B SWAP2 SWAP1 PUSH2 0x2571 JUMP JUMPDEST SWAP1 SWAP2 SSTORE POP PUSH2 0x1979 SWAP1 POP PUSH2 0x12EF JUMP JUMPDEST PUSH32 0x7CCB3DD8C961E6D97590C65C2CFB6296766D9B731FF7B6F73E59B0BEB50EE2D4 CALLER PUSH1 0x6 DUP4 DUP2 SLOAD DUP2 LT PUSH2 0xFA0 JUMPI PUSH2 0xFA0 PUSH2 0x2584 JUMP JUMPDEST PUSH1 0x3 SLOAD PUSH1 0xFF AND PUSH2 0x19D0 JUMPI PUSH1 0x40 MLOAD PUSH3 0x461BCD PUSH1 0xE5 SHL DUP2 MSTORE PUSH1 0x4 ADD PUSH2 0x43E SWAP1 PUSH2 0x26DB JUMP JUMPDEST CALLER PUSH1 0x0 SWAP1 DUP2 MSTORE PUSH1 0x8 PUSH1 0x20 MSTORE PUSH1 0x40 SWAP1 KECCAK256 SLOAD PUSH1 0xFF AND ISZERO PUSH2 0x1A00 JUMPI PUSH1 0x40 MLOAD PUSH3 0x461BCD PUSH1 0xE5 SHL DUP2 MSTORE PUSH1 0x4 ADD PUSH2 0x43E SWAP1 PUSH2 0x2712 JUMP JUMPDEST PUSH1 0x6 SLOAD DUP2 LT PUSH2 0x1A48 JUMPI PUSH1 0x40 MLOAD PUSH3 0x461BCD PUSH1 0xE5 SHL DUP2 MSTORE PUSH1 0x20 PUSH1 0x4 DUP3 ADD MSTORE PUSH1 0x14 PUSH1 0x24 DUP3 ADD MSTORE PUSH20 0x24B73B30B634B2103A30B933B2BA103A32B0B697 PUSH1 0x61 SHL PUSH1 0x44 DUP3 ADD MSTORE PUSH1 0x64 ADD PUSH2 0x43E JUMP JUMPDEST CALLER PUSH1 0x0 SWAP1 DUP2 MSTORE PUSH1 0x7 PUSH1 0x20 MSTORE PUSH1 0x40 SWAP1 KECCAK256 SLOAD DUP2 SUB PUSH2 0x1AA6 JUMPI PUSH1 0x40 MLOAD PUSH3 0x461BCD PUSH1 0xE5 SHL DUP2 MSTORE PUSH1 0x20 PUSH1 0x4 DUP3 ADD MSTORE PUSH1 0x18 PUSH1 0x24 DUP3 ADD MSTORE PUSH32 0x43616E6E6F742066697265206174206F776E207465616D2E0000000000000000 PUSH1 0x44 DUP3 ADD MSTORE PUSH1 0x64 ADD PUSH2 0x43E JUMP JUMPDEST CALLER PUSH1 0x0 SWAP1 DUP2 MSTORE PUSH1 0x7 PUSH1 0x20 MSTORE PUSH1 0x40 DUP2 KECCAK256 SLOAD PUSH1 0x6 DUP1 SLOAD SWAP2 SWAP3 SWAP2 PUSH1 0x21 SWAP2 SWAP1 DUP6 SWAP1 DUP2 LT PUSH2 0x1AD1 JUMPI PUSH2 0x1AD1 PUSH2 0x2584 JUMP JUMPDEST SWAP1 PUSH1 0x0 MSTORE PUSH1 0x20 PUSH1 0x0 KECCAK256 SWAP1 PUSH1 0x7 MUL ADD PUSH1 0x4 ADD SLOAD PUSH1 0x6 DUP5 DUP2 SLOAD DUP2 LT PUSH2 0x1AF6 JUMPI PUSH2 0x1AF6 PUSH2 0x2584 JUMP JUMPDEST SWAP1 PUSH1 0x0 MSTORE PUSH1 0x20 PUSH1 0x0 KECCAK256 SWAP1 PUSH1 0x7 MUL ADD PUSH1 0x5 ADD SLOAD DUP3 PUSH2 0x1B13 SWAP2 SWAP1 PUSH2 0x2571 JUMP JUMPDEST LT ISZERO PUSH2 0x1B21 JUMPI POP PUSH1 0x1 PUSH2 0x1B84 JUMP JUMPDEST PUSH1 0x6 DUP5 DUP2 SLOAD DUP2 LT PUSH2 0x1B34 JUMPI PUSH2 0x1B34 PUSH2 0x2584 JUMP JUMPDEST SWAP1 PUSH1 0x0 MSTORE PUSH1 0x20 PUSH1 0x0 KECCAK256 SWAP1 PUSH1 0x7 MUL ADD PUSH1 0x4 ADD SLOAD PUSH1 0x6 DUP5 DUP2 SLOAD DUP2 LT PUSH2 0x1B59 JUMPI PUSH2 0x1B59 PUSH2 0x2584 JUMP JUMPDEST SWAP1 PUSH1 0x0 MSTORE PUSH1 0x20 PUSH1 0x0 KECCAK256 SWAP1 PUSH1 0x7 MUL ADD PUSH1 0x5 ADD SLOAD PUSH1 0x21 PUSH2 0x1B77 SWAP2 SWAP1 PUSH2 0x2571 JUMP JUMPDEST PUSH2 0x1B81 SWAP2 SWAP1 PUSH2 0x269C JUMP JUMPDEST SWAP1 POP JUMPDEST PUSH1 0x63 DUP2 GT ISZERO PUSH2 0x1B91 JUMPI POP PUSH1 0x63 JUMPDEST PUSH1 0x0 PUSH1 0x64 TIMESTAMP CALLER PUSH1 0x40 MLOAD PUSH1 0x20 ADD PUSH2 0x1BC3 SWAP3 SWAP2 SWAP1 SWAP2 DUP3 MSTORE PUSH1 0x60 SHL PUSH12 0xFFFFFFFFFFFFFFFFFFFFFFFF NOT AND PUSH1 0x20 DUP3 ADD MSTORE PUSH1 0x34 ADD SWAP1 JUMP JUMPDEST PUSH1 0x40 MLOAD PUSH1 0x20 DUP2 DUP4 SUB SUB DUP2 MSTORE SWAP1 PUSH1 0x40 MSTORE DUP1 MLOAD SWAP1 PUSH1 0x20 ADD KECCAK256 PUSH1 0x0 SHR PUSH2 0x1BE6 SWAP2 SWAP1 PUSH2 0x2741 JUMP JUMPDEST SWAP1 POP DUP2 DUP2 LT ISZERO PUSH2 0x1CC8 JUMPI PUSH2 0x1C0D PUSH1 0x64 PUSH2 0xC96 PUSH1 0x62 PUSH1 0x6 DUP10 DUP2 SLOAD DUP2 LT PUSH2 0xC76 JUMPI PUSH2 0xC76 PUSH2 0x2584 JUMP JUMPDEST PUSH1 0x6 DUP7 DUP2 SLOAD DUP2 LT PUSH2 0x1C20 JUMPI PUSH2 0x1C20 PUSH2 0x2584 JUMP JUMPDEST SWAP1 PUSH1 0x0 MSTORE PUSH1 0x20 PUSH1 0x0 KECCAK256 SWAP1 PUSH1 0x7 MUL ADD PUSH1 0x3 ADD DUP2 SWAP1 SSTORE POP PUSH1 0x3 PUSH1 0x6 DUP7 DUP2 SLOAD DUP2 LT PUSH2 0x1C4A JUMPI PUSH2 0x1C4A PUSH2 0x2584 JUMP JUMPDEST SWAP1 PUSH1 0x0 MSTORE PUSH1 0x20 PUSH1 0x0 KECCAK256 SWAP1 PUSH1 0x7 MUL ADD PUSH1 0x2 ADD SLOAD GT ISZERO PUSH2 0x1CC3 JUMPI PUSH2 0x1C9A PUSH1 0x2 PUSH1 0x6 DUP8 DUP2 SLOAD DUP2 LT PUSH2 0x1C7A JUMPI PUSH2 0x1C7A PUSH2 0x2584 JUMP JUMPDEST SWAP1 PUSH1 0x0 MSTORE PUSH1 0x20 PUSH1 0x0 KECCAK256 SWAP1 PUSH1 0x7 MUL ADD PUSH1 0x2 ADD SLOAD PUSH2 0x22D4 SWAP1 SWAP2 SWAP1 PUSH4 0xFFFFFFFF AND JUMP JUMPDEST PUSH1 0x6 DUP7 DUP2 SLOAD DUP2 LT PUSH2 0x1CAD JUMPI PUSH2 0x1CAD PUSH2 0x2584 JUMP JUMPDEST SWAP1 PUSH1 0x0 MSTORE PUSH1 0x20 PUSH1 0x0 KECCAK256 SWAP1 PUSH1 0x7 MUL ADD PUSH1 0x2 ADD DUP2 SWAP1 SSTORE POP JUMPDEST PUSH1 0x1 SWAP3 POP JUMPDEST CALLER PUSH1 0x0 SWAP1 DUP2 MSTORE PUSH1 0x9 PUSH1 0x20 MSTORE PUSH1 0x40 DUP2 KECCAK256 PUSH1 0x1 SWAP1 DUP2 ADD DUP1 SLOAD SWAP2 SWAP3 SWAP1 SWAP2 PUSH2 0x1CED SWAP1 DUP5 SWAP1 PUSH2 0x2571 JUMP JUMPDEST SWAP1 SWAP2 SSTORE POP PUSH2 0x1CFB SWAP1 POP PUSH2 0x12EF JUMP JUMPDEST PUSH32 0x1070E59B5639F0799BD97E9AA418E32193DB53C11A30E2BADAB45D1AC1F1E4E4 CALLER PUSH1 0x6 DUP7 DUP2 SLOAD DUP2 LT PUSH2 0x1D30 JUMPI PUSH2 0x1D30 PUSH2 0x2584 JUMP JUMPDEST SWAP1 PUSH1 0x0 MSTORE PUSH1 0x20 PUSH1 0x0 KECCAK256 SWAP1 PUSH1 0x7 MUL ADD PUSH1 0x1 ADD PUSH1 0x6 DUP9 DUP2 SLOAD DUP2 LT PUSH2 0x1D54 JUMPI PUSH2 0x1D54 PUSH2 0x2584 JUMP JUMPDEST SWAP1 PUSH1 0x0 MSTORE PUSH1 0x20 PUSH1 0x0 KECCAK256 SWAP1 PUSH1 0x7 MUL ADD PUSH1 0x1 ADD DUP7 PUSH1 0x40 MLOAD PUSH2 0x1D76 SWAP5 SWAP4 SWAP3 SWAP2 SWAP1 PUSH2 0x28E0 JUMP JUMPDEST PUSH1 0x40 MLOAD DUP1 SWAP2 SUB SWAP1 LOG1 POP POP POP POP POP JUMP JUMPDEST CALLER PUSH1 0x0 DUP2 DUP2 MSTORE PUSH1 0x7 PUSH1 0x20 SWAP1 DUP2 MSTORE PUSH1 0x40 DUP1 DUP4 KECCAK256 SLOAD DUP4 MSTORE PUSH1 0xA SWAP1 SWAP2 MSTORE SWAP1 KECCAK256 SLOAD PUSH1 0x1 PUSH1 0x1 PUSH1 0xA0 SHL SUB AND EQ DUP1 PUSH2 0x1DDA JUMPI POP CALLER PUSH1 0x0 DUP2 DUP2 MSTORE PUSH1 0x7 PUSH1 0x20 SWAP1 DUP2 MSTORE PUSH1 0x40 DUP1 DUP4 KECCAK256 SLOAD DUP4 MSTORE PUSH1 0xB SWAP1 SWAP2 MSTORE SWAP1 KECCAK256 SLOAD PUSH1 0x1 PUSH1 0x1 PUSH1 0xA0 SHL SUB AND EQ JUMPDEST PUSH2 0x1DF6 JUMPI PUSH1 0x40 MLOAD PUSH3 0x461BCD PUSH1 0xE5 SHL DUP2 MSTORE PUSH1 0x4 ADD PUSH2 0x43E SWAP1 PUSH2 0x276E JUMP JUMPDEST PUSH1 0x1 PUSH1 0x1 PUSH1 0xA0 SHL SUB DUP2 AND PUSH1 0x0 SWAP1 DUP2 MSTORE PUSH1 0x7 PUSH1 0x20 MSTORE PUSH1 0x40 DUP1 DUP3 KECCAK256 SLOAD CALLER DUP4 MSTORE SWAP2 KECCAK256 SLOAD EQ PUSH2 0x1E77 JUMPI PUSH1 0x40 MLOAD PUSH3 0x461BCD PUSH1 0xE5 SHL DUP2 MSTORE PUSH1 0x20 PUSH1 0x4 DUP3 ADD MSTORE PUSH1 0x2B PUSH1 0x24 DUP3 ADD MSTORE PUSH32 0x43616E6E6F742070757420736F6D656F6E65206F6E20616E6F74686572207465 PUSH1 0x44 DUP3 ADD MSTORE PUSH11 0x30B69034B7103530B4B617 PUSH1 0xA9 SHL PUSH1 0x64 DUP3 ADD MSTORE PUSH1 0x84 ADD PUSH2 0x43E JUMP JUMPDEST PUSH1 0x1 PUSH1 0x1 PUSH1 0xA0 SHL SUB DUP2 AND PUSH1 0x0 SWAP1 DUP2 MSTORE PUSH1 0x8 PUSH1 0x20 SWAP1 DUP2 MSTORE PUSH1 0x40 DUP1 DUP4 KECCAK256 DUP1 SLOAD PUSH1 0xFF NOT AND PUSH1 0x1 OR SWAP1 SSTORE PUSH1 0x7 SWAP1 SWAP2 MSTORE SWAP1 KECCAK256 SLOAD PUSH1 0x6 DUP1 SLOAD PUSH32 0x3A20C27241F03F182FDEA2523631CB8DBE89E8C84A05CDB19F6F804D58F8F3C7 SWAP3 DUP5 SWAP3 SWAP2 DUP2 LT PUSH2 0xFA0 JUMPI PUSH2 0xFA0 PUSH2 0x2584 JUMP JUMPDEST PUSH1 0x0 SLOAD PUSH1 0x1 PUSH1 0x1 PUSH1 0xA0 SHL SUB AND CALLER EQ PUSH2 0x1F41 JUMPI PUSH1 0x40 MLOAD PUSH3 0x461BCD PUSH1 0xE5 SHL DUP2 MSTORE PUSH1 0x20 PUSH1 0x4 DUP3 ADD MSTORE PUSH1 0x22 PUSH1 0x24 DUP3 ADD MSTORE PUSH32 0x4F6E6C7920746865206F776E65722063616E206E616D6520746865207465616D PUSH1 0x44 DUP3 ADD MSTORE PUSH2 0x3997 PUSH1 0xF1 SHL PUSH1 0x64 DUP3 ADD MSTORE PUSH1 0x84 ADD PUSH2 0x43E JUMP JUMPDEST DUP1 PUSH1 0x6 DUP4 DUP2 SLOAD DUP2 LT PUSH2 0x1F55 JUMPI PUSH2 0x1F55 PUSH2 0x2584 JUMP JUMPDEST SWAP1 PUSH1 0x0 MSTORE PUSH1 0x20 PUSH1 0x0 KECCAK256 SWAP1 PUSH1 0x7 MUL ADD PUSH1 0x1 ADD SWAP1 DUP2 PUSH2 0x1F72 SWAP2 SWAP1 PUSH2 0x292A JUMP JUMPDEST POP POP POP JUMP JUMPDEST CALLER PUSH1 0x0 DUP2 DUP2 MSTORE PUSH1 0x7 PUSH1 0x20 SWAP1 DUP2 MSTORE PUSH1 0x40 DUP1 DUP4 KECCAK256 SLOAD DUP4 MSTORE PUSH1 0xA SWAP1 SWAP2 MSTORE SWAP1 KECCAK256 SLOAD PUSH1 0x1 PUSH1 0x1 PUSH1 0xA0 SHL SUB AND EQ PUSH2 0x1FEA JUMPI PUSH1 0x40 MLOAD PUSH3 0x461BCD PUSH1 0xE5 SHL DUP2 MSTORE PUSH1 0x20 PUSH1 0x4 DUP3 ADD MSTORE PUSH1 0x1D PUSH1 0x24 DUP3 ADD MSTORE PUSH32 0x4F6E6C7920746865206361707461696E2063616E20646F20746869732E000000 PUSH1 0x44 DUP3 ADD MSTORE PUSH1 0x64 ADD PUSH2 0x43E JUMP JUMPDEST PUSH1 0x1 PUSH1 0x1 PUSH1 0xA0 SHL SUB DUP2 AND PUSH1 0x0 SWAP1 DUP2 MSTORE PUSH1 0x7 PUSH1 0x20 MSTORE PUSH1 0x40 DUP1 DUP3 KECCAK256 SLOAD CALLER DUP4 MSTORE SWAP2 KECCAK256 SLOAD EQ PUSH2 0x2057 JUMPI PUSH1 0x40 MLOAD PUSH3 0x461BCD PUSH1 0xE5 SHL DUP2 MSTORE PUSH1 0x20 PUSH1 0x4 DUP3 ADD DUP2 SWAP1 MSTORE PUSH1 0x24 DUP3 ADD MSTORE PUSH32 0x4669727374206D617465206D757374206265206F6E20796F7572207465616D2E PUSH1 0x44 DUP3 ADD MSTORE PUSH1 0x64 ADD PUSH2 0x43E JUMP JUMPDEST PUSH1 0x1 PUSH1 0x1 PUSH1 0xA0 SHL SUB DUP2 AND PUSH1 0x0 DUP2 DUP2 MSTORE PUSH1 0x7 PUSH1 0x20 DUP2 DUP2 MSTORE PUSH1 0x40 DUP1 DUP5 KECCAK256 SLOAD DUP5 MSTORE PUSH1 0xB DUP3 MSTORE DUP1 DUP5 KECCAK256 DUP1 SLOAD PUSH1 0x1 PUSH1 0x1 PUSH1 0xA0 SHL SUB NOT AND SWAP1 SWAP6 OR SWAP1 SWAP5 SSTORE CALLER DUP4 MSTORE MSTORE KECCAK256 SLOAD PUSH1 0x6 DUP1 SLOAD PUSH32 0x793CE8F0C70B280A4C9C6008694F48260A4AA13D0A724BAB8F18A592EDFE5093 SWAP3 SWAP1 DUP2 LT PUSH2 0x20C9 JUMPI PUSH2 0x20C9 PUSH2 0x2584 JUMP JUMPDEST SWAP1 PUSH1 0x0 MSTORE PUSH1 0x20 PUSH1 0x0 KECCAK256 SWAP1 PUSH1 0x7 MUL ADD PUSH1 0x1 ADD DUP3 PUSH1 0x40 MLOAD PUSH2 0xFBF SWAP3 SWAP2 SWAP1 PUSH2 0x29E4 JUMP JUMPDEST PUSH1 0x1 DUP1 SLOAD PUSH2 0x20F6 SWAP1 PUSH2 0x259A JUMP JUMPDEST DUP1 PUSH1 0x1F ADD PUSH1 0x20 DUP1 SWAP2 DIV MUL PUSH1 0x20 ADD PUSH1 0x40 MLOAD SWAP1 DUP2 ADD PUSH1 0x40 MSTORE DUP1 SWAP3 SWAP2 SWAP1 DUP2 DUP2 MSTORE PUSH1 0x20 ADD DUP3 DUP1 SLOAD PUSH2 0x2122 SWAP1 PUSH2 0x259A JUMP JUMPDEST DUP1 ISZERO PUSH2 0x216F JUMPI DUP1 PUSH1 0x1F LT PUSH2 0x2144 JUMPI PUSH2 0x100 DUP1 DUP4 SLOAD DIV MUL DUP4 MSTORE SWAP2 PUSH1 0x20 ADD SWAP2 PUSH2 0x216F JUMP JUMPDEST DUP3 ADD SWAP2 SWAP1 PUSH1 0x0 MSTORE PUSH1 0x20 PUSH1 0x0 KECCAK256 SWAP1 JUMPDEST DUP2 SLOAD DUP2 MSTORE SWAP1 PUSH1 0x1 ADD SWAP1 PUSH1 0x20 ADD DUP1 DUP4 GT PUSH2 0x2152 JUMPI DUP3 SWAP1 SUB PUSH1 0x1F AND DUP3 ADD SWAP2 JUMPDEST POP POP POP POP POP DUP2 JUMP JUMPDEST PUSH1 0x0 SLOAD PUSH1 0x1 PUSH1 0x1 PUSH1 0xA0 SHL SUB AND CALLER EQ PUSH2 0x21BF JUMPI PUSH1 0x40 MLOAD PUSH3 0x461BCD PUSH1 0xE5 SHL DUP2 MSTORE PUSH1 0x20 PUSH1 0x4 DUP3 ADD MSTORE PUSH1 0xB PUSH1 0x24 DUP3 ADD MSTORE PUSH11 0x27B7363C9037BBB732B917 PUSH1 0xA9 SHL PUSH1 0x44 DUP3 ADD MSTORE PUSH1 0x64 ADD PUSH2 0x43E JUMP JUMPDEST DUP5 ISZERO PUSH2 0x21EB JUMPI DUP5 PUSH1 0x6 DUP8 DUP2 SLOAD DUP2 LT PUSH2 0x21D9 JUMPI PUSH2 0x21D9 PUSH2 0x2584 JUMP JUMPDEST PUSH1 0x0 SWAP2 DUP3 MSTORE PUSH1 0x20 SWAP1 SWAP2 KECCAK256 PUSH1 0x7 SWAP1 SWAP2 MUL ADD SSTORE JUMPDEST DUP4 ISZERO PUSH2 0x221B JUMPI DUP4 PUSH1 0x6 DUP8 DUP2 SLOAD DUP2 LT PUSH2 0x2205 JUMPI PUSH2 0x2205 PUSH2 0x2584 JUMP JUMPDEST SWAP1 PUSH1 0x0 MSTORE PUSH1 0x20 PUSH1 0x0 KECCAK256 SWAP1 PUSH1 0x7 MUL ADD PUSH1 0x2 ADD DUP2 SWAP1 SSTORE POP JUMPDEST DUP3 ISZERO PUSH2 0x224B JUMPI DUP3 PUSH1 0x6 DUP8 DUP2 SLOAD DUP2 LT PUSH2 0x2235 JUMPI PUSH2 0x2235 PUSH2 0x2584 JUMP JUMPDEST SWAP1 PUSH1 0x0 MSTORE PUSH1 0x20 PUSH1 0x0 KECCAK256 SWAP1 PUSH1 0x7 MUL ADD PUSH1 0x3 ADD DUP2 SWAP1 SSTORE POP JUMPDEST DUP2 ISZERO PUSH2 0x227B JUMPI DUP2 PUSH1 0x6 DUP8 DUP2 SLOAD DUP2 LT PUSH2 0x2265 JUMPI PUSH2 0x2265 PUSH2 0x2584 JUMP JUMPDEST SWAP1 PUSH1 0x0 MSTORE PUSH1 0x20 PUSH1 0x0 KECCAK256 SWAP1 PUSH1 0x7 MUL ADD PUSH1 0x4 ADD DUP2 SWAP1 SSTORE POP JUMPDEST DUP1 ISZERO PUSH2 0x22AB JUMPI DUP1 PUSH1 0x6 DUP8 DUP2 SLOAD DUP2 LT PUSH2 0x2295 JUMPI PUSH2 0x2295 PUSH2 0x2584 JUMP JUMPDEST SWAP1 PUSH1 0x0 MSTORE PUSH1 0x20 PUSH1 0x0 KECCAK256 SWAP1 PUSH1 0x7 MUL ADD PUSH1 0x5 ADD DUP2 SWAP1 SSTORE POP JUMPDEST POP POP POP POP POP POP JUMP JUMPDEST PUSH1 0x0 PUSH2 0x22BF DUP3 DUP5 PUSH2 0x2685 JUMP JUMPDEST SWAP1 POP JUMPDEST SWAP3 SWAP2 POP POP JUMP JUMPDEST PUSH1 0x0 PUSH2 0x22BF DUP3 DUP5 PUSH2 0x255D JUMP JUMPDEST PUSH1 0x0 PUSH2 0x22BF DUP3 DUP5 PUSH2 0x269C JUMP JUMPDEST PUSH1 0x0 PUSH2 0x22BF DUP3 DUP5 PUSH2 0x2571 JUMP JUMPDEST PUSH1 0x0 PUSH1 0x20 DUP3 DUP5 SUB SLT ISZERO PUSH2 0x22FE JUMPI PUSH1 0x0 DUP1 REVERT JUMPDEST POP CALLDATALOAD SWAP2 SWAP1 POP JUMP JUMPDEST DUP1 CALLDATALOAD PUSH1 0x1 PUSH1 0x1 PUSH1 0xA0 SHL SUB DUP2 AND DUP2 EQ PUSH2 0x231C JUMPI PUSH1 0x0 DUP1 REVERT JUMPDEST SWAP2 SWAP1 POP JUMP JUMPDEST PUSH1 0x0 PUSH1 0x20 DUP3 DUP5 SUB SLT ISZERO PUSH2 0x2333 JUMPI PUSH1 0x0 DUP1 REVERT JUMPDEST PUSH2 0x22BF DUP3 PUSH2 0x2305 JUMP JUMPDEST PUSH1 0x0 DUP2 MLOAD DUP1 DUP5 MSTORE PUSH1 0x0 JUMPDEST DUP2 DUP2 LT ISZERO PUSH2 0x2362 JUMPI PUSH1 0x20 DUP2 DUP6 ADD DUP2 ADD MLOAD DUP7 DUP4 ADD DUP3 ADD MSTORE ADD PUSH2 0x2346 JUMP JUMPDEST POP PUSH1 0x0 PUSH1 0x20 DUP3 DUP7 ADD ADD MSTORE PUSH1 0x20 PUSH1 0x1F NOT PUSH1 0x1F DUP4 ADD AND DUP6 ADD ADD SWAP2 POP POP SWAP3 SWAP2 POP POP JUMP JUMPDEST DUP8 DUP2 MSTORE PUSH1 0xE0 PUSH1 0x20 DUP3 ADD MSTORE PUSH1 0x0 PUSH2 0x239B PUSH1 0xE0 DUP4 ADD DUP10 PUSH2 0x233C JUMP JUMPDEST PUSH1 0x40 DUP4 ADD SWAP8 SWAP1 SWAP8 MSTORE POP PUSH1 0x60 DUP2 ADD SWAP5 SWAP1 SWAP5 MSTORE PUSH1 0x80 DUP5 ADD SWAP3 SWAP1 SWAP3 MSTORE PUSH1 0xA0 DUP4 ADD MSTORE PUSH1 0xC0 SWAP1 SWAP2 ADD MSTORE SWAP3 SWAP2 POP POP JUMP JUMPDEST PUSH1 0x0 DUP1 PUSH1 0x40 DUP4 DUP6 SUB SLT ISZERO PUSH2 0x23D8 JUMPI PUSH1 0x0 DUP1 REVERT JUMPDEST DUP3 CALLDATALOAD SWAP2 POP PUSH2 0x23E8 PUSH1 0x20 DUP5 ADD PUSH2 0x2305 JUMP JUMPDEST SWAP1 POP SWAP3 POP SWAP3 SWAP1 POP JUMP JUMPDEST PUSH4 0x4E487B71 PUSH1 0xE0 SHL PUSH1 0x0 MSTORE PUSH1 0x41 PUSH1 0x4 MSTORE PUSH1 0x24 PUSH1 0x0 REVERT JUMPDEST PUSH1 0x0 DUP1 PUSH1 0x40 DUP4 DUP6 SUB SLT ISZERO PUSH2 0x241A JUMPI PUSH1 0x0 DUP1 REVERT JUMPDEST DUP3 CALLDATALOAD SWAP2 POP PUSH1 0x20 DUP4 ADD CALLDATALOAD PUSH8 0xFFFFFFFFFFFFFFFF DUP1 DUP3 GT ISZERO PUSH2 0x2439 JUMPI PUSH1 0x0 DUP1 REVERT JUMPDEST DUP2 DUP6 ADD SWAP2 POP DUP6 PUSH1 0x1F DUP4 ADD SLT PUSH2 0x244D JUMPI PUSH1 0x0 DUP1 REVERT JUMPDEST DUP2 CALLDATALOAD DUP2 DUP2 GT ISZERO PUSH2 0x245F JUMPI PUSH2 0x245F PUSH2 0x23F1 JUMP JUMPDEST PUSH1 0x40 MLOAD PUSH1 0x1F DUP3 ADD PUSH1 0x1F NOT SWAP1 DUP2 AND PUSH1 0x3F ADD AND DUP2 ADD SWAP1 DUP4 DUP3 GT DUP2 DUP4 LT OR ISZERO PUSH2 0x2487 JUMPI PUSH2 0x2487 PUSH2 0x23F1 JUMP JUMPDEST DUP2 PUSH1 0x40 MSTORE DUP3 DUP2 MSTORE DUP9 PUSH1 0x20 DUP5 DUP8 ADD ADD GT ISZERO PUSH2 0x24A0 JUMPI PUSH1 0x0 DUP1 REVERT JUMPDEST DUP3 PUSH1 0x20 DUP7 ADD PUSH1 0x20 DUP4 ADD CALLDATACOPY PUSH1 0x0 PUSH1 0x20 DUP5 DUP4 ADD ADD MSTORE DUP1 SWAP6 POP POP POP POP POP POP SWAP3 POP SWAP3 SWAP1 POP JUMP JUMPDEST PUSH1 0x20 DUP2 MSTORE PUSH1 0x0 PUSH2 0x22BF PUSH1 0x20 DUP4 ADD DUP5 PUSH2 0x233C JUMP JUMPDEST PUSH1 0x0 DUP1 PUSH1 0x0 DUP1 PUSH1 0x0 DUP1 PUSH1 0xC0 DUP8 DUP10 SUB SLT ISZERO PUSH2 0x24EE JUMPI PUSH1 0x0 DUP1 REVERT JUMPDEST POP POP DUP5 CALLDATALOAD SWAP7 PUSH1 0x20 DUP7 ADD CALLDATALOAD SWAP7 POP PUSH1 0x40 DUP7 ADD CALLDATALOAD SWAP6 PUSH1 0x60 DUP2 ADD CALLDATALOAD SWAP6 POP PUSH1 0x80 DUP2 ADD CALLDATALOAD SWAP5 POP PUSH1 0xA0 ADD CALLDATALOAD SWAP3 POP SWAP1 POP JUMP JUMPDEST PUSH1 0x0 PUSH1 0x20 DUP3 DUP5 SUB SLT ISZERO PUSH2 0x252A JUMPI PUSH1 0x0 DUP1 REVERT JUMPDEST POP MLOAD SWAP2 SWAP1 POP JUMP JUMPDEST PUSH4 0x4E487B71 PUSH1 0xE0 SHL PUSH1 0x0 MSTORE PUSH1 0x12 PUSH1 0x4 MSTORE PUSH1 0x24 PUSH1 0x0 REVERT JUMPDEST PUSH4 0x4E487B71 PUSH1 0xE0 SHL PUSH1 0x0 MSTORE PUSH1 0x11 PUSH1 0x4 MSTORE PUSH1 0x24 PUSH1 0x0 REVERT JUMPDEST PUSH1 0x0 DUP3 PUSH2 0x256C JUMPI PUSH2 0x256C PUSH2 0x2531 JUMP JUMPDEST POP DIV SWAP1 JUMP JUMPDEST DUP1 DUP3 ADD DUP1 DUP3 GT ISZERO PUSH2 0x22C2 JUMPI PUSH2 0x22C2 PUSH2 0x2547 JUMP JUMPDEST PUSH4 0x4E487B71 PUSH1 0xE0 SHL PUSH1 0x0 MSTORE PUSH1 0x32 PUSH1 0x4 MSTORE PUSH1 0x24 PUSH1 0x0 REVERT JUMPDEST PUSH1 0x1 DUP2 DUP2 SHR SWAP1 DUP3 AND DUP1 PUSH2 0x25AE JUMPI PUSH1 0x7F DUP3 AND SWAP2 POP JUMPDEST PUSH1 0x20 DUP3 LT DUP2 SUB PUSH2 0x25CE JUMPI PUSH4 0x4E487B71 PUSH1 0xE0 SHL PUSH1 0x0 MSTORE PUSH1 0x22 PUSH1 0x4 MSTORE PUSH1 0x24 PUSH1 0x0 REVERT JUMPDEST POP SWAP2 SWAP1 POP JUMP JUMPDEST PUSH1 0x0 DUP2 SLOAD PUSH2 0x25E1 DUP2 PUSH2 0x259A JUMP JUMPDEST DUP1 DUP6 MSTORE PUSH1 0x20 PUSH1 0x1 DUP4 DUP2 AND DUP1 ISZERO PUSH2 0x25FE JUMPI PUSH1 0x1 DUP2 EQ PUSH2 0x2618 JUMPI PUSH2 0x2646 JUMP JUMPDEST PUSH1 0xFF NOT DUP6 AND DUP9 DUP5 ADD MSTORE DUP4 ISZERO ISZERO PUSH1 0x5 SHL DUP9 ADD DUP4 ADD SWAP6 POP PUSH2 0x2646 JUMP JUMPDEST DUP7 PUSH1 0x0 MSTORE DUP3 PUSH1 0x0 KECCAK256 PUSH1 0x0 JUMPDEST DUP6 DUP2 LT ISZERO PUSH2 0x263E JUMPI DUP2 SLOAD DUP11 DUP3 ADD DUP7 ADD MSTORE SWAP1 DUP4 ADD SWAP1 DUP5 ADD PUSH2 0x2623 JUMP JUMPDEST DUP10 ADD DUP5 ADD SWAP7 POP POP JUMPDEST POP POP POP POP POP SWAP3 SWAP2 POP POP JUMP JUMPDEST PUSH1 0x1 PUSH1 0x1 PUSH1 0xA0 SHL SUB DUP5 AND DUP2 MSTORE PUSH1 0x60 PUSH1 0x20 DUP3 ADD DUP2 SWAP1 MSTORE PUSH1 0x0 SWAP1 PUSH2 0x2675 SWAP1 DUP4 ADD DUP6 PUSH2 0x25D4 JUMP JUMPDEST SWAP1 POP DUP3 PUSH1 0x40 DUP4 ADD MSTORE SWAP5 SWAP4 POP POP POP POP JUMP JUMPDEST DUP1 DUP3 MUL DUP2 ISZERO DUP3 DUP3 DIV DUP5 EQ OR PUSH2 0x22C2 JUMPI PUSH2 0x22C2 PUSH2 0x2547 JUMP JUMPDEST DUP2 DUP2 SUB DUP2 DUP2 GT ISZERO PUSH2 0x22C2 JUMPI PUSH2 0x22C2 PUSH2 0x2547 JUMP JUMPDEST PUSH1 0x1 PUSH1 0x1 PUSH1 0xA0 SHL SUB DUP4 AND DUP2 MSTORE PUSH1 0x40 PUSH1 0x20 DUP3 ADD DUP2 SWAP1 MSTORE PUSH1 0x0 SWAP1 PUSH2 0x26D3 SWAP1 DUP4 ADD DUP5 PUSH2 0x25D4 JUMP JUMPDEST SWAP5 SWAP4 POP POP POP POP JUMP JUMPDEST PUSH1 0x20 DUP1 DUP3 MSTORE PUSH1 0x1D SWAP1 DUP3 ADD MSTORE PUSH32 0x5468652067616D6520686173206E6F742073746172746564207965742E000000 PUSH1 0x40 DUP3 ADD MSTORE PUSH1 0x60 ADD SWAP1 JUMP JUMPDEST PUSH1 0x20 DUP1 DUP3 MSTORE PUSH1 0x15 SWAP1 DUP3 ADD MSTORE PUSH21 0x2A3434B9903AB9B2B91034B99034B7103530B4B617 PUSH1 0x59 SHL PUSH1 0x40 DUP3 ADD MSTORE PUSH1 0x60 ADD SWAP1 JUMP JUMPDEST PUSH1 0x0 DUP3 PUSH2 0x2750 JUMPI PUSH2 0x2750 PUSH2 0x2531 JUMP JUMPDEST POP MOD SWAP1 JUMP JUMPDEST PUSH1 0x0 PUSH1 0x1 DUP3 ADD PUSH2 0x2767 JUMPI PUSH2 0x2767 PUSH2 0x2547 JUMP JUMPDEST POP PUSH1 0x1 ADD SWAP1 JUMP JUMPDEST PUSH1 0x20 DUP1 DUP3 MSTORE PUSH1 0x2B SWAP1 DUP3 ADD MSTORE PUSH32 0x4F6E6C7920746865206361707461696E206F72206669727374206D6174652063 PUSH1 0x40 DUP3 ADD MSTORE PUSH11 0x30B7103237903A3434B997 PUSH1 0xA9 SHL PUSH1 0x60 DUP3 ADD MSTORE PUSH1 0x80 ADD SWAP1 JUMP JUMPDEST PUSH1 0x1F DUP3 GT ISZERO PUSH2 0x1F72 JUMPI PUSH1 0x0 DUP2 DUP2 MSTORE PUSH1 0x20 DUP2 KECCAK256 PUSH1 0x1F DUP6 ADD PUSH1 0x5 SHR DUP2 ADD PUSH1 0x20 DUP7 LT ISZERO PUSH2 0x27E0 JUMPI POP DUP1 JUMPDEST PUSH1 0x1F DUP6 ADD PUSH1 0x5 SHR DUP3 ADD SWAP2 POP JUMPDEST DUP2 DUP2 LT ISZERO PUSH2 0x22AB JUMPI DUP3 DUP2 SSTORE PUSH1 0x1 ADD PUSH2 0x27EC JUMP JUMPDEST DUP2 DUP2 SUB PUSH2 0x280A JUMPI POP POP JUMP JUMPDEST PUSH2 0x2814 DUP3 SLOAD PUSH2 0x259A JUMP JUMPDEST PUSH8 0xFFFFFFFFFFFFFFFF DUP2 GT ISZERO PUSH2 0x282C JUMPI PUSH2 0x282C PUSH2 0x23F1 JUMP JUMPDEST PUSH2 0x2840 DUP2 PUSH2 0x283A DUP5 SLOAD PUSH2 0x259A JUMP JUMPDEST DUP5 PUSH2 0x27B9 JUMP JUMPDEST PUSH1 0x0 PUSH1 0x1F DUP3 GT PUSH1 0x1 DUP2 EQ PUSH2 0x2874 JUMPI PUSH1 0x0 DUP4 ISZERO PUSH2 0x285C JUMPI POP DUP5 DUP3 ADD SLOAD JUMPDEST PUSH1 0x0 NOT PUSH1 0x3 DUP6 SWAP1 SHL SHR NOT AND PUSH1 0x1 DUP5 SWAP1 SHL OR DUP5 SSTORE PUSH2 0x28D9 JUMP JUMPDEST PUSH1 0x0 DUP6 DUP2 MSTORE PUSH1 0x20 SWAP1 KECCAK256 PUSH1 0x1F NOT DUP5 AND SWAP1 PUSH1 0x0 DUP7 DUP2 MSTORE PUSH1 0x20 SWAP1 KECCAK256 DUP5 JUMPDEST DUP4 DUP2 LT ISZERO PUSH2 0x28AE JUMPI DUP3 DUP7 ADD SLOAD DUP3 SSTORE PUSH1 0x1 SWAP6 DUP7 ADD SWAP6 SWAP1 SWAP2 ADD SWAP1 PUSH1 0x20 ADD PUSH2 0x288E JUMP JUMPDEST POP DUP6 DUP4 LT ISZERO PUSH2 0x28CC JUMPI DUP2 DUP6 ADD SLOAD PUSH1 0x0 NOT PUSH1 0x3 DUP9 SWAP1 SHL PUSH1 0xF8 AND SHR NOT AND DUP2 SSTORE JUMPDEST POP POP POP PUSH1 0x1 DUP4 PUSH1 0x1 SHL ADD DUP5 SSTORE JUMPDEST POP POP POP POP POP JUMP JUMPDEST PUSH1 0x1 PUSH1 0x1 PUSH1 0xA0 SHL SUB DUP6 AND DUP2 MSTORE PUSH1 0x80 PUSH1 0x20 DUP3 ADD DUP2 SWAP1 MSTORE PUSH1 0x0 SWAP1 PUSH2 0x2904 SWAP1 DUP4 ADD DUP7 PUSH2 0x25D4 JUMP JUMPDEST DUP3 DUP2 SUB PUSH1 0x40 DUP5 ADD MSTORE PUSH2 0x2916 DUP2 DUP7 PUSH2 0x25D4 JUMP JUMPDEST SWAP2 POP POP DUP3 ISZERO ISZERO PUSH1 0x60 DUP4 ADD MSTORE SWAP6 SWAP5 POP POP POP POP POP JUMP JUMPDEST DUP2 MLOAD PUSH8 0xFFFFFFFFFFFFFFFF DUP2 GT ISZERO PUSH2 0x2944 JUMPI PUSH2 0x2944 PUSH2 0x23F1 JUMP JUMPDEST PUSH2 0x2952 DUP2 PUSH2 0x283A DUP5 SLOAD PUSH2 0x259A JUMP JUMPDEST PUSH1 0x20 DUP1 PUSH1 0x1F DUP4 GT PUSH1 0x1 DUP2 EQ PUSH2 0x2987 JUMPI PUSH1 0x0 DUP5 ISZERO PUSH2 0x296F JUMPI POP DUP6 DUP4 ADD MLOAD JUMPDEST PUSH1 0x0 NOT PUSH1 0x3 DUP7 SWAP1 SHL SHR NOT AND PUSH1 0x1 DUP6 SWAP1 SHL OR DUP6 SSTORE PUSH2 0x22AB JUMP JUMPDEST PUSH1 0x0 DUP6 DUP2 MSTORE PUSH1 0x20 DUP2 KECCAK256 PUSH1 0x1F NOT DUP7 AND SWAP2 JUMPDEST DUP3 DUP2 LT ISZERO PUSH2 0x29B6 JUMPI DUP9 DUP7 ADD MLOAD DUP3 SSTORE SWAP5 DUP5 ADD SWAP5 PUSH1 0x1 SWAP1 SWAP2 ADD SWAP1 DUP5 ADD PUSH2 0x2997 JUMP JUMPDEST POP DUP6 DUP3 LT ISZERO PUSH2 0x29D4 JUMPI DUP8 DUP6 ADD MLOAD PUSH1 0x0 NOT PUSH1 0x3 DUP9 SWAP1 SHL PUSH1 0xF8 AND SHR NOT AND DUP2 SSTORE JUMPDEST POP POP POP POP POP PUSH1 0x1 SWAP1 DUP2 SHL ADD SWAP1 SSTORE POP JUMP JUMPDEST PUSH1 0x40 DUP2 MSTORE PUSH1 0x0 PUSH2 0x29F7 PUSH1 0x40 DUP4 ADD DUP6 PUSH2 0x25D4 JUMP JUMPDEST SWAP1 POP PUSH1 0x1 DUP1 PUSH1 0xA0 SHL SUB DUP4 AND PUSH1 0x20 DUP4 ADD MSTORE SWAP4 SWAP3 POP POP POP JUMP INVALID LOG2 PUSH5 0x6970667358 0x22 SLT KECCAK256 SHR 0xD2 CODECOPY 0xB1 SWAP7 DUP15 0xCC 0xB4 CALLDATACOPY SGT GAS SWAP3 0xE5 0xEA 0xAA XOR 0x4A MULMOD 0xF9 DUP14 DUP3 0xD1 0xB4 LOG3 0x2A 0x24 0x4B SWAP7 NUMBER ISZERO SWAP4 0x24 PUSH5 0x736F6C6343 STOP ADDMOD GT STOP CALLER ",
  "sha1": "14f0d4cd8507122053afc60e95cc8e96f7d48361",
  "source": "pragma solidity ^0.8.0;\n\nimport \"@openzeppelin/contracts/utils/math/SafeMath.sol\";\nimport \"@openzeppelin/contracts/token/ERC20/IERC20.sol\";\nusing SafeMath for uint256;\n\ncontract PirateRace {\n    struct Team {\n        uint256 totalMoney;\n        string teamName;\n        uint256 speed;\n        uint256 distance;\n        uint256 defense;\n        uint256 attack;\n        uint256 numPirates;\n    }\n\n    struct Contribution {\n        uint256 money;\n        uint256 actions;\n    }\n\n    address public owner;\n    string public winner= \"\";\n    uint256 public finishLine = 1e6;\n    bool gameStarted = false;\n    IERC20 public Qi = IERC20(0x580A84C73811E1839F75d86d75d88cCa0c241fF4);\n    IERC20 public eQi = IERC20(0x880DeCADe22aD9c58A8A4202EF143c4F305100B3);\n    uint256 private lastUpdated;\n    Team[] public teams;\n\n    mapping (address => uint256) public userToTeam;\n    mapping (address => bool) public jail;\n    mapping (address => Contribution) public userScore;\n    mapping (uint256 => address) public captain;\n    mapping (uint256 => address) public firstMate;\n\n    constructor() public {\n        owner = msg.sender;\n        teams.push(Team({totalMoney: 0, teamName:\"Team Ben\", speed:0, distance:0, defense:0, attack:0, numPirates:0}));\n        teams.push(Team({totalMoney: 0, teamName:\"Team Kila\", speed:0, distance:0, defense:0, attack:0, numPirates:0}));\n        teams.push(Team({totalMoney: 0, teamName:\"Team Nacho\", speed:0, distance:0, defense:0, attack:0, numPirates:0}));\n        teams.push(Team({totalMoney: 0, teamName:\"Team ??\", speed:0, distance:0, defense:0, attack:0, numPirates:0}));\n        lastUpdated = block.timestamp;\n    }\n\n    // owner functions\n    function startRace() public {\n        require(msg.sender == owner, \"Only the owner can start the race.\");\n        require(!gameStarted, \"Game already started.\");\n        gameStarted = true;\n        for (uint256 i = 0; i < teams.length; i++) {\n            teams[i].speed = 1;\n        }\n        lastUpdated = block.timestamp;\n    }\n\n    function nameTeam(uint256 teamId, string memory teamName) public {\n        require(msg.sender == owner, \"Only the owner can name the teams.\");\n        teams[teamId].teamName = teamName;\n    }\n\n    function changeSettings(uint256 _teamId, uint256 _money, uint256 _speed, uint256 _distance, uint256 _defense, uint256 _attack) public {\n        require(msg.sender == owner, \"Only owner.\");\n        if (_money != 0)    teams[_teamId].totalMoney = _money;\n        if (_speed != 0)    teams[_teamId].speed = _speed;\n        if (_distance != 0) teams[_teamId].distance = _distance;\n        if (_defense != 0)  teams[_teamId].defense = _defense;\n        if (_attack != 0)   teams[_teamId].attack = _attack;\n    }\n\n    // player functions\n    function join(uint256 teamId) public {\n        require(teamId < teams.length, \"Invalid team ID.\");\n        uint256 money = Qi.balanceOf(msg.sender)/1e18 + eQi.balanceOf(msg.sender)/1e18;\n        require(money >= 100, \"Requires at least 100 Qi + eQi to play.\");\n\n        teams[teamId].totalMoney += money;\n        teams[teamId].numPirates += 1;\n        userToTeam[msg.sender] = teamId;\n        userScore[msg.sender].money = money;\n        emit TeamJoin(msg.sender, teams[teamId].teamName, money);\n    }\n\n    function pickCaptain(uint256 teamId, address user) public {\n        require(msg.sender == owner, \"Only the owner can pick captains.\");\n        captain[userToTeam[user]] = user;\n    }\n\n    function pickFirstMate(address user) public isCaptain{\n        require(userToTeam[msg.sender] == userToTeam[user], \"First mate must be on your team.\");\n        firstMate[userToTeam[user]] = user;\n        emit FirstMate (teams[userToTeam[msg.sender]].teamName, user);\n    }\n\n    // update the distance for each team\n    function updateDistance() public isGameStarted {\n        for (uint256 i = 0; i < teams.length; i++) {\n            uint256 timePassed = block.timestamp - lastUpdated;\n            teams[i].distance += teams[i].speed * timePassed;\n            if (teams[i].distance >= finishLine && bytes(winner).length == 0) {\n                winner = teams[i].teamName;\n            }\n        }\n        lastUpdated = block.timestamp;\n        emit DistanceUpdated(teams[0].distance, teams[1].distance, teams[2].distance, teams[3].distance);\n    }\n\n    function upgradeEngine() public isGameStarted notInJail {\n        uint256 teamId = userToTeam[msg.sender];\n        require(teams[teamId].totalMoney >= 1, \"Not enough money to upgrade engine.\");\n        \n        teams[teamId].totalMoney = teams[teamId].totalMoney.sub(1);\n        teams[teamId].speed = teams[teamId].speed.add(1);\n        \n        userScore[msg.sender].actions += 1;\n        updateDistance();\n        emit EngineUpgraded(msg.sender, teams[teamId].teamName);\n    }\n\n    function upgradeDefense() public isGameStarted notInJail {\n        uint256 teamId = userToTeam[msg.sender];\n        require(teams[teamId].totalMoney >= 1, \"Not enough money to upgrade defense.\");\n        \n        teams[teamId].totalMoney = teams[teamId].totalMoney.sub(1);\n        teams[teamId].defense = teams[teamId].defense.add(1);\n        \n        userScore[msg.sender].actions += 1;\n        updateDistance();\n        emit DefenseUpgraded(msg.sender, teams[teamId].teamName);\n    }\n\n    function upgradeAttack() public isGameStarted notInJail {\n        uint256 teamId = userToTeam[msg.sender];\n        require(teams[teamId].totalMoney >= 1, \"Not enough money to upgrade attack.\");\n        \n        teams[teamId].totalMoney = teams[teamId].totalMoney.sub(1);\n        teams[teamId].attack = teams[teamId].attack.add(1);\n        \n        userScore[msg.sender].actions += 1;\n        updateDistance();\n        emit AttackUpgraded(msg.sender, teams[teamId].teamName);\n    }\n\n    function fireCannon(uint256 targetTeam) public isGameStarted notInJail {\n        require(targetTeam < teams.length, \"Invalid target team.\");\n        require(targetTeam != userToTeam[msg.sender], \"Cannot fire at own team.\");\n        \n        uint256 teamId = userToTeam[msg.sender];\n        bool hit = false;\n        uint256 hitChance = 33; \n        \n        if(hitChance + teams[teamId].attack < teams[targetTeam].defense) hitChance = 1; //overflow, min hitrate, 1%\n        else hitChance = 33 + teams[teamId].attack - teams[targetTeam].defense; //default chance 33% + att - def\n        if(hitChance > 99) hitChance = 99; //max hitrate, 99%\n        \n        uint256 random = uint256(keccak256(abi.encodePacked(block.timestamp, msg.sender))) % 100;\n\n        if (random < hitChance) {\n            teams[targetTeam].distance = teams[targetTeam].distance.mul(98).div(100); //2% distance loss\n            if (teams[targetTeam].speed > 3) teams[targetTeam].speed = teams[targetTeam].speed.sub(2); //2 speed loss\n            hit = true;\n        }\n        \n        userScore[msg.sender].actions += 1;\n        updateDistance();\n        emit CannonFired(msg.sender, teams[teamId].teamName, teams[targetTeam].teamName, hit);\n    }\n\n    function buyMysteryBox() public isGameStarted notInJail {\n        uint256 teamId = userToTeam[msg.sender];\n        require(teams[teamId].totalMoney >= 5, \"Not enough money to buy a mystery box.\");\n        teams[teamId].totalMoney -= 5;\n        \n        uint256 result = 0;\n        uint256 randomNum = uint256(keccak256(abi.encodePacked(block.timestamp, msg.sender))) % 100;\n        \n        if (randomNum < 50) {\n            // nothing happens\n        } else if (randomNum < 65) { // more money\n            teams[teamId].totalMoney += 200;\n            result = 1;\n        } else if (randomNum < 85) { // ship upgrades\n            teams[teamId].speed += 2;\n            teams[teamId].defense += 2;\n            teams[teamId].attack += 2;\n            result = 2;\n        } else { // kraken attacked everybody!\n            for (uint256 i = 0; i < teams.length; i++)\n                teams[i].distance = teams[i].distance.mul(90).div(100); //10% distance loss\n            result = 3;\n        }\n        \n        userScore[msg.sender].actions += 1;\n        updateDistance();\n        emit MysteryBox(msg.sender, teams[teamId].teamName, result);\n    }\n\n    function putInJail(address user) public isCaptainOrFirstMate {\n        require(userToTeam[msg.sender] == userToTeam[user], \"Cannot put someone on another team in jail.\");\n        jail[user] = true;\n        emit InJail(user, teams[userToTeam[user]].teamName);\n    }\n\n    function takeOutOfJail(address user) public isCaptainOrFirstMate {\n        require(userToTeam[msg.sender] == userToTeam[user], \"Cannot take someone on another team out of jail.\");\n        jail[user] = false;\n        emit OutofJail(user, teams[userToTeam[user]].teamName);\n    }\n\n    function checkForgedPapers(address user) public {\n        require(!jail[user], \"already in jail\");\n        uint256 currentMoney = Qi.balanceOf(user)/1e18 + eQi.balanceOf(user)/1e18;\n        uint256 originalMoney = userScore[user].money;\n        uint256 teamId = userToTeam[user];\n\n        if (currentMoney < originalMoney*9/10) {\n            jail[user] = true;\n            if (teams[teamId].totalMoney > originalMoney * 2) //penalty\n                teams[teamId].totalMoney -= originalMoney * 2;\n            else {\n                teams[teamId].totalMoney = 0;\n            }\n\n            emit InJail(user, teams[userToTeam[user]].teamName);\n        } \n    }\n\n    modifier isGameStarted() {\n        require(gameStarted, \"The game has not started yet.\");\n        _;\n    }\n\n    modifier isCaptain() {\n        require(captain[userToTeam[msg.sender]] == msg.sender, \"Only the captain can do this.\");\n        _;\n    }\n\n    modifier isCaptainOrFirstMate() {\n        require(captain[userToTeam[msg.sender]] == msg.sender || firstMate[userToTeam[msg.sender]] == msg.sender, \"Only the captain or first mate can do this.\");\n        _;\n    }\n\n    modifier notInJail() {\n        require(!jail[msg.sender], \"This user is in jail.\");\n        _;\n    }\n\n    event TeamJoin(address user, string teamName, uint256 money);\n    event DistanceUpdated(uint256 team0, uint256 team1, uint256 team2, uint256 team3);\n    event EngineUpgraded(address user, string teamName);\n    event DefenseUpgraded(address user, string teamName);\n    event AttackUpgraded(address user, string teamName);\n    event CannonFired(address user, string shooter, string target, bool hit);\n    event InJail(address user, string teamName);    \n    event OutofJail(address user, string teamName);\n    event MysteryBox(address user, string teamName, uint256 result);\n    event FirstMate (string teamName, address user);\n\n}\n\n\n",
  "sourcePath": "contracts/race.sol",
  "type": "contract"
}